{
  "address": "0xe7B52a7Bc50cb4Ff13d057629082844780b6E28D",
  "abi": [
    {
      "inputs": [
        {
          "internalType": "contract IArbitratorV2",
          "name": "_arbitrator",
          "type": "address"
        },
        {
          "internalType": "bytes",
          "name": "_arbitratorExtraData",
          "type": "bytes"
        },
        {
          "internalType": "string",
          "name": "_templateData",
          "type": "string"
        },
        {
          "internalType": "string",
          "name": "_templateDataMappings",
          "type": "string"
        },
        {
          "internalType": "contract IDisputeTemplateRegistry",
          "name": "_templateRegistry",
          "type": "address"
        },
        {
          "internalType": "uint256",
          "name": "_feeTimeout",
          "type": "uint256"
        },
        {
          "internalType": "uint256",
          "name": "_settlementTimeout",
          "type": "uint256"
        }
      ],
      "stateMutability": "nonpayable",
      "type": "constructor"
    },
    {
      "inputs": [],
      "name": "ArbitratorOnly",
      "type": "error"
    },
    {
      "inputs": [],
      "name": "BuyerFeeNotCoverArbitrationCosts",
      "type": "error"
    },
    {
      "inputs": [],
      "name": "BuyerOnly",
      "type": "error"
    },
    {
      "inputs": [],
      "name": "BuyerOrSellerOnly",
      "type": "error"
    },
    {
      "inputs": [],
      "name": "DeadlineNotPassed",
      "type": "error"
    },
    {
      "inputs": [],
      "name": "DisputeAlreadyResolved",
      "type": "error"
    },
    {
      "inputs": [],
      "name": "GovernorOnly",
      "type": "error"
    },
    {
      "inputs": [],
      "name": "InvalidRuling",
      "type": "error"
    },
    {
      "inputs": [],
      "name": "MaximumPaymentAmountExceeded",
      "type": "error"
    },
    {
      "inputs": [],
      "name": "NoSettlementProposedOrTransactionMovedOnAcceptSettlement",
      "type": "error"
    },
    {
      "inputs": [],
      "name": "NoSettlementProposedOrTransactionMovedOnPayFeeBuyer",
      "type": "error"
    },
    {
      "inputs": [],
      "name": "NoSettlementProposedOrTransactionMovedOnPayFeeSeller",
      "type": "error"
    },
    {
      "inputs": [],
      "name": "NotWaitingForBuyerFees",
      "type": "error"
    },
    {
      "inputs": [],
      "name": "NotWaitingForSellerFees",
      "type": "error"
    },
    {
      "inputs": [],
      "name": "SellerFeeNotCoverArbitrationCosts",
      "type": "error"
    },
    {
      "inputs": [],
      "name": "SellerOnly",
      "type": "error"
    },
    {
      "inputs": [],
      "name": "SettlementPeriodNotOver",
      "type": "error"
    },
    {
      "inputs": [],
      "name": "TimeoutNotPassed",
      "type": "error"
    },
    {
      "inputs": [],
      "name": "TokenTransferFailed",
      "type": "error"
    },
    {
      "inputs": [],
      "name": "TransactionDisputed",
      "type": "error"
    },
    {
      "inputs": [],
      "name": "TransactionEscalatedForArbitration",
      "type": "error"
    },
    {
      "inputs": [],
      "name": "TransactionExpired",
      "type": "error"
    },
    {
      "anonymous": false,
      "inputs": [
        {
          "indexed": true,
          "internalType": "contract IArbitratorV2",
          "name": "_arbitrator",
          "type": "address"
        },
        {
          "indexed": true,
          "internalType": "uint256",
          "name": "_arbitrableDisputeID",
          "type": "uint256"
        },
        {
          "indexed": false,
          "internalType": "uint256",
          "name": "_externalDisputeID",
          "type": "uint256"
        },
        {
          "indexed": false,
          "internalType": "uint256",
          "name": "_templateId",
          "type": "uint256"
        },
        {
          "indexed": false,
          "internalType": "string",
          "name": "_templateUri",
          "type": "string"
        }
      ],
      "name": "DisputeRequest",
      "type": "event"
    },
    {
      "anonymous": false,
      "inputs": [
        {
          "indexed": true,
          "internalType": "uint256",
          "name": "_transactionID",
          "type": "uint256"
        },
        {
          "indexed": false,
          "internalType": "enum EscrowToken.Party",
          "name": "_party",
          "type": "uint8"
        }
      ],
      "name": "HasToPayFee",
      "type": "event"
    },
    {
      "anonymous": false,
      "inputs": [
        {
          "indexed": false,
          "internalType": "uint256",
          "name": "_feeTimeout",
          "type": "uint256"
        },
        {
          "indexed": false,
          "internalType": "uint256",
          "name": "_settlementTimeout",
          "type": "uint256"
        },
        {
          "indexed": false,
          "internalType": "bytes",
          "name": "_arbitratorExtraData",
          "type": "bytes"
        }
      ],
      "name": "ParameterUpdated",
      "type": "event"
    },
    {
      "anonymous": false,
      "inputs": [
        {
          "indexed": true,
          "internalType": "uint256",
          "name": "_transactionID",
          "type": "uint256"
        },
        {
          "indexed": false,
          "internalType": "uint256",
          "name": "_amount",
          "type": "uint256"
        },
        {
          "indexed": false,
          "internalType": "address",
          "name": "_party",
          "type": "address"
        }
      ],
      "name": "Payment",
      "type": "event"
    },
    {
      "anonymous": false,
      "inputs": [
        {
          "indexed": true,
          "internalType": "contract IArbitratorV2",
          "name": "_arbitrator",
          "type": "address"
        },
        {
          "indexed": true,
          "internalType": "uint256",
          "name": "_disputeID",
          "type": "uint256"
        },
        {
          "indexed": false,
          "internalType": "uint256",
          "name": "_ruling",
          "type": "uint256"
        }
      ],
      "name": "Ruling",
      "type": "event"
    },
    {
      "anonymous": false,
      "inputs": [
        {
          "indexed": true,
          "internalType": "uint256",
          "name": "_transactionID",
          "type": "uint256"
        },
        {
          "indexed": false,
          "internalType": "enum EscrowToken.Party",
          "name": "_party",
          "type": "uint8"
        },
        {
          "indexed": false,
          "internalType": "uint256",
          "name": "_amount",
          "type": "uint256"
        }
      ],
      "name": "SettlementProposed",
      "type": "event"
    },
    {
      "anonymous": false,
      "inputs": [
        {
          "indexed": true,
          "internalType": "uint256",
          "name": "_transactionID",
          "type": "uint256"
        },
        {
          "indexed": false,
          "internalType": "string",
          "name": "_transactionUri",
          "type": "string"
        },
        {
          "indexed": true,
          "internalType": "address",
          "name": "_buyer",
          "type": "address"
        },
        {
          "indexed": true,
          "internalType": "address",
          "name": "_seller",
          "type": "address"
        },
        {
          "indexed": false,
          "internalType": "contract IERC20",
          "name": "_token",
          "type": "address"
        },
        {
          "indexed": false,
          "internalType": "uint256",
          "name": "_amount",
          "type": "uint256"
        },
        {
          "indexed": false,
          "internalType": "string",
          "name": "_asset",
          "type": "string"
        },
        {
          "indexed": false,
          "internalType": "uint256",
          "name": "_deadline",
          "type": "uint256"
        }
      ],
      "name": "TransactionCreated",
      "type": "event"
    },
    {
      "anonymous": false,
      "inputs": [
        {
          "indexed": true,
          "internalType": "uint256",
          "name": "_transactionID",
          "type": "uint256"
        },
        {
          "indexed": true,
          "internalType": "enum EscrowToken.Resolution",
          "name": "_resolution",
          "type": "uint8"
        }
      ],
      "name": "TransactionResolved",
      "type": "event"
    },
    {
      "inputs": [],
      "name": "AMOUNT_OF_CHOICES",
      "outputs": [
        {
          "internalType": "uint256",
          "name": "",
          "type": "uint256"
        }
      ],
      "stateMutability": "view",
      "type": "function"
    },
    {
      "inputs": [
        {
          "internalType": "uint256",
          "name": "_transactionID",
          "type": "uint256"
        }
      ],
      "name": "acceptSettlement",
      "outputs": [],
      "stateMutability": "nonpayable",
      "type": "function"
    },
    {
      "inputs": [],
      "name": "arbitrator",
      "outputs": [
        {
          "internalType": "contract IArbitratorV2",
          "name": "",
          "type": "address"
        }
      ],
      "stateMutability": "view",
      "type": "function"
    },
    {
      "inputs": [],
      "name": "arbitratorExtraData",
      "outputs": [
        {
          "internalType": "bytes",
          "name": "",
          "type": "bytes"
        }
      ],
      "stateMutability": "view",
      "type": "function"
    },
    {
      "inputs": [
        {
          "internalType": "contract IArbitratorV2",
          "name": "_arbitrator",
          "type": "address"
        }
      ],
      "name": "changeArbitrator",
      "outputs": [],
      "stateMutability": "nonpayable",
      "type": "function"
    },
    {
      "inputs": [
        {
          "internalType": "bytes",
          "name": "_arbitratorExtraData",
          "type": "bytes"
        }
      ],
      "name": "changeArbitratorExtraData",
      "outputs": [],
      "stateMutability": "nonpayable",
      "type": "function"
    },
    {
      "inputs": [
        {
          "internalType": "string",
          "name": "_templateData",
          "type": "string"
        },
        {
          "internalType": "string",
          "name": "_templateDataMappings",
          "type": "string"
        }
      ],
      "name": "changeDisputeTemplate",
      "outputs": [],
      "stateMutability": "nonpayable",
      "type": "function"
    },
    {
      "inputs": [
        {
          "internalType": "uint256",
          "name": "_feeTimeout",
          "type": "uint256"
        }
      ],
      "name": "changeFeeTimeout",
      "outputs": [],
      "stateMutability": "nonpayable",
      "type": "function"
    },
    {
      "inputs": [
        {
          "internalType": "address",
          "name": "_governor",
          "type": "address"
        }
      ],
      "name": "changeGovernor",
      "outputs": [],
      "stateMutability": "nonpayable",
      "type": "function"
    },
    {
      "inputs": [
        {
          "internalType": "uint256",
          "name": "_settlementTimeout",
          "type": "uint256"
        }
      ],
      "name": "changeSettlementTimeout",
      "outputs": [],
      "stateMutability": "nonpayable",
      "type": "function"
    },
    {
      "inputs": [
        {
          "internalType": "contract IDisputeTemplateRegistry",
          "name": "_templateRegistry",
          "type": "address"
        }
      ],
      "name": "changeTemplateRegistry",
      "outputs": [],
      "stateMutability": "nonpayable",
      "type": "function"
    },
    {
      "inputs": [
        {
          "internalType": "uint256",
          "name": "_amount",
          "type": "uint256"
        },
        {
          "internalType": "contract IERC20",
          "name": "_token",
          "type": "address"
        },
        {
          "internalType": "uint256",
          "name": "_timeoutPayment",
          "type": "uint256"
        },
        {
          "internalType": "string",
          "name": "_transactionUri",
          "type": "string"
        },
        {
          "internalType": "address payable",
          "name": "_seller",
          "type": "address"
        },
        {
          "internalType": "string",
          "name": "_templateData",
          "type": "string"
        },
        {
          "internalType": "string",
          "name": "_templateDataMappings",
          "type": "string"
        }
      ],
      "name": "createTransaction",
      "outputs": [
        {
          "internalType": "uint256",
          "name": "transactionID",
          "type": "uint256"
        }
      ],
      "stateMutability": "nonpayable",
      "type": "function"
    },
    {
      "inputs": [
        {
          "internalType": "uint256",
          "name": "",
          "type": "uint256"
        }
      ],
      "name": "disputeIDtoTransactionID",
      "outputs": [
        {
          "internalType": "uint256",
          "name": "",
          "type": "uint256"
        }
      ],
      "stateMutability": "view",
      "type": "function"
    },
    {
      "inputs": [
        {
          "internalType": "uint256",
          "name": "_transactionID",
          "type": "uint256"
        }
      ],
      "name": "executeTransaction",
      "outputs": [],
      "stateMutability": "nonpayable",
      "type": "function"
    },
    {
      "inputs": [],
      "name": "feeTimeout",
      "outputs": [
        {
          "internalType": "uint256",
          "name": "",
          "type": "uint256"
        }
      ],
      "stateMutability": "view",
      "type": "function"
    },
    {
      "inputs": [],
      "name": "getCountTransactions",
      "outputs": [
        {
          "internalType": "uint256",
          "name": "",
          "type": "uint256"
        }
      ],
      "stateMutability": "view",
      "type": "function"
    },
    {
      "inputs": [],
      "name": "governor",
      "outputs": [
        {
          "internalType": "address",
          "name": "",
          "type": "address"
        }
      ],
      "stateMutability": "view",
      "type": "function"
    },
    {
      "inputs": [
        {
          "internalType": "uint256",
          "name": "_transactionID",
          "type": "uint256"
        },
        {
          "internalType": "uint256",
          "name": "_amount",
          "type": "uint256"
        }
      ],
      "name": "pay",
      "outputs": [],
      "stateMutability": "nonpayable",
      "type": "function"
    },
    {
      "inputs": [
        {
          "internalType": "uint256",
          "name": "_transactionID",
          "type": "uint256"
        }
      ],
      "name": "payArbitrationFeeByBuyer",
      "outputs": [],
      "stateMutability": "payable",
      "type": "function"
    },
    {
      "inputs": [
        {
          "internalType": "uint256",
          "name": "_transactionID",
          "type": "uint256"
        }
      ],
      "name": "payArbitrationFeeBySeller",
      "outputs": [],
      "stateMutability": "payable",
      "type": "function"
    },
    {
      "inputs": [
        {
          "internalType": "uint256",
          "name": "_transactionID",
          "type": "uint256"
        },
        {
          "internalType": "uint256",
          "name": "_amount",
          "type": "uint256"
        }
      ],
      "name": "proposeSettlement",
      "outputs": [],
      "stateMutability": "nonpayable",
      "type": "function"
    },
    {
      "inputs": [
        {
          "internalType": "uint256",
          "name": "_transactionID",
          "type": "uint256"
        },
        {
          "internalType": "uint256",
          "name": "_amountReimbursed",
          "type": "uint256"
        }
      ],
      "name": "reimburse",
      "outputs": [],
      "stateMutability": "nonpayable",
      "type": "function"
    },
    {
      "inputs": [
        {
          "internalType": "uint256",
          "name": "_disputeID",
          "type": "uint256"
        },
        {
          "internalType": "uint256",
          "name": "_ruling",
          "type": "uint256"
        }
      ],
      "name": "rule",
      "outputs": [],
      "stateMutability": "nonpayable",
      "type": "function"
    },
    {
      "inputs": [],
      "name": "settlementTimeout",
      "outputs": [
        {
          "internalType": "uint256",
          "name": "",
          "type": "uint256"
        }
      ],
      "stateMutability": "view",
      "type": "function"
    },
    {
      "inputs": [],
      "name": "templateId",
      "outputs": [
        {
          "internalType": "uint256",
          "name": "",
          "type": "uint256"
        }
      ],
      "stateMutability": "view",
      "type": "function"
    },
    {
      "inputs": [],
      "name": "templateRegistry",
      "outputs": [
        {
          "internalType": "contract IDisputeTemplateRegistry",
          "name": "",
          "type": "address"
        }
      ],
      "stateMutability": "view",
      "type": "function"
    },
    {
      "inputs": [
        {
          "internalType": "uint256",
          "name": "_transactionID",
          "type": "uint256"
        }
      ],
      "name": "timeOutByBuyer",
      "outputs": [],
      "stateMutability": "nonpayable",
      "type": "function"
    },
    {
      "inputs": [
        {
          "internalType": "uint256",
          "name": "_transactionID",
          "type": "uint256"
        }
      ],
      "name": "timeOutBySeller",
      "outputs": [],
      "stateMutability": "nonpayable",
      "type": "function"
    },
    {
      "inputs": [
        {
          "internalType": "uint256",
          "name": "",
          "type": "uint256"
        }
      ],
      "name": "transactions",
      "outputs": [
        {
          "internalType": "address payable",
          "name": "buyer",
          "type": "address"
        },
        {
          "internalType": "address payable",
          "name": "seller",
          "type": "address"
        },
        {
          "internalType": "uint256",
          "name": "amount",
          "type": "uint256"
        },
        {
          "internalType": "uint256",
          "name": "settlementBuyer",
          "type": "uint256"
        },
        {
          "internalType": "uint256",
          "name": "settlementSeller",
          "type": "uint256"
        },
        {
          "internalType": "uint256",
          "name": "deadline",
          "type": "uint256"
        },
        {
          "internalType": "uint256",
          "name": "disputeID",
          "type": "uint256"
        },
        {
          "internalType": "uint256",
          "name": "buyerFee",
          "type": "uint256"
        },
        {
          "internalType": "uint256",
          "name": "sellerFee",
          "type": "uint256"
        },
        {
          "internalType": "uint256",
          "name": "lastFeePaymentTime",
          "type": "uint256"
        },
        {
          "internalType": "string",
          "name": "templateData",
          "type": "string"
        },
        {
          "internalType": "string",
          "name": "templateDataMappings",
          "type": "string"
        },
        {
          "internalType": "enum EscrowToken.Status",
          "name": "status",
          "type": "uint8"
        },
        {
          "internalType": "contract IERC20",
          "name": "token",
          "type": "address"
        }
      ],
      "stateMutability": "view",
      "type": "function"
    }
  ],
  "transactionHash": "0xeacfb4dde1b27bd5d4389dbcbbc76c01990f1768bd8d270252d8653af9905515",
  "args": [
    "0xA54e7A16d7460e38a8F324eF46782FB520d58CE8",
    "0x00000000000000000000000000000000000000000000000000000000000000010000000000000000000000000000000000000000000000000000000000000003",
    "{\n  \"title\": \"{{escrowTitle}}\",\n  \"description\": \"{{deliverableText}}\",\n  \"question\": \"Which party abided by the terms of the contract?\",\n  \"answers\": [\n      {\n          \"title\": \"Refund the Buyer\",\n          \"description\": \"Select this to return the funds to the Buyer.\"\n      },\n      {\n          \"title\": \"Pay the Seller\",\n          \"description\": \"Select this to release the funds to the Seller.\"\n      }\n  ],\n  \"policyURI\": \"ipfs://TODO\",\n  \"attachment\": {\n      \"label\": \"Transaction Terms\",\n      \"uri\": \"{{extraDescriptionUri}}\"\n  },\n  \"frontendUrl\": \"https://escrow-v2.kleros.builders/#/myTransactions/%s\",\n  \"arbitrableChainID\": \"421614\",\n  \"arbitrableAddress\": \"0x250AB0477346aDFC010585b58FbF61cff1d8f3ea\",\n  \"arbitratorChainID\": \"421614\",\n  \"arbitratorAddress\": \"0xA54e7A16d7460e38a8F324eF46782FB520d58CE8\",\n  \"metadata\": {\n      \"buyer\": \"{{address}}\",\n      \"seller\": \"{{sendingRecipientAddress}}\",\n      \"amount\": \"{{sendingQuantity}}\",\n      \"asset\": \"{{escrowType}}\",\n      \"timeoutPayment\": \"{{timeoutPayment}}\",\n      \"transactionUri\": \"{{transactionUri}}\"\n  },\n  \"category\": \"Escrow\",\n  \"specification\": \"KIPXXX\",\n  \"aliases\": {\n      \"Buyer\": \"{{address}}\",\n      \"Seller\": \"{{sendingRecipientAddress}}\"\n  },\n  \"version\": \"1.0\"\n}\n",
    "{}",
    "0x596D3B09E684D62217682216e9b7a0De75933391",
    600,
    600
  ],
  "numDeployments": 1,
  "solcInputHash": "f8baf369e40ea3c094e9ec1e6d9247ea",
  "bytecode": "0x60806040523480156200001157600080fd5b5060405162002f0938038062002f09833981016040819052620000349162000233565b60008054336001600160a01b031991821617909155600180549091166001600160a01b03891617905560026200006b878262000393565b50600380546001600160a01b0319166001600160a01b038516908117909155600583905560068290556040516312a6505d60e21b8152634a99417490620000b990889088906004016200048d565b6020604051808303816000875af1158015620000d9573d6000803e3d6000fd5b505050506040513d601f19601f82011682018060405250810190620000ff9190620004cd565b6004556040517ff0d0a0b363c32316c3e6e7e797bbc126af09c634db439ed65a3f96afe7ae2367906200013890849084908a90620004e7565b60405180910390a15050505050505062000508565b6001600160a01b03811681146200016357600080fd5b50565b634e487b7160e01b600052604160045260246000fd5b60005b83811015620001995781810151838201526020016200017f565b50506000910152565b600082601f830112620001b457600080fd5b81516001600160401b0380821115620001d157620001d162000166565b604051601f8301601f19908116603f01168101908282118183101715620001fc57620001fc62000166565b816040528381528660208588010111156200021657600080fd5b620002298460208301602089016200017c565b9695505050505050565b600080600080600080600060e0888a0312156200024f57600080fd5b87516200025c816200014d565b60208901519097506001600160401b03808211156200027a57600080fd5b620002888b838c01620001a2565b975060408a01519150808211156200029f57600080fd5b620002ad8b838c01620001a2565b965060608a0151915080821115620002c457600080fd5b50620002d38a828b01620001a2565b9450506080880151620002e6816200014d565b8093505060a0880151915060c0880151905092959891949750929550565b600181811c908216806200031957607f821691505b6020821081036200033a57634e487b7160e01b600052602260045260246000fd5b50919050565b601f8211156200038e57600081815260208120601f850160051c81016020861015620003695750805b601f850160051c820191505b818110156200038a5782815560010162000375565b5050505b505050565b81516001600160401b03811115620003af57620003af62000166565b620003c781620003c0845462000304565b8462000340565b602080601f831160018114620003ff5760008415620003e65750858301515b600019600386901b1c1916600185901b1785556200038a565b600085815260208120601f198616915b8281101562000430578886015182559484019460019091019084016200040f565b50858210156200044f5787850151600019600388901b60f8161c191681555b5050505050600190811b01905550565b60008151808452620004798160208601602086016200017c565b601f01601f19169290920160200192915050565b6060815260006060820152608060208201526000620004b060808301856200045f565b8281036040840152620004c481856200045f565b95945050505050565b600060208284031215620004e057600080fd5b5051919050565b838152826020820152606060408201526000620004c460608301846200045f565b6129f180620005186000396000f3fe6080604052600436106101825760003560e01c806393ee2678116100d7578063cb44c3fa11610085578063cb44c3fa1461042f578063e4c0aaf41461044f578063e77d0bd31461046f578063e98c579b1461048f578063ee22610b146104af578063ef48eee6146104cf578063fc548f08146104ef578063fe43a9921461050f57600080fd5b806393ee26781461034a5780639ace38c21461036a578063a0af81f0146103a4578063a527aa6a146103c4578063b2b96792146103d9578063b329036b146103f9578063c5d552881461040f57600080fd5b806334e2672d1161013457806334e2672d1461028b5780633bf54724146102ab578063441080fe146102be5780634660ebbe146102d45780636cc6cde1146102f45780636d010eb0146103145780637aa77f291461033457600080fd5b80630c340a24146101875780630c7ac7b6146101c45780631bd1823a146101e65780632be6d005146102085780632e0b64221461021b5780632fbe3b031461023e578063311a6c561461026b575b600080fd5b34801561019357600080fd5b506000546101a7906001600160a01b031681565b6040516001600160a01b0390911681526020015b60405180910390f35b3480156101d057600080fd5b506101d961052f565b6040516101bb919061212b565b3480156101f257600080fd5b50610206610201366004612145565b6105bd565b005b610206610216366004612145565b6106b4565b34801561022757600080fd5b50610230600281565b6040519081526020016101bb565b34801561024a57600080fd5b50610230610259366004612145565b60086020526000908152604090205481565b34801561027757600080fd5b5061020661028636600461215e565b610902565b34801561029757600080fd5b506102066102a6366004612180565b610a12565b6102066102b9366004612145565b610a7e565b3480156102ca57600080fd5b5061023060065481565b3480156102e057600080fd5b506102066102ef36600461220a565b610cb3565b34801561030057600080fd5b506001546101a7906001600160a01b031681565b34801561032057600080fd5b5061023061032f3660046122ca565b610d00565b34801561034057600080fd5b5061023060045481565b34801561035657600080fd5b50610206610365366004612145565b610eba565b34801561037657600080fd5b5061038a610385366004612145565b611081565b6040516101bb9e9d9c9b9a999897969594939291906123b7565b3480156103b057600080fd5b506003546101a7906001600160a01b031681565b3480156103d057600080fd5b50600754610230565b3480156103e557600080fd5b506102066103f436600461215e565b61122c565b34801561040557600080fd5b5061023060055481565b34801561041b57600080fd5b5061020661042a36600461245d565b61149b565b34801561043b57600080fd5b5061020661044a366004612145565b611542565b34801561045b57600080fd5b5061020661046a36600461220a565b6115a2565b34801561047b57600080fd5b5061020661048a366004612145565b6115ef565b34801561049b57600080fd5b506102066104aa366004612145565b6116cf565b3480156104bb57600080fd5b506102066104ca366004612145565b611723565b3480156104db57600080fd5b506102066104ea36600461215e565b61180a565b3480156104fb57600080fd5b5061020661050a36600461220a565b611955565b34801561051b57600080fd5b5061020661052a36600461215e565b6119a2565b6002805461053c906124c1565b80601f0160208091040260200160405190810160405280929190818152602001828054610568906124c1565b80156105b55780601f1061058a576101008083540402835291602001916105b5565b820191906000526020600020905b81548152906001019060200180831161059857829003601f168201915b505050505081565b6000600782815481106105d2576105d26124fb565b60009182526020909120600d9091020190506003600c82015460ff1660068111156105ff576105ff61238d565b1461061d57604051635ed7670b60e11b815260040160405180910390fd5b600554600982015461062f9042612527565b101561064e57604051634799187b60e01b815260040160405180910390fd5b6007810180546000909155610664836002611a92565b80156106935781546040516001600160a01b039091169082156108fc029083906000818181858888f150505050505b60025b604051849060008051602061297c83398151915290600090a3505050565b6000600782815481106106c9576106c96124fb565b60009182526020909120600d9091020190506001600c82015460ff1660068111156106f6576106f661238d565b1415801561071d57506002600c82015460ff16600681111561071a5761071a61238d565b14155b801561074257506003600c82015460ff16600681111561073f5761073f61238d565b14155b156107605760405163376af24960e21b815260040160405180910390fd5b6002600c82015460ff16600681111561077b5761077b61238d565b148015610797575060065460098201546107959042612527565b105b156107b557604051630627cd6b60e01b815260040160405180910390fd5b80546001600160a01b031633146107df5760405163e2bc376b60e01b815260040160405180910390fd5b348160070160008282546107f39190612540565b909155505060015460405163f7434ea960e01b81526000916001600160a01b03169063f7434ea99061082a906002906004016125d0565b602060405180830381865afa158015610847573d6000803e3d6000fd5b505050506040513d601f19601f8201168201806040525081019061086b91906125e3565b9050808260070154101561089257604051631a48f3db60e11b815260040160405180910390fd5b42600983015560088201548111156108f357600c8201805460ff1916600417905560405183907fc74b9f7dedf2887cd3c113b6d8da9cea19e55c1116e25f1f0e1b72d7543179b5906108e69060029061260c565b60405180910390a2505050565b6108fd8382611d65565b505050565b6001546001600160a01b0316331461092d57604051630955f84760e31b815260040160405180910390fd5b600281111561094f576040516309efd47960e41b815260040160405180910390fd5b6000828152600860205260408120546007805491929183908110610975576109756124fb565b60009182526020909120600d9091020190506005600c82015460ff1660068111156109a2576109a261238d565b146109c05760405163f10068b560e01b815260040160405180910390fd5b60015460405184815285916001600160a01b0316907f394027a5fa6e098a1191094d1719d6929b9abc535fcc0c8f448d6a4e756222769060200160405180910390a3610a0c8284611a92565b50505050565b6000546001600160a01b03163314610a3d5760405163c383977560e01b815260040160405180910390fd5b6002610a4a82848361267d565b5060008051602061299c8339815191526005546006548484604051610a729493929190612738565b60405180910390a15050565b600060078281548110610a9357610a936124fb565b60009182526020909120600d9091020190506001600c82015460ff166006811115610ac057610ac061238d565b14158015610ae757506002600c82015460ff166006811115610ae457610ae461238d565b14155b8015610b0c57506004600c82015460ff166006811115610b0957610b0961238d565b14155b15610b2a5760405163365105ef60e11b815260040160405180910390fd5b6001600c82015460ff166006811115610b4557610b4561238d565b148015610b6157506006546009820154610b5f9042612527565b105b15610b7f57604051630627cd6b60e01b815260040160405180910390fd5b60018101546001600160a01b03163314610bac57604051635800797f60e11b815260040160405180910390fd5b34816008016000828254610bc09190612540565b909155505060015460405163f7434ea960e01b81526000916001600160a01b03169063f7434ea990610bf7906002906004016125d0565b602060405180830381865afa158015610c14573d6000803e3d6000fd5b505050506040513d601f19601f82011682018060405250810190610c3891906125e3565b90508082600801541015610c5f5760405163818d938f60e01b815260040160405180910390fd5b42600983015560078201548111156108f357600c8201805460ff1916600317905560405183907fc74b9f7dedf2887cd3c113b6d8da9cea19e55c1116e25f1f0e1b72d7543179b5906108e69060019061260c565b6000546001600160a01b03163314610cde5760405163c383977560e01b815260040160405180910390fd5b600380546001600160a01b0319166001600160a01b0392909216919091179055565b6000610d176001600160a01b03881633308b611f2c565b610d345760405163022e258160e11b815260040160405180910390fd5b60078054600181018255600091909152600d027fa66cc928b5edb82af9bd49922954155ab7b0942694bea4ce44661d9a8736c688810180546001600160a01b0319908116331782557fa66cc928b5edb82af9bd49922954155ab7b0942694bea4ce44661d9a8736c689830180546001600160a01b03898116919093161790557fa66cc928b5edb82af9bd49922954155ab7b0942694bea4ce44661d9a8736c68a83018b90557fa66cc928b5edb82af9bd49922954155ab7b0942694bea4ce44661d9a8736c6949092018054928a1661010002610100600160a81b031990931692909217909155610e248742612540565b6005820155600a8101610e378582612775565b50600b8101610e468482612775565b50600754610e5690600190612527565b9150846001600160a01b0316336001600160a01b0316837f759b1d07b8ff5f2430348f56cfca7a2cf1e5c1b03f32dd78929cb4d707e9eef5898c8e8760050154604051610ea6949392919061282f565b60405180910390a450979650505050505050565b600060078281548110610ecf57610ecf6124fb565b600091825260208220600d9091020191506001600c83015460ff166006811115610efb57610efb61238d565b03610f355781546001600160a01b03163314610f2a5760405163e2bc376b60e01b815260040160405180910390fd5b506004810154610fa6565b6002600c83015460ff166006811115610f5057610f5061238d565b03610f8d5760018201546001600160a01b03163314610f8257604051635800797f60e11b815260040160405180910390fd5b506003810154610fa6565b604051630a7b6ec160e01b815260040160405180910390fd5b6000818360020154610fb89190612527565b600060028501819055600385018190556004850155600c8401805460ff1916600617908190558454919250611000916101009091046001600160a01b03908116911683612008565b61101d5760405163022e258160e11b815260040160405180910390fd5b6001830154600c840154611043916001600160a01b036101009092048216911684612008565b6110605760405163022e258160e11b815260040160405180910390fd5b6004604051859060008051602061297c83398151915290600090a350505050565b6007818154811061109157600080fd5b60009182526020909120600d9091020180546001820154600283015460038401546004850154600586015460068701546007880154600889015460098a0154600a8b0180546001600160a01b039b8c169d5099909a169a97999698959794969395929491939092611101906124c1565b80601f016020809104026020016040519081016040528092919081815260200182805461112d906124c1565b801561117a5780601f1061114f5761010080835404028352916020019161117a565b820191906000526020600020905b81548152906001019060200180831161115d57829003601f168201915b50505050509080600b01805461118f906124c1565b80601f01602080910402602001604051908101604052809291908181526020018280546111bb906124c1565b80156112085780601f106111dd57610100808354040283529160200191611208565b820191906000526020600020905b8154815290600101906020018083116111eb57829003601f168201915b505050600c909301549192505060ff8116906001600160a01b03610100909104168e565b600060078381548110611241576112416124fb565b600091825260208220600d909102019150600c82015460ff16600681111561126b5761126b61238d565b14801561127c575080600501544210155b1561129a576040516338e5e54b60e21b815260040160405180910390fd5b6003600c82015460ff1660068111156112b5576112b561238d565b106112d357604051630d71592960e31b815260040160405180910390fd5b80600201548211156112f8576040516305aafecf60e01b815260040160405180910390fd5b42600982015560006001600c83015460ff16600681111561131b5761131b61238d565b036113715781546001600160a01b0316331461134a5760405163e2bc376b60e01b815260040160405180910390fd5b60038201839055600c820180546002919060ff19166001835b02179055506001905061145b565b6002600c83015460ff16600681111561138c5761138c61238d565b036113e45760018201546001600160a01b031633146113be57604051635800797f60e11b815260040160405180910390fd5b60048201839055600c820180546001919060ff191682805b02179055506002905061145b565b81546001600160a01b031633036114125760038201839055600c820180546002919060ff1916600183611363565b60018201546001600160a01b031633036114425760048201839055600c820180546001919060ff191682806113d6565b60405163351c18ff60e21b815260040160405180910390fd5b837f10c8b22b69e324b0227c6adfa65183c771304c11385423e93ce99779a7483dbf828560405161148d929190612884565b60405180910390a250505050565b6000546001600160a01b031633146114c65760405163c383977560e01b815260040160405180910390fd5b6003546040516312a6505d60e21b81526001600160a01b0390911690634a994174906114f8908590859060040161289f565b6020604051808303816000875af1158015611517573d6000803e3d6000fd5b505050506040513d601f19601f8201168201806040525081019061153b91906125e3565b6004555050565b6000546001600160a01b0316331461156d5760405163c383977560e01b815260040160405180910390fd5b600581905560065460405160008051602061299c83398151915291611597918491906002906128db565b60405180910390a150565b6000546001600160a01b031633146115cd5760405163c383977560e01b815260040160405180910390fd5b600080546001600160a01b0319166001600160a01b0392909216919091179055565b600060078281548110611604576116046124fb565b60009182526020909120600d9091020190506004600c82015460ff1660068111156116315761163161238d565b1461164f57604051638225aba560e01b815260040160405180910390fd5b60055460098201546116619042612527565b101561168057604051634799187b60e01b815260040160405180910390fd5b6008810180546000909155611696836001611a92565b80156116c85760018201546040516001600160a01b039091169082156108fc029083906000818181858888f150505050505b6001610696565b6000546001600160a01b031633146116fa5760405163c383977560e01b815260040160405180910390fd5b600681905560055460405160008051602061299c833981519152916115979184906002906128db565b600060078281548110611738576117386124fb565b90600052602060002090600d02019050806005015442101561176d576040516302eb354360e41b815260040160405180910390fd5b6000600c82015460ff1660068111156117885761178861238d565b146117a657604051634e22597f60e11b815260040160405180910390fd5b60028101805460009091556001820154600c8301546117d7916001600160a01b036101009092048216911683612008565b6117f45760405163022e258160e11b815260040160405180910390fd5b600c8201805460ff191660061790556000610696565b60006007838154811061181f5761181f6124fb565b60009182526020909120600d9091020180549091506001600160a01b0316331461185c5760405163e2bc376b60e01b815260040160405180910390fd5b6000600c82015460ff1660068111156118775761187761238d565b1461189557604051634e22597f60e11b815260040160405180910390fd5b80600201548211156118ba576040516305aafecf60e01b815260040160405180910390fd5b818160020160008282546118ce9190612527565b90915550506001810154600c8201546118f9916001600160a01b036101009092048216911684612008565b6119165760405163022e258160e11b815260040160405180910390fd5b6040805183815233602082015284917fd1432ca9a38d944f01b256a411861b109bc4bfe200c40d7144e919a16b86a8a8910160405180910390a2505050565b6000546001600160a01b031633146119805760405163c383977560e01b815260040160405180910390fd5b600180546001600160a01b0319166001600160a01b0392909216919091179055565b6000600783815481106119b7576119b76124fb565b600091825260209091206001600d90920201908101549091506001600160a01b031633146119f857604051635800797f60e11b815260040160405180910390fd5b6000600c82015460ff166006811115611a1357611a1361238d565b14611a3157604051634e22597f60e11b815260040160405180910390fd5b8060020154821115611a56576040516305aafecf60e01b815260040160405180910390fd5b81816002016000828254611a6a9190612527565b90915550508054600c8201546118f9916001600160a01b036101009092048216911684612008565b600060078381548110611aa757611aa76124fb565b600091825260208220600d9190910201600281018054600383018054600485018054600787018054600889018054988b9055958a90559289905588905596909255600c8501805460ff191660061790559395509093916000198701611bdc5785546040516001600160a01b039091169083156108fc029084906000818181858888f193505050505083600014611b97578554611b6a906001600160a01b0316611b508688612527565b600c89015461010090046001600160a01b03169190612008565b506001860154600c870154611b91916001600160a01b036101009092048216911686612008565b50611d40565b8554600c870154611bba916001600160a01b036101009092048216911687612008565b611bd75760405163022e258160e11b815260040160405180910390fd5b611d40565b60028703611c7e5760018601546040516001600160a01b039091169082156108fc029083906000818181858888f193505050505082600014611c58578554611c31906001600160a01b0316611b508588612527565b506001860154600c870154611b91916001600160a01b036101009092048216911685612008565b6001860154600c870154611bba916001600160a01b036101009092048216911687612008565b6000611c8b6002846128fa565b87546040519192506001600160a01b03169082156108fc029083906000818181858888f150505060018901546040516001600160a01b03909116925083156108fc02915083906000818181858888f19350505050506000600287611cef91906128fa565b8854600c8a0154919250611d159161010090046001600160a01b03908116911683612008565b506001880154600c890154611d3c916001600160a01b036101009092048216911683612008565b5050505b6003604051899060008051602061297c83398151915290600090a35050505050505050565b600060078381548110611d7a57611d7a6124fb565b60009182526020909120600c600d90920201908101805460ff1916600517905560015460405163c13517e160e01b81529192506001600160a01b03169063c13517e1908490611dd090600290819060040161291c565b60206040518083038185885af1158015611dee573d6000803e3d6000fd5b50505050506040513d601f19601f82011682018060405250810190611e1391906125e3565b60068201818155600091825260086020908152604080842087905591546001546004548451898152938401526060838501819052830194909452915191926001600160a01b0316917f8bd32f430ff060e6bd204709b3790c9807987263d3230c580dc80b5f89e271869181900360800190a38181600701541115611ed5576000828260070154611ea39190612527565b6007830184905582546040519192506001600160a01b03169082156108fc029083906000818181858888f15050505050505b81816008015411156108fd576000828260080154611ef39190612527565b6008830184905560018301546040519192506001600160a01b03169082156108fc029083906000818181858888f1505050505050505050565b6040516001600160a01b038481166024830152838116604483015260648201839052600091829182919088169060840160408051601f198184030181529181526020820180516001600160e01b03166323b872dd60e01b17905251611f91919061293d565b6000604051808303816000865af19150503d8060008114611fce576040519150601f19603f3d011682016040523d82523d6000602084013e611fd3565b606091505b5091509150818015611ffd575080511580611ffd575080806020019051810190611ffd9190612959565b979650505050505050565b6040516001600160a01b03838116602483015260448201839052600091829182919087169060640160408051601f198184030181529181526020820180516001600160e01b031663a9059cbb60e01b17905251612065919061293d565b6000604051808303816000865af19150503d80600081146120a2576040519150601f19603f3d011682016040523d82523d6000602084013e6120a7565b606091505b50915091508180156120d15750805115806120d15750808060200190518101906120d19190612959565b9695505050505050565b60005b838110156120f65781810151838201526020016120de565b50506000910152565b600081518084526121178160208601602086016120db565b601f01601f19169290920160200192915050565b60208152600061213e60208301846120ff565b9392505050565b60006020828403121561215757600080fd5b5035919050565b6000806040838503121561217157600080fd5b50508035926020909101359150565b6000806020838503121561219357600080fd5b823567ffffffffffffffff808211156121ab57600080fd5b818501915085601f8301126121bf57600080fd5b8135818111156121ce57600080fd5b8660208285010111156121e057600080fd5b60209290920196919550909350505050565b6001600160a01b038116811461220757600080fd5b50565b60006020828403121561221c57600080fd5b813561213e816121f2565b634e487b7160e01b600052604160045260246000fd5b600082601f83011261224e57600080fd5b813567ffffffffffffffff8082111561226957612269612227565b604051601f8301601f19908116603f0116810190828211818310171561229157612291612227565b816040528381528660208588010111156122aa57600080fd5b836020870160208301376000602085830101528094505050505092915050565b600080600080600080600060e0888a0312156122e557600080fd5b8735965060208801356122f7816121f2565b955060408801359450606088013567ffffffffffffffff8082111561231b57600080fd5b6123278b838c0161223d565b955060808a01359150612339826121f2565b90935060a0890135908082111561234f57600080fd5b61235b8b838c0161223d565b935060c08a013591508082111561237157600080fd5b5061237e8a828b0161223d565b91505092959891949750929550565b634e487b7160e01b600052602160045260246000fd5b600781106123b3576123b361238d565b9052565b6001600160a01b038f811682528e1660208201528c60408201528b60608201528a60808201528960a08201528860c08201528760e082015286610100820152856101208201526101c061014082015260006124166101c08301876120ff565b82810361016084015261242981876120ff565b91505061243a6101808301856123a3565b6001600160a01b0383166101a08301529f9e505050505050505050505050505050565b6000806040838503121561247057600080fd5b823567ffffffffffffffff8082111561248857600080fd5b6124948683870161223d565b935060208501359150808211156124aa57600080fd5b506124b78582860161223d565b9150509250929050565b600181811c908216806124d557607f821691505b6020821081036124f557634e487b7160e01b600052602260045260246000fd5b50919050565b634e487b7160e01b600052603260045260246000fd5b634e487b7160e01b600052601160045260246000fd5b8181038181111561253a5761253a612511565b92915050565b8082018082111561253a5761253a612511565b60008154612560816124c1565b80855260206001838116801561257d5760018114612597576125c5565b60ff1985168884015283151560051b8801830195506125c5565b866000528260002060005b858110156125bd5781548a82018601529083019084016125a2565b890184019650505b505050505092915050565b60208152600061213e6020830184612553565b6000602082840312156125f557600080fd5b5051919050565b600381106123b3576123b361238d565b6020810161253a82846125fc565b601f8211156108fd57600081815260208120601f850160051c810160208610156126415750805b601f850160051c820191505b818110156126605782815560010161264d565b505050505050565b600019600383901b1c191660019190911b1790565b67ffffffffffffffff83111561269557612695612227565b6126a9836126a383546124c1565b8361261a565b6000601f8411600181146126d757600085156126c55750838201355b6126cf8682612668565b845550612731565b600083815260209020601f19861690835b8281101561270857868501358255602094850194600190920191016126e8565b50868210156127255760001960f88860031b161c19848701351681555b505060018560011b0183555b5050505050565b84815283602082015260606040820152816060820152818360808301376000818301608090810191909152601f909201601f191601019392505050565b815167ffffffffffffffff81111561278f5761278f612227565b6127a38161279d84546124c1565b8461261a565b602080601f8311600181146127d257600084156127c05750858301515b6127ca8582612668565b865550612660565b600085815260208120601f198616915b82811015612801578886015182559484019460019091019084016127e2565b508582101561281f5787850151600019600388901b60f8161c191681555b5050505050600190811b01905550565b60a08152600061284260a08301876120ff565b6001600160a01b039590951660208381019190915260408084019590955282860360608401526005865264045524332360dc1b90860152506080015201919050565b6040810161289282856125fc565b8260208301529392505050565b60608152600060608201526080602082015260006128c060808301856120ff565b82810360408401526128d281856120ff565b95945050505050565b8381528260208201526060604082015260006128d26060830184612553565b60008261291757634e487b7160e01b600052601260045260246000fd5b500490565b8281526040602082015260006129356040830184612553565b949350505050565b6000825161294f8184602087016120db565b9190910192915050565b60006020828403121561296b57600080fd5b8151801515811461213e57600080fdfe89e6168584e1de3ec704ff46376271b5481b0d9b2b0ef0ae102f0d001093e000f0d0a0b363c32316c3e6e7e797bbc126af09c634db439ed65a3f96afe7ae2367a2646970667358221220796c1d50b5234daac06ebfcd18191606fd5cba81527347d9c22ece86af81f23964736f6c63430008120033",
  "devdoc": {
    "details": "MultipleArbitrableTokenTransaction contract that is compatible with V2.     Adapted from https://github.com/kleros/kleros-interaction/blob/master/contracts/standard/arbitration/MultipleArbitrableTokenTransaction.sol Note that the contract expects the tokens to have standard ERC20 behaviour. The tokens that don't conform to this type of behaviour should be filtered by the UI. Tokens should not reenter or allow recipients to refuse the transfer. Also note that arbitration fees are still paid in ETH.",
    "events": {
      "DisputeRequest(address,uint256,uint256,uint256,string)": {
        "details": "To be emitted when a dispute is created to link the correct meta-evidence to the disputeID.",
        "params": {
          "_arbitrableDisputeID": "The identifier of the dispute in the Arbitrable contract.",
          "_arbitrator": "The arbitrator of the contract.",
          "_externalDisputeID": "An identifier created outside Kleros by the protocol requesting arbitration.",
          "_templateId": "The identifier of the dispute template. Should not be used with _templateUri.",
          "_templateUri": "The URI to the dispute template. For example on IPFS: starting with '/ipfs/'. Should not be used with _templateId."
        }
      },
      "HasToPayFee(uint256,uint8)": {
        "details": "Indicate that a party has to pay a fee or would otherwise be considered as losing.",
        "params": {
          "_party": "The party who has to pay.",
          "_transactionID": "The index of the transaction."
        }
      },
      "ParameterUpdated(uint256,uint256,bytes)": {
        "details": "To be emitted when Escrow parameters are updated."
      },
      "Payment(uint256,uint256,address)": {
        "details": "To be emitted when a party pays or reimburses the other.",
        "params": {
          "_amount": "The amount paid.",
          "_party": "The party that paid.",
          "_transactionID": "The index of the transaction."
        }
      },
      "Ruling(address,uint256,uint256)": {
        "details": "To be raised when a ruling is given.",
        "params": {
          "_arbitrator": "The arbitrator giving the ruling.",
          "_disputeID": "The identifier of the dispute in the Arbitrator contract.",
          "_ruling": "The ruling which was given."
        }
      },
      "SettlementProposed(uint256,uint8,uint256)": {
        "details": "Emitted when a party proposes a settlement.",
        "params": {
          "_amount": "The amount proposed.",
          "_party": "The party that proposed a settlement.",
          "_transactionID": "The index of the transaction."
        }
      },
      "TransactionCreated(uint256,string,address,address,address,uint256,string,uint256)": {
        "details": "Emitted when a transaction is created.",
        "params": {
          "_amount": "The initial amount in the transaction.",
          "_asset": "The asset used (\"ERC20\" for ERC20 token).",
          "_buyer": "The address of the buyer.",
          "_deadline": "The deadline of the transaction.",
          "_seller": "The address of the seller.",
          "_token": "The token address.",
          "_transactionID": "The index of the transaction.",
          "_transactionUri": "The IPFS Uri Hash of the transaction."
        }
      },
      "TransactionResolved(uint256,uint8)": {
        "details": "To be emitted when a transaction is resolved, either by its      execution, a timeout or because a ruling was enforced.",
        "params": {
          "_resolution": "Short description of what caused the transaction to be solved.",
          "_transactionID": "The ID of the respective transaction."
        }
      }
    },
    "kind": "dev",
    "methods": {
      "acceptSettlement(uint256)": {
        "details": "Accept a settlement proposed by the other party. UNTRUSTED.",
        "params": {
          "_transactionID": "The index of the transaction."
        }
      },
      "constructor": {
        "details": "Constructor.",
        "params": {
          "_arbitrator": "The arbitrator of the contract.",
          "_arbitratorExtraData": "Extra data for the arbitrator.",
          "_feeTimeout": "Arbitration fee timeout for the parties.",
          "_settlementTimeout": "Settlement timeout for the parties.",
          "_templateData": "The dispute template data.",
          "_templateDataMappings": "The dispute template data mappings.",
          "_templateRegistry": "The dispute template registry."
        }
      },
      "createTransaction(uint256,address,uint256,string,address,string,string)": {
        "details": "Create a transaction. UNTRUSTED.",
        "params": {
          "_amount": "The amount of tokens in this transaction.",
          "_seller": "The recipient of the transaction.",
          "_templateData": "The dispute template data.",
          "_templateDataMappings": "The dispute template data mappings.",
          "_timeoutPayment": "Time after which a party can automatically execute the arbitrable transaction.",
          "_token": "The ERC20 token contract.",
          "_transactionUri": "The IPFS Uri Hash of the transaction."
        },
        "returns": {
          "transactionID": "The index of the transaction."
        }
      },
      "executeTransaction(uint256)": {
        "details": "Transfer the transaction's amount to the seller if the timeout has passed. UNTRUSTED.",
        "params": {
          "_transactionID": "The index of the transaction."
        }
      },
      "getCountTransactions()": {
        "details": "Getter to know the count of transactions.",
        "returns": {
          "_0": "The count of transactions."
        }
      },
      "pay(uint256,uint256)": {
        "details": "Pay seller. To be called if the good or service is provided. UNTRUSTED.",
        "params": {
          "_amount": "Amount to pay in wei.",
          "_transactionID": "The index of the transaction."
        }
      },
      "payArbitrationFeeByBuyer(uint256)": {
        "details": "Pay the arbitration fee to raise a dispute. To be called by the buyer. Note that it can only be called after settlement proposition. Also note that the arbitrator can have createDispute throw, which will make      this function throw and therefore lead to a party being timed-out.      This is not a vulnerability as the arbitrator can rule in favor of one party anyway.",
        "params": {
          "_transactionID": "The index of the transaction."
        }
      },
      "payArbitrationFeeBySeller(uint256)": {
        "details": "Pay the arbitration fee to raise a dispute. To be called by the seller. Note that this function mirrors payArbitrationFeeByBuyer.",
        "params": {
          "_transactionID": "The index of the transaction."
        }
      },
      "proposeSettlement(uint256,uint256)": {
        "details": "Propose a settlement as a compromise from the initial terms to the other party.  Note that a party can only propose a settlement again after the other party has  done so as well to prevent front running/griefing issues.",
        "params": {
          "_amount": "The settlement amount.",
          "_transactionID": "The index of the transaction."
        }
      },
      "reimburse(uint256,uint256)": {
        "details": "Reimburse buyer. To be called if the good or service can't be fully provided. UNTRUSTED.",
        "params": {
          "_amountReimbursed": "Amount to reimburse in wei.",
          "_transactionID": "The index of the transaction."
        }
      },
      "rule(uint256,uint256)": {
        "details": "Give a ruling for a dispute. Must be called by the arbitrator to enforce the final ruling.      The purpose of this function is to ensure that the address calling it has the right to rule on the contract.",
        "params": {
          "_disputeID": "ID of the dispute in the Arbitrator contract.",
          "_ruling": "Ruling given by the arbitrator. Note that 0 is reserved for \"Refuse to arbitrate\"."
        }
      },
      "timeOutByBuyer(uint256)": {
        "details": "Reimburse buyer if seller fails to pay the fee.",
        "params": {
          "_transactionID": "The index of the transaction."
        }
      },
      "timeOutBySeller(uint256)": {
        "details": "Pay seller if buyer fails to pay the fee.",
        "params": {
          "_transactionID": "The index of the transaction."
        }
      }
    },
    "title": "EscrowToken for a sale paid in ERC20 tokens without platform fees.",
    "version": 1
  },
  "userdoc": {
    "kind": "user",
    "methods": {},
    "version": 1
  },
  "storageLayout": {
    "storage": [
      {
        "astId": 2007,
        "contract": "src/EscrowToken.sol:EscrowToken",
        "label": "governor",
        "offset": 0,
        "slot": "0",
        "type": "t_address"
      },
      {
        "astId": 2010,
        "contract": "src/EscrowToken.sol:EscrowToken",
        "label": "arbitrator",
        "offset": 0,
        "slot": "1",
        "type": "t_contract(IArbitratorV2)134"
      },
      {
        "astId": 2012,
        "contract": "src/EscrowToken.sol:EscrowToken",
        "label": "arbitratorExtraData",
        "offset": 0,
        "slot": "2",
        "type": "t_bytes_storage"
      },
      {
        "astId": 2015,
        "contract": "src/EscrowToken.sol:EscrowToken",
        "label": "templateRegistry",
        "offset": 0,
        "slot": "3",
        "type": "t_contract(IDisputeTemplateRegistry)160"
      },
      {
        "astId": 2017,
        "contract": "src/EscrowToken.sol:EscrowToken",
        "label": "templateId",
        "offset": 0,
        "slot": "4",
        "type": "t_uint256"
      },
      {
        "astId": 2019,
        "contract": "src/EscrowToken.sol:EscrowToken",
        "label": "feeTimeout",
        "offset": 0,
        "slot": "5",
        "type": "t_uint256"
      },
      {
        "astId": 2021,
        "contract": "src/EscrowToken.sol:EscrowToken",
        "label": "settlementTimeout",
        "offset": 0,
        "slot": "6",
        "type": "t_uint256"
      },
      {
        "astId": 2025,
        "contract": "src/EscrowToken.sol:EscrowToken",
        "label": "transactions",
        "offset": 0,
        "slot": "7",
        "type": "t_array(t_struct(Transaction)2002_storage)dyn_storage"
      },
      {
        "astId": 2029,
        "contract": "src/EscrowToken.sol:EscrowToken",
        "label": "disputeIDtoTransactionID",
        "offset": 0,
        "slot": "8",
        "type": "t_mapping(t_uint256,t_uint256)"
      }
    ],
    "types": {
      "t_address": {
        "encoding": "inplace",
        "label": "address",
        "numberOfBytes": "20"
      },
      "t_address_payable": {
        "encoding": "inplace",
        "label": "address payable",
        "numberOfBytes": "20"
      },
      "t_array(t_struct(Transaction)2002_storage)dyn_storage": {
        "base": "t_struct(Transaction)2002_storage",
        "encoding": "dynamic_array",
        "label": "struct EscrowToken.Transaction[]",
        "numberOfBytes": "32"
      },
      "t_bytes_storage": {
        "encoding": "bytes",
        "label": "bytes",
        "numberOfBytes": "32"
      },
      "t_contract(IArbitratorV2)134": {
        "encoding": "inplace",
        "label": "contract IArbitratorV2",
        "numberOfBytes": "20"
      },
      "t_contract(IDisputeTemplateRegistry)160": {
        "encoding": "inplace",
        "label": "contract IDisputeTemplateRegistry",
        "numberOfBytes": "20"
      },
      "t_contract(IERC20)238": {
        "encoding": "inplace",
        "label": "contract IERC20",
        "numberOfBytes": "20"
      },
      "t_enum(Status)1965": {
        "encoding": "inplace",
        "label": "enum EscrowToken.Status",
        "numberOfBytes": "1"
      },
      "t_mapping(t_uint256,t_uint256)": {
        "encoding": "mapping",
        "key": "t_uint256",
        "label": "mapping(uint256 => uint256)",
        "numberOfBytes": "32",
        "value": "t_uint256"
      },
      "t_string_storage": {
        "encoding": "bytes",
        "label": "string",
        "numberOfBytes": "32"
      },
      "t_struct(Transaction)2002_storage": {
        "encoding": "inplace",
        "label": "struct EscrowToken.Transaction",
        "members": [
          {
            "astId": 1973,
            "contract": "src/EscrowToken.sol:EscrowToken",
            "label": "buyer",
            "offset": 0,
            "slot": "0",
            "type": "t_address_payable"
          },
          {
            "astId": 1975,
            "contract": "src/EscrowToken.sol:EscrowToken",
            "label": "seller",
            "offset": 0,
            "slot": "1",
            "type": "t_address_payable"
          },
          {
            "astId": 1977,
            "contract": "src/EscrowToken.sol:EscrowToken",
            "label": "amount",
            "offset": 0,
            "slot": "2",
            "type": "t_uint256"
          },
          {
            "astId": 1979,
            "contract": "src/EscrowToken.sol:EscrowToken",
            "label": "settlementBuyer",
            "offset": 0,
            "slot": "3",
            "type": "t_uint256"
          },
          {
            "astId": 1981,
            "contract": "src/EscrowToken.sol:EscrowToken",
            "label": "settlementSeller",
            "offset": 0,
            "slot": "4",
            "type": "t_uint256"
          },
          {
            "astId": 1983,
            "contract": "src/EscrowToken.sol:EscrowToken",
            "label": "deadline",
            "offset": 0,
            "slot": "5",
            "type": "t_uint256"
          },
          {
            "astId": 1985,
            "contract": "src/EscrowToken.sol:EscrowToken",
            "label": "disputeID",
            "offset": 0,
            "slot": "6",
            "type": "t_uint256"
          },
          {
            "astId": 1987,
            "contract": "src/EscrowToken.sol:EscrowToken",
            "label": "buyerFee",
            "offset": 0,
            "slot": "7",
            "type": "t_uint256"
          },
          {
            "astId": 1989,
            "contract": "src/EscrowToken.sol:EscrowToken",
            "label": "sellerFee",
            "offset": 0,
            "slot": "8",
            "type": "t_uint256"
          },
          {
            "astId": 1991,
            "contract": "src/EscrowToken.sol:EscrowToken",
            "label": "lastFeePaymentTime",
            "offset": 0,
            "slot": "9",
            "type": "t_uint256"
          },
          {
            "astId": 1993,
            "contract": "src/EscrowToken.sol:EscrowToken",
            "label": "templateData",
            "offset": 0,
            "slot": "10",
            "type": "t_string_storage"
          },
          {
            "astId": 1995,
            "contract": "src/EscrowToken.sol:EscrowToken",
            "label": "templateDataMappings",
            "offset": 0,
            "slot": "11",
            "type": "t_string_storage"
          },
          {
            "astId": 1998,
            "contract": "src/EscrowToken.sol:EscrowToken",
            "label": "status",
            "offset": 0,
            "slot": "12",
            "type": "t_enum(Status)1965"
          },
          {
            "astId": 2001,
            "contract": "src/EscrowToken.sol:EscrowToken",
            "label": "token",
            "offset": 1,
            "slot": "12",
            "type": "t_contract(IERC20)238"
          }
        ],
        "numberOfBytes": "416"
      },
      "t_uint256": {
        "encoding": "inplace",
        "label": "uint256",
        "numberOfBytes": "32"
      }
    }
  }
}