{
  "address": "0x7aea8849539a23b25E1681041308aA90175aF026",
  "abi": [
    {
      "inputs": [
        {
          "internalType": "address",
          "name": "_escrow",
          "type": "address"
        }
      ],
      "stateMutability": "nonpayable",
      "type": "constructor"
    },
    {
      "inputs": [],
      "name": "escrow",
      "outputs": [
        {
          "internalType": "contract EscrowUniversal",
          "name": "",
          "type": "address"
        }
      ],
      "stateMutability": "view",
      "type": "function"
    },
    {
      "inputs": [
        {
          "internalType": "uint256",
          "name": "_amountWei",
          "type": "uint256"
        }
      ],
      "name": "formatEth",
      "outputs": [
        {
          "internalType": "string",
          "name": "",
          "type": "string"
        }
      ],
      "stateMutability": "pure",
      "type": "function"
    },
    {
      "inputs": [
        {
          "internalType": "uint256",
          "name": "_amountWei",
          "type": "uint256"
        },
        {
          "internalType": "address",
          "name": "_token",
          "type": "address"
        }
      ],
      "name": "formatToken",
      "outputs": [
        {
          "internalType": "string",
          "name": "",
          "type": "string"
        }
      ],
      "stateMutability": "view",
      "type": "function"
    },
    {
      "inputs": [
        {
          "internalType": "uint256",
          "name": "_transactionID",
          "type": "uint256"
        }
      ],
      "name": "getPayoutMessages",
      "outputs": [
        {
          "internalType": "string",
          "name": "noWinner",
          "type": "string"
        },
        {
          "internalType": "string",
          "name": "buyerWins",
          "type": "string"
        },
        {
          "internalType": "string",
          "name": "sellerWins",
          "type": "string"
        }
      ],
      "stateMutability": "view",
      "type": "function"
    }
  ],
  "transactionHash": "0x507cb70a02c54daba377e0bae22f6e89937187e8a670d037335db5af3de83005",
  "args": [
    "0x11aB737EDB1c6b181919a95ccD07c8DAA3e8E687"
  ],
  "numDeployments": 1,
  "solcInputHash": "785f82242b1bbda24c61d6bd55c15d10",
  "bytecode": "0x60a03461007257601f6110ab38819003918201601f19168301916001600160401b038311848410176100775780849260209460405283398101031261007257516001600160a01b038116908190036100725760805260405161101d908161008e8239608051818181606101526101360152f35b600080fd5b634e487b7160e01b600052604160045260246000fdfe60806040818152600436101561001457600080fd5b600091823560e01c90816366fb66751461010457508063b71dc2ba146100e3578063d65e9334146100945763e2fdcc171461004e57600080fd5b34610090578160031936011261009057517f00000000000000000000000000000000000000000000000000000000000000006001600160a01b03168152602090f35b5080fd5b5034610090578060031936011261009057602435916001600160a01b03831683036100e057506100c96100dc92600435610c74565b9051918291602083526020830190610506565b0390f35b80fd5b5034610090576020366003190112610090576100dc906100c96004356108b7565b83833461009057602036600319011261009057634d671c6160e11b835260048035908401819052926001600160a01b037f0000000000000000000000000000000000000000000000000000000000000000811693909161018091908281602481895afa9586156104d957829683928495859261045b575b505086519163438fdfc360e11b918284528a60048501528560248501526080978885604481865afa9182156104515760249b9c8896899461042a575b5060018c519d8e88815283600482015201528a8d604481885afa95861561042057899d8a976103f0575b509060448c928e51978893849283526004830152600260248301525afa9384156103e657889a89956103ac575b50501690816102fe57505050509361029d61025489956102c5956102a29561027d61025e6102596102b79f6100dc9e9d61024a610254926108b7565b9560011c9061072a565b6108b7565b6105ba565b9c8a81146102e7576102786102728461065b565b916108b7565b61069e565b98610288848861072a565b146102d257610297915061065b565b9361072a565b61074d565b915b8351968796606088526060880190610506565b908682036020880152610506565b9184830390850152610506565b508851906102df8261052b565b81529361072a565b6102788c516102f58161052b565b858152916108b7565b899897999550819396919294508b83916103188383610c74565b9261032291610c74565b61032b906105ba565b9b14156000149b61036b6100dc9b6103656102b79f9a61037a9a61029d996102c59d61039557610278915061035f8861065b565b92610c74565b9a61072a565b146103805761035f915061065b565b916102a4565b5087519061038d8261052b565b815292610c74565b61027891516103a38161052b565b89815292610c74565b6103d1939b508091929550903d106103df575b6103c9818361055d565b810190610598565b9a9250905098928d8061020e565b503d6103bf565b8b513d8a823e3d90fd5b8c92919e508d9750610410604491843d86116103df576103c9818361055d565b925090509f9098509192506101e1565b8c513d8b823e3d90fd5b9093506104459196508a3d8c116103df576103c9818361055d565b5050959095928e6101b7565b8a513d89823e3d90fd5b9350945050955082813d83116104d2575b610476818361055d565b810103126100e0576104878261057f565b506104946020830161057f565b50838201519160e08101519561010082015191600761014082015110156104ce5761016001519385851685036104ce57969193898061017b565b8380fd5b503d61046c565b85513d84823e3d90fd5b60005b8381106104f65750506000910152565b81810151838201526020016104e6565b9060209161051f815180928185528580860191016104e3565b601f01601f1916010190565b6020810190811067ffffffffffffffff82111761054757604052565b634e487b7160e01b600052604160045260246000fd5b90601f8019910116810190811067ffffffffffffffff82111761054757604052565b51906001600160a01b038216820361059357565b600080fd5b9190826080910312610593578151916020810151916060604083015192015190565b9061063d605c6040518094740213abcb2b91030b7321029b2b63632b91033b2ba1605d1b60208301526105f78151809260206035860191016104e3565b81017f206261636b20616e642068616c66206f6620746865206172626974726174696f60358201526637103332b2b99760c91b605582015203603c81018552018361055d565b565b67ffffffffffffffff811161054757601f01601f191660200190565b9061063d602c60405180946b01034b739ba32b0b21037b3160a51b602083015261068e81518092602086860191016104e3565b810103600c81018552018361055d565b604c61063d919392936040519485916a0213abcb2b9103830bcb9960ad1b60208401526106d5815180926020602b870191016104e3565b82016106eb825180936020602b850191016104e3565b017f2c206765747320746865206172626974726174696f6e2066656573206261636b602b820152601760f91b604b82015203602c81018552018361055d565b9190820391821161073757565b634e487b7160e01b600052601160045260246000fd5b605361063d919392936040519485916a0213abcb2b9103830bcb9960ad1b6020840152610784815180926020602b870191016104e3565b820161079a825180936020602b850191016104e3565b017f2c2053656c6c6572206765747320746865206172626974726174696f6e206665602b8201526732b9903130b1b59760c11b604b82015203603381018552018361055d565b81156107ea570490565b634e487b7160e01b600052601260045260246000fd5b81156107ea570690565b9061063d60216040518094600360fc1b602083015261083281518092602086860191016104e3565b810103600181018552018361055d565b908151811015610853570160200190565b634e487b7160e01b600052603260045260246000fd5b8015610737576000190190565b906108808261063f565b61088d604051918261055d565b828152809261089e601f199161063f565b0190602036910137565b60001981146107375760010190565b6108d6670de0b6b3a764000066038d7ea4c68000818406049204610a52565b908015610a17576108e690610a52565b6003815110156108fe576108f99061080a565b6108e6565b80515b801515806109d3575b1561091d5761091890610869565b610901565b9091908061092b5750905090565b61093481610876565b92600090815b8381106109a3575050505060256109a09160405193816109648693518092602080870191016104e3565b8201601760f91b60208201526109848251809360206021850191016104e3565b01630408aa8960e31b602182015203600581018452018261055d565b90565b6109ce906001600160f81b03196109ba8285610842565b5116841a6109c88289610842565b536108a8565b61093a565b506000198101818111610a0257600360fc1b906001600160f81b0319906109fa9085610842565b51161461090a565b60246000634e487b7160e01b81526011600452fd5b506109a0602460405183610a358295518092602080860191016104e3565b8101630408aa8960e31b602082015203600481018452018261055d565b6000908072184f03e93ff9f4daa797ed6e38ed64bf6a1f0160401b80821015610ba7575b506d04ee2d6d415b85acef810000000080831015610b98575b50662386f26fc1000080831015610b89575b506305f5e10080831015610b7a575b5061271080831015610b6b575b506064821015610b5b575b600a80921015610b51575b60019081602181860195610ae68761063f565b96610af4604051988961055d565b808852610b03601f199161063f565b01366020890137860101905b610b1b575b5050505090565b600019019083906f181899199a1a9b1b9c1cb0b131b232b360811b8282061a835304918215610b4c57919082610b0f565b610b14565b9160010191610ad3565b9190606460029104910191610ac8565b60049193920491019138610abd565b60089193920491019138610ab0565b60109193920491019138610aa1565b60209193920491019138610a8f565b604093508104915038610a76565b8015610c1e57600190602081108216604e8210831617610c16578190600a925b808211610bed57505081600019048111610737570290565b90928060001904811161073757818416610c0d575b800292811c90610bd5565b80920291610c02565b9050600a0a90565b50600190565b602161063d919392936040519481610c468793518092602080870191016104e3565b8201600160fd1b6020820152610c6582518093602087850191016104e3565b0103600181018552018361055d565b916001600160a01b03909116908115610faa576040805163313ce56760e01b8152600493909160209182848781845afa938415610f9f57908694939291600094610f5b575b506000908251958680926395d89b4160e01b82525afa938415610f5057600094610ed3575b5060ff96878416610cee81610bb5565b90610cf982846107e0565b9560038210610ebb575060021901898111610ea657610d2c9291610d218b610d279316610bb5565b92610800565b6107e0565b92610d38600391610a52565b938015610e9457610d4890610a52565b80518983161115610d6157610d5c9061080a565b610d48565b97505086515b80151580610e50575b15610d8357610d7e90610869565b610d67565b92939495508215600014610d9f575050506109a0929350610c24565b610daa839593610876565b9460005b818110610e255750506109a09495965090610e166022949392519684610ddd899651809286808a0191016104e3565b8501601760f91b84820152610dfb82518093866021850191016104e3565b0191600160fd1b6021840152835193849187850191016104e3565b0103600281018452018261055d565b610e4b906001600160f81b0319610e3c828c610842565b511660001a6109c8828a610842565b610dae565b506000198101818111610e7f57600360fc1b906001600160f81b031990610e77908b610842565b511614610d70565b601188634e487b7160e01b6000525260246000fd5b50505050909193506109a09250610c24565b601189634e487b7160e01b6000525260246000fd5b9592610ecc915091610d3892610800565b9491610a52565b90933d8082843e610ee4818461055d565b82019183818403126100905780519067ffffffffffffffff8211610f4c570182601f8201121561009057805191610f1a8361063f565b93610f278851958661055d565b8385528584840101116100e0575090610f45918480850191016104e3565b9238610cde565b8280fd5b50513d6000823e3d90fd5b9094508281819593943d8311610f98575b610f76818361055d565b8101031261009057519060ff821682036100e057508593909291906000610cb9565b503d610f6c565b82513d6000823e3d90fd5b60405162461bcd60e51b8152602060048201526015602482015274496e76616c696420746f6b656e206164647265737360581b6044820152606490fdfea264697066735822122024d561983162d2ea2933820782417994deab3b2924c89d02316b5318d375e72964736f6c63430008120033",
  "devdoc": {
    "kind": "dev",
    "methods": {
      "constructor": {
        "params": {
          "_escrow": "The address of the EscrowUniversal contract."
        }
      },
      "formatEth(uint256)": {
        "params": {
          "_amountWei": "The amount in wei."
        },
        "returns": {
          "_0": "The formatted amount."
        }
      },
      "formatToken(uint256,address)": {
        "params": {
          "_amountWei": "The amount in wei.",
          "_token": "The address of the token."
        },
        "returns": {
          "_0": "The formatted amount."
        }
      },
      "getPayoutMessages(uint256)": {
        "returns": {
          "buyerWins": "The payout message for the case where the buyer wins.",
          "noWinner": "The payout message for the case where nobody wins.",
          "sellerWins": "The payout message for the case where the seller wins."
        }
      }
    },
    "title": "EscrowView",
    "version": 1
  },
  "userdoc": {
    "kind": "user",
    "methods": {
      "constructor": {
        "notice": "Initialize the view contract with the address of the EscrowUniversal contract."
      },
      "formatEth(uint256)": {
        "notice": "Format an amount in ETH to 3 decimal places."
      },
      "formatToken(uint256,address)": {
        "notice": "Format an amount in a token to 3 decimal places."
      },
      "getPayoutMessages(uint256)": {
        "notice": "Get the payout messages for a transaction *once* a dispute is created.The amounts are exclusive of arbitration fees for clarity.The amounts pre-dispute are imprecise as the arbitration fees are not paid yet by either or both parties."
      }
    },
    "notice": "A view contract for EscrowUniversal to facilitate the display of ruling options.",
    "version": 1
  },
  "storageLayout": {
    "storage": [],
    "types": null
  }
}