{
  "address": "0x5c4B2Cff2998529f9d405A9b6EbB44BC537c8D7F",
  "abi": [
    {
      "inputs": [
        {
          "internalType": "contract IArbitratorV2",
          "name": "_arbitrator",
          "type": "address"
        },
        {
          "internalType": "bytes",
          "name": "_arbitratorExtraData",
          "type": "bytes"
        },
        {
          "internalType": "string",
          "name": "_templateData",
          "type": "string"
        },
        {
          "internalType": "string",
          "name": "_templateDataMappings",
          "type": "string"
        },
        {
          "internalType": "contract IDisputeTemplateRegistry",
          "name": "_templateRegistry",
          "type": "address"
        },
        {
          "internalType": "uint256",
          "name": "_feeTimeout",
          "type": "uint256"
        },
        {
          "internalType": "uint256",
          "name": "_settlementTimeout",
          "type": "uint256"
        }
      ],
      "stateMutability": "nonpayable",
      "type": "constructor"
    },
    {
      "inputs": [],
      "name": "ArbitratorOnly",
      "type": "error"
    },
    {
      "inputs": [],
      "name": "BuyerFeeNotCoverArbitrationCosts",
      "type": "error"
    },
    {
      "inputs": [],
      "name": "BuyerOnly",
      "type": "error"
    },
    {
      "inputs": [],
      "name": "BuyerOrSellerOnly",
      "type": "error"
    },
    {
      "inputs": [],
      "name": "DeadlineNotPassed",
      "type": "error"
    },
    {
      "inputs": [],
      "name": "DisputeAlreadyResolved",
      "type": "error"
    },
    {
      "inputs": [],
      "name": "GovernorOnly",
      "type": "error"
    },
    {
      "inputs": [],
      "name": "InvalidRuling",
      "type": "error"
    },
    {
      "inputs": [],
      "name": "MaximumPaymentAmountExceeded",
      "type": "error"
    },
    {
      "inputs": [],
      "name": "NoSettlementProposedOrTransactionMovedOnAcceptSettlement",
      "type": "error"
    },
    {
      "inputs": [],
      "name": "NoSettlementProposedOrTransactionMovedOnPayFeeBuyer",
      "type": "error"
    },
    {
      "inputs": [],
      "name": "NoSettlementProposedOrTransactionMovedOnPayFeeSeller",
      "type": "error"
    },
    {
      "inputs": [],
      "name": "NotSupported",
      "type": "error"
    },
    {
      "inputs": [],
      "name": "NotWaitingForBuyerFees",
      "type": "error"
    },
    {
      "inputs": [],
      "name": "NotWaitingForSellerFees",
      "type": "error"
    },
    {
      "inputs": [],
      "name": "SellerFeeNotCoverArbitrationCosts",
      "type": "error"
    },
    {
      "inputs": [],
      "name": "SellerOnly",
      "type": "error"
    },
    {
      "inputs": [],
      "name": "SettlementPeriodNotOver",
      "type": "error"
    },
    {
      "inputs": [],
      "name": "TimeoutNotPassed",
      "type": "error"
    },
    {
      "inputs": [],
      "name": "TokenTransferFailed",
      "type": "error"
    },
    {
      "inputs": [],
      "name": "TransactionDisputed",
      "type": "error"
    },
    {
      "inputs": [],
      "name": "TransactionEscalatedForArbitration",
      "type": "error"
    },
    {
      "inputs": [],
      "name": "TransactionExpired",
      "type": "error"
    },
    {
      "anonymous": false,
      "inputs": [
        {
          "indexed": true,
          "internalType": "contract IArbitratorV2",
          "name": "_arbitrator",
          "type": "address"
        },
        {
          "indexed": true,
          "internalType": "uint256",
          "name": "_arbitrableDisputeID",
          "type": "uint256"
        },
        {
          "indexed": false,
          "internalType": "uint256",
          "name": "_externalDisputeID",
          "type": "uint256"
        },
        {
          "indexed": false,
          "internalType": "uint256",
          "name": "_templateId",
          "type": "uint256"
        },
        {
          "indexed": false,
          "internalType": "string",
          "name": "_templateUri",
          "type": "string"
        }
      ],
      "name": "DisputeRequest",
      "type": "event"
    },
    {
      "anonymous": false,
      "inputs": [
        {
          "indexed": true,
          "internalType": "uint256",
          "name": "_transactionID",
          "type": "uint256"
        },
        {
          "indexed": false,
          "internalType": "string",
          "name": "_transactionUri",
          "type": "string"
        },
        {
          "indexed": true,
          "internalType": "address",
          "name": "_buyer",
          "type": "address"
        },
        {
          "indexed": true,
          "internalType": "address",
          "name": "_seller",
          "type": "address"
        },
        {
          "indexed": false,
          "internalType": "contract IERC20",
          "name": "_token",
          "type": "address"
        },
        {
          "indexed": false,
          "internalType": "uint256",
          "name": "_amount",
          "type": "uint256"
        },
        {
          "indexed": false,
          "internalType": "uint256",
          "name": "_deadline",
          "type": "uint256"
        }
      ],
      "name": "ERC20TransactionCreated",
      "type": "event"
    },
    {
      "anonymous": false,
      "inputs": [
        {
          "indexed": true,
          "internalType": "uint256",
          "name": "_transactionID",
          "type": "uint256"
        },
        {
          "indexed": false,
          "internalType": "enum Party",
          "name": "_party",
          "type": "uint8"
        }
      ],
      "name": "HasToPayFee",
      "type": "event"
    },
    {
      "anonymous": false,
      "inputs": [
        {
          "indexed": true,
          "internalType": "uint256",
          "name": "_transactionID",
          "type": "uint256"
        },
        {
          "indexed": false,
          "internalType": "string",
          "name": "_transactionUri",
          "type": "string"
        },
        {
          "indexed": true,
          "internalType": "address",
          "name": "_buyer",
          "type": "address"
        },
        {
          "indexed": true,
          "internalType": "address",
          "name": "_seller",
          "type": "address"
        },
        {
          "indexed": false,
          "internalType": "uint256",
          "name": "_amount",
          "type": "uint256"
        },
        {
          "indexed": false,
          "internalType": "uint256",
          "name": "_deadline",
          "type": "uint256"
        }
      ],
      "name": "NativeTransactionCreated",
      "type": "event"
    },
    {
      "anonymous": false,
      "inputs": [
        {
          "indexed": false,
          "internalType": "uint256",
          "name": "_feeTimeout",
          "type": "uint256"
        },
        {
          "indexed": false,
          "internalType": "uint256",
          "name": "_settlementTimeout",
          "type": "uint256"
        },
        {
          "indexed": false,
          "internalType": "bytes",
          "name": "_arbitratorExtraData",
          "type": "bytes"
        }
      ],
      "name": "ParameterUpdated",
      "type": "event"
    },
    {
      "anonymous": false,
      "inputs": [
        {
          "indexed": true,
          "internalType": "uint256",
          "name": "_transactionID",
          "type": "uint256"
        },
        {
          "indexed": false,
          "internalType": "uint256",
          "name": "_amount",
          "type": "uint256"
        },
        {
          "indexed": false,
          "internalType": "address",
          "name": "_party",
          "type": "address"
        }
      ],
      "name": "Payment",
      "type": "event"
    },
    {
      "anonymous": false,
      "inputs": [
        {
          "indexed": true,
          "internalType": "contract IArbitratorV2",
          "name": "_arbitrator",
          "type": "address"
        },
        {
          "indexed": true,
          "internalType": "uint256",
          "name": "_disputeID",
          "type": "uint256"
        },
        {
          "indexed": false,
          "internalType": "uint256",
          "name": "_ruling",
          "type": "uint256"
        }
      ],
      "name": "Ruling",
      "type": "event"
    },
    {
      "anonymous": false,
      "inputs": [
        {
          "indexed": true,
          "internalType": "uint256",
          "name": "_transactionID",
          "type": "uint256"
        },
        {
          "indexed": false,
          "internalType": "enum Party",
          "name": "_party",
          "type": "uint8"
        },
        {
          "indexed": false,
          "internalType": "uint256",
          "name": "_amount",
          "type": "uint256"
        }
      ],
      "name": "SettlementProposed",
      "type": "event"
    },
    {
      "anonymous": false,
      "inputs": [
        {
          "indexed": true,
          "internalType": "uint256",
          "name": "_transactionID",
          "type": "uint256"
        },
        {
          "indexed": true,
          "internalType": "enum Resolution",
          "name": "_resolution",
          "type": "uint8"
        }
      ],
      "name": "TransactionResolved",
      "type": "event"
    },
    {
      "inputs": [],
      "name": "AMOUNT_OF_CHOICES",
      "outputs": [
        {
          "internalType": "uint256",
          "name": "",
          "type": "uint256"
        }
      ],
      "stateMutability": "view",
      "type": "function"
    },
    {
      "inputs": [
        {
          "internalType": "uint256",
          "name": "_transactionID",
          "type": "uint256"
        }
      ],
      "name": "acceptSettlement",
      "outputs": [],
      "stateMutability": "nonpayable",
      "type": "function"
    },
    {
      "inputs": [],
      "name": "arbitrator",
      "outputs": [
        {
          "internalType": "contract IArbitratorV2",
          "name": "",
          "type": "address"
        }
      ],
      "stateMutability": "view",
      "type": "function"
    },
    {
      "inputs": [],
      "name": "arbitratorExtraData",
      "outputs": [
        {
          "internalType": "bytes",
          "name": "",
          "type": "bytes"
        }
      ],
      "stateMutability": "view",
      "type": "function"
    },
    {
      "inputs": [
        {
          "internalType": "contract IArbitratorV2",
          "name": "_arbitrator",
          "type": "address"
        }
      ],
      "name": "changeArbitrator",
      "outputs": [],
      "stateMutability": "nonpayable",
      "type": "function"
    },
    {
      "inputs": [
        {
          "internalType": "bytes",
          "name": "_arbitratorExtraData",
          "type": "bytes"
        }
      ],
      "name": "changeArbitratorExtraData",
      "outputs": [],
      "stateMutability": "nonpayable",
      "type": "function"
    },
    {
      "inputs": [
        {
          "internalType": "string",
          "name": "_templateData",
          "type": "string"
        },
        {
          "internalType": "string",
          "name": "_templateDataMappings",
          "type": "string"
        }
      ],
      "name": "changeDisputeTemplate",
      "outputs": [],
      "stateMutability": "nonpayable",
      "type": "function"
    },
    {
      "inputs": [
        {
          "internalType": "uint256",
          "name": "_feeTimeout",
          "type": "uint256"
        }
      ],
      "name": "changeFeeTimeout",
      "outputs": [],
      "stateMutability": "nonpayable",
      "type": "function"
    },
    {
      "inputs": [
        {
          "internalType": "address",
          "name": "_governor",
          "type": "address"
        }
      ],
      "name": "changeGovernor",
      "outputs": [],
      "stateMutability": "nonpayable",
      "type": "function"
    },
    {
      "inputs": [
        {
          "internalType": "uint256",
          "name": "_settlementTimeout",
          "type": "uint256"
        }
      ],
      "name": "changeSettlementTimeout",
      "outputs": [],
      "stateMutability": "nonpayable",
      "type": "function"
    },
    {
      "inputs": [
        {
          "internalType": "contract IDisputeTemplateRegistry",
          "name": "_templateRegistry",
          "type": "address"
        }
      ],
      "name": "changeTemplateRegistry",
      "outputs": [],
      "stateMutability": "nonpayable",
      "type": "function"
    },
    {
      "inputs": [
        {
          "internalType": "uint256",
          "name": "_amount",
          "type": "uint256"
        },
        {
          "internalType": "contract IERC20",
          "name": "_token",
          "type": "address"
        },
        {
          "internalType": "uint256",
          "name": "_timeoutPayment",
          "type": "uint256"
        },
        {
          "internalType": "string",
          "name": "_transactionUri",
          "type": "string"
        },
        {
          "internalType": "address payable",
          "name": "_seller",
          "type": "address"
        },
        {
          "internalType": "string",
          "name": "_templateData",
          "type": "string"
        },
        {
          "internalType": "string",
          "name": "_templateDataMappings",
          "type": "string"
        }
      ],
      "name": "createERC20Transaction",
      "outputs": [
        {
          "internalType": "uint256",
          "name": "transactionID",
          "type": "uint256"
        }
      ],
      "stateMutability": "nonpayable",
      "type": "function"
    },
    {
      "inputs": [
        {
          "internalType": "uint256",
          "name": "_timeoutPayment",
          "type": "uint256"
        },
        {
          "internalType": "string",
          "name": "_transactionUri",
          "type": "string"
        },
        {
          "internalType": "address payable",
          "name": "_seller",
          "type": "address"
        },
        {
          "internalType": "string",
          "name": "_templateData",
          "type": "string"
        },
        {
          "internalType": "string",
          "name": "_templateDataMappings",
          "type": "string"
        }
      ],
      "name": "createNativeTransaction",
      "outputs": [
        {
          "internalType": "uint256",
          "name": "transactionID",
          "type": "uint256"
        }
      ],
      "stateMutability": "payable",
      "type": "function"
    },
    {
      "inputs": [
        {
          "internalType": "uint256",
          "name": "",
          "type": "uint256"
        }
      ],
      "name": "disputeIDtoTransactionID",
      "outputs": [
        {
          "internalType": "uint256",
          "name": "",
          "type": "uint256"
        }
      ],
      "stateMutability": "view",
      "type": "function"
    },
    {
      "inputs": [
        {
          "internalType": "uint256",
          "name": "_transactionID",
          "type": "uint256"
        }
      ],
      "name": "executeTransaction",
      "outputs": [],
      "stateMutability": "nonpayable",
      "type": "function"
    },
    {
      "inputs": [],
      "name": "feeTimeout",
      "outputs": [
        {
          "internalType": "uint256",
          "name": "",
          "type": "uint256"
        }
      ],
      "stateMutability": "view",
      "type": "function"
    },
    {
      "inputs": [],
      "name": "getTransactionCount",
      "outputs": [
        {
          "internalType": "uint256",
          "name": "",
          "type": "uint256"
        }
      ],
      "stateMutability": "view",
      "type": "function"
    },
    {
      "inputs": [],
      "name": "governor",
      "outputs": [
        {
          "internalType": "address",
          "name": "",
          "type": "address"
        }
      ],
      "stateMutability": "view",
      "type": "function"
    },
    {
      "inputs": [
        {
          "internalType": "uint256",
          "name": "_transactionID",
          "type": "uint256"
        },
        {
          "internalType": "uint256",
          "name": "_amount",
          "type": "uint256"
        }
      ],
      "name": "pay",
      "outputs": [],
      "stateMutability": "nonpayable",
      "type": "function"
    },
    {
      "inputs": [
        {
          "internalType": "uint256",
          "name": "_transactionID",
          "type": "uint256"
        }
      ],
      "name": "payArbitrationFeeByBuyer",
      "outputs": [],
      "stateMutability": "payable",
      "type": "function"
    },
    {
      "inputs": [
        {
          "internalType": "uint256",
          "name": "_transactionID",
          "type": "uint256"
        }
      ],
      "name": "payArbitrationFeeBySeller",
      "outputs": [],
      "stateMutability": "payable",
      "type": "function"
    },
    {
      "inputs": [
        {
          "internalType": "uint256",
          "name": "_transactionID",
          "type": "uint256"
        },
        {
          "internalType": "uint256",
          "name": "_amount",
          "type": "uint256"
        }
      ],
      "name": "proposeSettlement",
      "outputs": [],
      "stateMutability": "nonpayable",
      "type": "function"
    },
    {
      "inputs": [
        {
          "internalType": "uint256",
          "name": "_transactionID",
          "type": "uint256"
        },
        {
          "internalType": "uint256",
          "name": "_amountReimbursed",
          "type": "uint256"
        }
      ],
      "name": "reimburse",
      "outputs": [],
      "stateMutability": "nonpayable",
      "type": "function"
    },
    {
      "inputs": [
        {
          "internalType": "uint256",
          "name": "_disputeID",
          "type": "uint256"
        },
        {
          "internalType": "uint256",
          "name": "_ruling",
          "type": "uint256"
        }
      ],
      "name": "rule",
      "outputs": [],
      "stateMutability": "nonpayable",
      "type": "function"
    },
    {
      "inputs": [],
      "name": "settlementTimeout",
      "outputs": [
        {
          "internalType": "uint256",
          "name": "",
          "type": "uint256"
        }
      ],
      "stateMutability": "view",
      "type": "function"
    },
    {
      "inputs": [],
      "name": "templateId",
      "outputs": [
        {
          "internalType": "uint256",
          "name": "",
          "type": "uint256"
        }
      ],
      "stateMutability": "view",
      "type": "function"
    },
    {
      "inputs": [],
      "name": "templateRegistry",
      "outputs": [
        {
          "internalType": "contract IDisputeTemplateRegistry",
          "name": "",
          "type": "address"
        }
      ],
      "stateMutability": "view",
      "type": "function"
    },
    {
      "inputs": [
        {
          "internalType": "uint256",
          "name": "_transactionID",
          "type": "uint256"
        }
      ],
      "name": "timeOutByBuyer",
      "outputs": [],
      "stateMutability": "nonpayable",
      "type": "function"
    },
    {
      "inputs": [
        {
          "internalType": "uint256",
          "name": "_transactionID",
          "type": "uint256"
        }
      ],
      "name": "timeOutBySeller",
      "outputs": [],
      "stateMutability": "nonpayable",
      "type": "function"
    },
    {
      "inputs": [
        {
          "internalType": "uint256",
          "name": "",
          "type": "uint256"
        }
      ],
      "name": "transactions",
      "outputs": [
        {
          "internalType": "address payable",
          "name": "buyer",
          "type": "address"
        },
        {
          "internalType": "address payable",
          "name": "seller",
          "type": "address"
        },
        {
          "internalType": "uint256",
          "name": "amount",
          "type": "uint256"
        },
        {
          "internalType": "uint256",
          "name": "settlementBuyer",
          "type": "uint256"
        },
        {
          "internalType": "uint256",
          "name": "settlementSeller",
          "type": "uint256"
        },
        {
          "internalType": "uint256",
          "name": "deadline",
          "type": "uint256"
        },
        {
          "internalType": "uint256",
          "name": "disputeID",
          "type": "uint256"
        },
        {
          "internalType": "uint256",
          "name": "buyerFee",
          "type": "uint256"
        },
        {
          "internalType": "uint256",
          "name": "sellerFee",
          "type": "uint256"
        },
        {
          "internalType": "uint256",
          "name": "lastFeePaymentTime",
          "type": "uint256"
        },
        {
          "internalType": "string",
          "name": "templateData",
          "type": "string"
        },
        {
          "internalType": "string",
          "name": "templateDataMappings",
          "type": "string"
        },
        {
          "internalType": "enum Status",
          "name": "status",
          "type": "uint8"
        },
        {
          "internalType": "contract IERC20",
          "name": "token",
          "type": "address"
        }
      ],
      "stateMutability": "view",
      "type": "function"
    }
  ],
  "transactionHash": "0xaa0df3879c06a99e0d37bea40efbe8347ee98ca5c0d13a418520751fff8b1475",
  "args": [
    "0xA54e7A16d7460e38a8F324eF46782FB520d58CE8",
    "0x00000000000000000000000000000000000000000000000000000000000000010000000000000000000000000000000000000000000000000000000000000003",
    "{\n  \"title\": \"{{escrowTitle}}\",\n  \"description\": \"{{deliverableText}}\",\n  \"question\": \"Which party abided by the terms of the contract?\",\n  \"answers\": [\n      {\n          \"title\": \"Refund the Buyer\",\n          \"description\": \"Select this to return the funds to the Buyer.\"\n      },\n      {\n          \"title\": \"Pay the Seller\",\n          \"description\": \"Select this to release the funds to the Seller.\"\n      }\n  ],\n  \"policyURI\": \"ipfs://TODO\",\n  \"attachment\": {\n      \"label\": \"Transaction Terms\",\n      \"uri\": \"{{extraDescriptionUri}}\"\n  },\n  \"frontendUrl\": \"https://escrow-v2.kleros.builders/#/myTransactions/%s\",\n  \"arbitrableChainID\": \"421614\",\n  \"arbitrableAddress\": \"0x250AB0477346aDFC010585b58FbF61cff1d8f3ea\",\n  \"arbitratorChainID\": \"421614\",\n  \"arbitratorAddress\": \"0xA54e7A16d7460e38a8F324eF46782FB520d58CE8\",\n  \"metadata\": {\n      \"buyer\": \"{{address}}\",\n      \"seller\": \"{{sendingRecipientAddress}}\",\n      \"amount\": \"{{sendingQuantity}}\",\n      \"asset\": \"{{escrowType}}\",\n      \"timeoutPayment\": \"{{timeoutPayment}}\",\n      \"transactionUri\": \"{{transactionUri}}\"\n  },\n  \"category\": \"Escrow\",\n  \"specification\": \"KIPXXX\",\n  \"aliases\": {\n      \"Buyer\": \"{{address}}\",\n      \"Seller\": \"{{sendingRecipientAddress}}\"\n  },\n  \"version\": \"1.0\"\n}\n",
    "{}",
    "0x596D3B09E684D62217682216e9b7a0De75933391",
    600,
    600
  ],
  "numDeployments": 1,
  "solcInputHash": "f0eda2c61264c8e82d0740ef130a1b29",
  "bytecode": "0x60806040523480156200001157600080fd5b506040516200343238038062003432833981016040819052620000349162000233565b60008054336001600160a01b031991821617909155600180549091166001600160a01b03891617905560026200006b878262000393565b50600380546001600160a01b0319166001600160a01b038516908117909155600583905560068290556040516312a6505d60e21b8152634a99417490620000b990889088906004016200048d565b6020604051808303816000875af1158015620000d9573d6000803e3d6000fd5b505050506040513d601f19601f82011682018060405250810190620000ff9190620004cd565b6004556040517ff0d0a0b363c32316c3e6e7e797bbc126af09c634db439ed65a3f96afe7ae2367906200013890849084908a90620004e7565b60405180910390a15050505050505062000508565b6001600160a01b03811681146200016357600080fd5b50565b634e487b7160e01b600052604160045260246000fd5b60005b83811015620001995781810151838201526020016200017f565b50506000910152565b600082601f830112620001b457600080fd5b81516001600160401b0380821115620001d157620001d162000166565b604051601f8301601f19908116603f01168101908282118183101715620001fc57620001fc62000166565b816040528381528660208588010111156200021657600080fd5b620002298460208301602089016200017c565b9695505050505050565b600080600080600080600060e0888a0312156200024f57600080fd5b87516200025c816200014d565b60208901519097506001600160401b03808211156200027a57600080fd5b620002888b838c01620001a2565b975060408a01519150808211156200029f57600080fd5b620002ad8b838c01620001a2565b965060608a0151915080821115620002c457600080fd5b50620002d38a828b01620001a2565b9450506080880151620002e6816200014d565b8093505060a0880151915060c0880151905092959891949750929550565b600181811c908216806200031957607f821691505b6020821081036200033a57634e487b7160e01b600052602260045260246000fd5b50919050565b601f8211156200038e57600081815260208120601f850160051c81016020861015620003695750805b601f850160051c820191505b818110156200038a5782815560010162000375565b5050505b505050565b81516001600160401b03811115620003af57620003af62000166565b620003c781620003c0845462000304565b8462000340565b602080601f831160018114620003ff5760008415620003e65750858301515b600019600386901b1c1916600185901b1785556200038a565b600085815260208120601f198616915b8281101562000430578886015182559484019460019091019084016200040f565b50858210156200044f5787850151600019600388901b60f8161c191681555b5050505050600190811b01905550565b60008151808452620004798160208601602086016200017c565b601f01601f19169290920160200192915050565b6060815260006060820152608060208201526000620004b060808301856200045f565b8281036040840152620004c481856200045f565b95945050505050565b600060208284031215620004e057600080fd5b5051919050565b838152826020820152606060408201526000620004c460608301846200045f565b612f1a80620005186000396000f3fe60806040526004361061018d5760003560e01c806393ee2678116100d7578063cb44c3fa11610085578063cb44c3fa1461044d578063e4c0aaf41461046d578063e77d0bd31461048d578063e98c579b146104ad578063ee22610b146104cd578063ef48eee6146104ed578063fc548f081461050d578063fe43a9921461052d57600080fd5b806393ee26781461035d5780639ace38c21461037d578063a0af81f0146103b7578063aba36169146103d7578063b2b96792146103f7578063b329036b14610417578063c5d552881461042d57600080fd5b80632fbe3b031161013f5780632fbe3b0314610271578063311a6c561461029e57806334e2672d146102be5780633bf54724146102de578063441080fe146102f15780634660ebbe146103075780636cc6cde1146103275780637aa77f291461034757600080fd5b80630c340a24146101925780630c7ac7b6146101cf5780631bd1823a146101f15780632ae0085e146102135780632be6d005146102345780632e0b6422146102475780632e7700f01461025c575b600080fd5b34801561019e57600080fd5b506000546101b2906001600160a01b031681565b6040516001600160a01b0390911681526020015b60405180910390f35b3480156101db57600080fd5b506101e461054d565b6040516101c691906125ac565b3480156101fd57600080fd5b5061021161020c3660046125c6565b6105db565b005b610226610221366004612699565b6106d2565b6040519081526020016101c6565b6102116102423660046125c6565b610844565b34801561025357600080fd5b50610226600281565b34801561026857600080fd5b50600754610226565b34801561027d57600080fd5b5061022661028c3660046125c6565b60086020526000908152604090205481565b3480156102aa57600080fd5b506102116102b936600461273f565b610a92565b3480156102ca57600080fd5b506102116102d9366004612761565b610ba2565b6102116102ec3660046125c6565b610c0e565b3480156102fd57600080fd5b5061022660065481565b34801561031357600080fd5b506102116103223660046127d2565b610e43565b34801561033357600080fd5b506001546101b2906001600160a01b031681565b34801561035357600080fd5b5061022660045481565b34801561036957600080fd5b506102116103783660046125c6565b610e90565b34801561038957600080fd5b5061039d6103983660046125c6565b6110c7565b6040516101c69e9d9c9b9a99989796959493929190612819565b3480156103c357600080fd5b506003546101b2906001600160a01b031681565b3480156103e357600080fd5b506102266103f23660046128bf565b611272565b34801561040357600080fd5b5061021161041236600461273f565b61142c565b34801561042357600080fd5b5061022660055481565b34801561043957600080fd5b50610211610448366004612981565b61169b565b34801561045957600080fd5b506102116104683660046125c6565b611742565b34801561047957600080fd5b506102116104883660046127d2565b6117a2565b34801561049957600080fd5b506102116104a83660046125c6565b6117ef565b3480156104b957600080fd5b506102116104c83660046125c6565b6118cf565b3480156104d957600080fd5b506102116104e83660046125c6565b611923565b3480156104f957600080fd5b5061021161050836600461273f565b611a52565b34801561051957600080fd5b506102116105283660046127d2565b611be5565b34801561053957600080fd5b5061021161054836600461273f565b611c32565b6002805461055a906129e4565b80601f0160208091040260200160405190810160405280929190818152602001828054610586906129e4565b80156105d35780601f106105a8576101008083540402835291602001916105d3565b820191906000526020600020905b8154815290600101906020018083116105b657829003601f168201915b505050505081565b6000600782815481106105f0576105f0612a1e565b60009182526020909120600d9091020190506003600c82015460ff16600681111561061d5761061d6127ef565b1461063b57604051635ed7670b60e11b815260040160405180910390fd5b600554600982015461064d9042612a4a565b101561066c57604051634799187b60e01b815260040160405180910390fd5b6007810180546000909155610682836002611d67565b80156106b15781546040516001600160a01b039091169082156108fc029083906000818181858888f150505050505b60025b6040518490600080516020612ea583398151915290600090a3505050565b600780546001810182556000918252600d027fa66cc928b5edb82af9bd49922954155ab7b0942694bea4ce44661d9a8736c688810180546001600160a01b0319908116331782557fa66cc928b5edb82af9bd49922954155ab7b0942694bea4ce44661d9a8736c689830180546001600160a01b0389169216919091179055347fa66cc928b5edb82af9bd49922954155ab7b0942694bea4ce44661d9a8736c68a8301557fa66cc928b5edb82af9bd49922954155ab7b0942694bea4ce44661d9a8736c6949091018054610100600160a81b03191690556107b28742612a63565b6005820155600a81016107c58582612ad9565b50600b81016107d48482612ad9565b506007546107e490600190612a4a565b9150846001600160a01b0316336001600160a01b0316837f0a7ca50c43ec865fdc8519822762f88432e18409024b9c036d6507b9c8f79d808934866005015460405161083293929190612b92565b60405180910390a45095945050505050565b60006007828154811061085957610859612a1e565b60009182526020909120600d9091020190506001600c82015460ff166006811115610886576108866127ef565b141580156108ad57506002600c82015460ff1660068111156108aa576108aa6127ef565b14155b80156108d257506003600c82015460ff1660068111156108cf576108cf6127ef565b14155b156108f05760405163376af24960e21b815260040160405180910390fd5b6002600c82015460ff16600681111561090b5761090b6127ef565b148015610927575060065460098201546109259042612a4a565b105b1561094557604051630627cd6b60e01b815260040160405180910390fd5b80546001600160a01b0316331461096f5760405163e2bc376b60e01b815260040160405180910390fd5b348160070160008282546109839190612a63565b909155505060015460405163f7434ea960e01b81526000916001600160a01b03169063f7434ea9906109ba90600290600401612c34565b602060405180830381865afa1580156109d7573d6000803e3d6000fd5b505050506040513d601f19601f820116820180604052508101906109fb9190612c47565b90508082600701541015610a2257604051631a48f3db60e11b815260040160405180910390fd5b4260098301556008820154811115610a8357600c8201805460ff1916600417905560405183907fc74b9f7dedf2887cd3c113b6d8da9cea19e55c1116e25f1f0e1b72d7543179b590610a7690600290612c70565b60405180910390a2505050565b610a8d83826121e6565b505050565b6001546001600160a01b03163314610abd57604051630955f84760e31b815260040160405180910390fd5b6002811115610adf576040516309efd47960e41b815260040160405180910390fd5b6000828152600860205260408120546007805491929183908110610b0557610b05612a1e565b60009182526020909120600d9091020190506005600c82015460ff166006811115610b3257610b326127ef565b14610b505760405163f10068b560e01b815260040160405180910390fd5b60015460405184815285916001600160a01b0316907f394027a5fa6e098a1191094d1719d6929b9abc535fcc0c8f448d6a4e756222769060200160405180910390a3610b9c8284611d67565b50505050565b6000546001600160a01b03163314610bcd5760405163c383977560e01b815260040160405180910390fd5b6002610bda828483612c7e565b50600080516020612ec58339815191526005546006548484604051610c029493929190612d38565b60405180910390a15050565b600060078281548110610c2357610c23612a1e565b60009182526020909120600d9091020190506001600c82015460ff166006811115610c5057610c506127ef565b14158015610c7757506002600c82015460ff166006811115610c7457610c746127ef565b14155b8015610c9c57506004600c82015460ff166006811115610c9957610c996127ef565b14155b15610cba5760405163365105ef60e11b815260040160405180910390fd5b6001600c82015460ff166006811115610cd557610cd56127ef565b148015610cf157506006546009820154610cef9042612a4a565b105b15610d0f57604051630627cd6b60e01b815260040160405180910390fd5b60018101546001600160a01b03163314610d3c57604051635800797f60e11b815260040160405180910390fd5b34816008016000828254610d509190612a63565b909155505060015460405163f7434ea960e01b81526000916001600160a01b03169063f7434ea990610d8790600290600401612c34565b602060405180830381865afa158015610da4573d6000803e3d6000fd5b505050506040513d601f19601f82011682018060405250810190610dc89190612c47565b90508082600801541015610def5760405163818d938f60e01b815260040160405180910390fd5b4260098301556007820154811115610a8357600c8201805460ff1916600317905560405183907fc74b9f7dedf2887cd3c113b6d8da9cea19e55c1116e25f1f0e1b72d7543179b590610a7690600190612c70565b6000546001600160a01b03163314610e6e5760405163c383977560e01b815260040160405180910390fd5b600380546001600160a01b0319166001600160a01b0392909216919091179055565b600060078281548110610ea557610ea5612a1e565b600091825260208220600d9091020191506001600c83015460ff166006811115610ed157610ed16127ef565b03610f0b5781546001600160a01b03163314610f005760405163e2bc376b60e01b815260040160405180910390fd5b506004810154610f7c565b6002600c83015460ff166006811115610f2657610f266127ef565b03610f635760018201546001600160a01b03163314610f5857604051635800797f60e11b815260040160405180910390fd5b506003810154610f7c565b604051630a7b6ec160e01b815260040160405180910390fd5b6000818360020154610f8e9190612a4a565b600060028501819055600385018190556004850155600c8401805460ff1916600617908190559091506001600160a01b03610100909104166110235782546040516001600160a01b039091169082156108fc029083906000818181858888f150505060018501546040516001600160a01b03909116925084156108fc02915084906000818181858888f19350505050506110a6565b8254600c840154611046916001600160a01b0361010090920482169116836123ad565b6110635760405163022e258160e11b815260040160405180910390fd5b6001830154600c840154611089916001600160a01b0361010090920482169116846123ad565b6110a65760405163022e258160e11b815260040160405180910390fd5b60046040518590600080516020612ea583398151915290600090a350505050565b600781815481106110d757600080fd5b60009182526020909120600d9091020180546001820154600283015460038401546004850154600586015460068701546007880154600889015460098a0154600a8b0180546001600160a01b039b8c169d5099909a169a97999698959794969395929491939092611147906129e4565b80601f0160208091040260200160405190810160405280929190818152602001828054611173906129e4565b80156111c05780601f10611195576101008083540402835291602001916111c0565b820191906000526020600020905b8154815290600101906020018083116111a357829003601f168201915b50505050509080600b0180546111d5906129e4565b80601f0160208091040260200160405190810160405280929190818152602001828054611201906129e4565b801561124e5780601f106112235761010080835404028352916020019161124e565b820191906000526020600020905b81548152906001019060200180831161123157829003601f168201915b505050600c909301549192505060ff8116906001600160a01b03610100909104168e565b60006112896001600160a01b03881633308b612480565b6112a65760405163022e258160e11b815260040160405180910390fd5b60078054600181018255600091909152600d027fa66cc928b5edb82af9bd49922954155ab7b0942694bea4ce44661d9a8736c688810180546001600160a01b0319908116331782557fa66cc928b5edb82af9bd49922954155ab7b0942694bea4ce44661d9a8736c689830180546001600160a01b03898116919093161790557fa66cc928b5edb82af9bd49922954155ab7b0942694bea4ce44661d9a8736c68a83018b90557fa66cc928b5edb82af9bd49922954155ab7b0942694bea4ce44661d9a8736c6949092018054928a1661010002610100600160a81b0319909316929092179091556113968742612a63565b6005820155600a81016113a98582612ad9565b50600b81016113b88482612ad9565b506007546113c890600190612a4a565b9150846001600160a01b0316336001600160a01b0316837fb96ca2c0c34e2ad6384277748b8101f4bddc3cbeaad7086e59cd315bd19aa8c5898c8e87600501546040516114189493929190612d75565b60405180910390a450979650505050505050565b60006007838154811061144157611441612a1e565b600091825260208220600d909102019150600c82015460ff16600681111561146b5761146b6127ef565b14801561147c575080600501544210155b1561149a576040516338e5e54b60e21b815260040160405180910390fd5b6003600c82015460ff1660068111156114b5576114b56127ef565b106114d357604051630d71592960e31b815260040160405180910390fd5b80600201548211156114f8576040516305aafecf60e01b815260040160405180910390fd5b42600982015560006001600c83015460ff16600681111561151b5761151b6127ef565b036115715781546001600160a01b0316331461154a5760405163e2bc376b60e01b815260040160405180910390fd5b60038201839055600c820180546002919060ff19166001835b02179055506001905061165b565b6002600c83015460ff16600681111561158c5761158c6127ef565b036115e45760018201546001600160a01b031633146115be57604051635800797f60e11b815260040160405180910390fd5b60048201839055600c820180546001919060ff191682805b02179055506002905061165b565b81546001600160a01b031633036116125760038201839055600c820180546002919060ff1916600183611563565b60018201546001600160a01b031633036116425760048201839055600c820180546001919060ff191682806115d6565b60405163351c18ff60e21b815260040160405180910390fd5b837f10c8b22b69e324b0227c6adfa65183c771304c11385423e93ce99779a7483dbf828560405161168d929190612dad565b60405180910390a250505050565b6000546001600160a01b031633146116c65760405163c383977560e01b815260040160405180910390fd5b6003546040516312a6505d60e21b81526001600160a01b0390911690634a994174906116f89085908590600401612dc8565b6020604051808303816000875af1158015611717573d6000803e3d6000fd5b505050506040513d601f19601f8201168201806040525081019061173b9190612c47565b6004555050565b6000546001600160a01b0316331461176d5760405163c383977560e01b815260040160405180910390fd5b6005819055600654604051600080516020612ec58339815191529161179791849190600290612e04565b60405180910390a150565b6000546001600160a01b031633146117cd5760405163c383977560e01b815260040160405180910390fd5b600080546001600160a01b0319166001600160a01b0392909216919091179055565b60006007828154811061180457611804612a1e565b60009182526020909120600d9091020190506004600c82015460ff166006811115611831576118316127ef565b1461184f57604051638225aba560e01b815260040160405180910390fd5b60055460098201546118619042612a4a565b101561188057604051634799187b60e01b815260040160405180910390fd5b6008810180546000909155611896836001611d67565b80156118c85760018201546040516001600160a01b039091169082156108fc029083906000818181858888f150505050505b60016106b4565b6000546001600160a01b031633146118fa5760405163c383977560e01b815260040160405180910390fd5b6006819055600554604051600080516020612ec583398151915291611797918490600290612e04565b60006007828154811061193857611938612a1e565b90600052602060002090600d02019050806005015442101561196d576040516302eb354360e41b815260040160405180910390fd5b6000600c82015460ff166006811115611988576119886127ef565b146119a657604051634e22597f60e11b815260040160405180910390fd5b6002810180546000909155600c82015461010090046001600160a01b03166119f95760018201546040516001600160a01b039091169082156108fc029083906000818181858888f1935050505050611a3c565b6001820154600c830154611a1f916001600160a01b0361010090920482169116836123ad565b611a3c5760405163022e258160e11b815260040160405180910390fd5b600c8201805460ff1916600617905560006106b4565b600060078381548110611a6757611a67612a1e565b60009182526020909120600d9091020180549091506001600160a01b03163314611aa45760405163e2bc376b60e01b815260040160405180910390fd5b6000600c82015460ff166006811115611abf57611abf6127ef565b14611add57604051634e22597f60e11b815260040160405180910390fd5b8060020154821115611b02576040516305aafecf60e01b815260040160405180910390fd5b81816002016000828254611b169190612a4a565b9091555050600c81015461010090046001600160a01b0316611b635760018101546040516001600160a01b039091169083156108fc029084906000818181858888f1935050505050611ba6565b6001810154600c820154611b89916001600160a01b0361010090920482169116846123ad565b611ba65760405163022e258160e11b815260040160405180910390fd5b6040805183815233602082015284917fd1432ca9a38d944f01b256a411861b109bc4bfe200c40d7144e919a16b86a8a8910160405180910390a2505050565b6000546001600160a01b03163314611c105760405163c383977560e01b815260040160405180910390fd5b600180546001600160a01b0319166001600160a01b0392909216919091179055565b600060078381548110611c4757611c47612a1e565b600091825260209091206001600d90920201908101549091506001600160a01b03163314611c8857604051635800797f60e11b815260040160405180910390fd5b6000600c82015460ff166006811115611ca357611ca36127ef565b14611cc157604051634e22597f60e11b815260040160405180910390fd5b8060020154821115611ce6576040516305aafecf60e01b815260040160405180910390fd5b81816002016000828254611cfa9190612a4a565b9091555050600c81015461010090046001600160a01b0316611d445780546040516001600160a01b039091169083156108fc029084906000818181858888f1935050505050611ba6565b8054600c820154611b89916001600160a01b0361010090920482169116846123ad565b600060078381548110611d7c57611d7c612a1e565b600091825260208220600d9190910201600281018054600383018054600485018054600787018054600889018054600c8b0180549a8d9055978c9055948b9055918a905598905560ff1986166006179093559496509194919390926001600160a01b0361010090910416156000198801611f605786546040516001600160a01b039091169084156108fc029085906000818181858888f193505050505084600014611ee7578015611e875786546001600160a01b03166108fc611e3f8789612a4a565b6040518115909202916000818181858888f150505060018901546040516001600160a01b03909116925087156108fc02915087906000818181858888f19350505050506121c0565b8654611eba906001600160a01b0316611ea08789612a4a565b600c8a015461010090046001600160a01b031691906123ad565b506001870154600c880154611ee1916001600160a01b0361010090920482169116876123ad565b506121c0565b8015611f1b5786546040516001600160a01b039091169087156108fc029088906000818181858888f19350505050506121c0565b8654600c880154611f3e916001600160a01b0361010090920482169116886123ad565b611f5b5760405163022e258160e11b815260040160405180910390fd5b6121c0565b6002880361209f5760018701546040516001600160a01b039091169083156108fc029084906000818181858888f1935050505050836000146120425780156120025786546001600160a01b03166108fc611fba8689612a4a565b6040518115909202916000818181858888f150505060018901546040516001600160a01b03909116925086156108fc02915086906000818181858888f19350505050506121c0565b865461201b906001600160a01b0316611ea08689612a4a565b506001870154600c880154611ee1916001600160a01b0361010090920482169116866123ad565b80156120795760018701546040516001600160a01b039091169087156108fc029088906000818181858888f19350505050506121c0565b6001870154600c880154611f3e916001600160a01b0361010090920482169116886123ad565b60006120ac600285612e23565b88546040519192506001600160a01b03169082156108fc029083906000818181858888f150505060018a01546040516001600160a01b03909116925083156108fc02915083906000818181858888f193505050505060006002886121109190612e23565b905082156121715788546040516001600160a01b039091169082156108fc029083906000818181858888f150505060018b01546040516001600160a01b03909116925083156108fc02915083906000818181858888f19350505050506121bd565b8854600c8a0154612194916001600160a01b0361010090920482169116836123ad565b506001890154600c8a01546121bb916001600160a01b0361010090920482169116836123ad565b505b50505b60036040518a90600080516020612ea583398151915290600090a3505050505050505050565b6000600783815481106121fb576121fb612a1e565b60009182526020909120600c600d90920201908101805460ff1916600517905560015460405163c13517e160e01b81529192506001600160a01b03169063c13517e1908490612251906002908190600401612e45565b60206040518083038185885af115801561226f573d6000803e3d6000fd5b50505050506040513d601f19601f820116820180604052508101906122949190612c47565b60068201818155600091825260086020908152604080842087905591546001546004548451898152938401526060838501819052830194909452915191926001600160a01b0316917f8bd32f430ff060e6bd204709b3790c9807987263d3230c580dc80b5f89e271869181900360800190a381816007015411156123565760008282600701546123249190612a4a565b6007830184905582546040519192506001600160a01b03169082156108fc029083906000818181858888f15050505050505b8181600801541115610a8d5760008282600801546123749190612a4a565b6008830184905560018301546040519192506001600160a01b03169082156108fc029083906000818181858888f1505050505050505050565b6040516001600160a01b03838116602483015260448201839052600091829182919087169060640160408051601f198184030181529181526020820180516001600160e01b031663a9059cbb60e01b1790525161240a9190612e66565b6000604051808303816000865af19150503d8060008114612447576040519150601f19603f3d011682016040523d82523d6000602084013e61244c565b606091505b50915091508180156124765750805115806124765750808060200190518101906124769190612e82565b9695505050505050565b6040516001600160a01b038481166024830152838116604483015260648201839052600091829182919088169060840160408051601f198184030181529181526020820180516001600160e01b03166323b872dd60e01b179052516124e59190612e66565b6000604051808303816000865af19150503d8060008114612522576040519150601f19603f3d011682016040523d82523d6000602084013e612527565b606091505b50915091508180156125515750805115806125515750808060200190518101906125519190612e82565b979650505050505050565b60005b8381101561257757818101518382015260200161255f565b50506000910152565b6000815180845261259881602086016020860161255c565b601f01601f19169290920160200192915050565b6020815260006125bf6020830184612580565b9392505050565b6000602082840312156125d857600080fd5b5035919050565b634e487b7160e01b600052604160045260246000fd5b600082601f83011261260657600080fd5b81356001600160401b0380821115612620576126206125df565b604051601f8301601f19908116603f01168101908282118183101715612648576126486125df565b8160405283815286602085880101111561266157600080fd5b836020870160208301376000602085830101528094505050505092915050565b6001600160a01b038116811461269657600080fd5b50565b600080600080600060a086880312156126b157600080fd5b8535945060208601356001600160401b03808211156126cf57600080fd5b6126db89838a016125f5565b9550604088013591506126ed82612681565b9093506060870135908082111561270357600080fd5b61270f89838a016125f5565b9350608088013591508082111561272557600080fd5b50612732888289016125f5565b9150509295509295909350565b6000806040838503121561275257600080fd5b50508035926020909101359150565b6000806020838503121561277457600080fd5b82356001600160401b038082111561278b57600080fd5b818501915085601f83011261279f57600080fd5b8135818111156127ae57600080fd5b8660208285010111156127c057600080fd5b60209290920196919550909350505050565b6000602082840312156127e457600080fd5b81356125bf81612681565b634e487b7160e01b600052602160045260246000fd5b60078110612815576128156127ef565b9052565b6001600160a01b038f811682528e1660208201528c60408201528b60608201528a60808201528960a08201528860c08201528760e082015286610100820152856101208201526101c061014082015260006128786101c0830187612580565b82810361016084015261288b8187612580565b91505061289c610180830185612805565b6001600160a01b0383166101a08301529f9e505050505050505050505050505050565b600080600080600080600060e0888a0312156128da57600080fd5b8735965060208801356128ec81612681565b95506040880135945060608801356001600160401b038082111561290f57600080fd5b61291b8b838c016125f5565b955060808a0135915061292d82612681565b90935060a0890135908082111561294357600080fd5b61294f8b838c016125f5565b935060c08a013591508082111561296557600080fd5b506129728a828b016125f5565b91505092959891949750929550565b6000806040838503121561299457600080fd5b82356001600160401b03808211156129ab57600080fd5b6129b7868387016125f5565b935060208501359150808211156129cd57600080fd5b506129da858286016125f5565b9150509250929050565b600181811c908216806129f857607f821691505b602082108103612a1857634e487b7160e01b600052602260045260246000fd5b50919050565b634e487b7160e01b600052603260045260246000fd5b634e487b7160e01b600052601160045260246000fd5b81810381811115612a5d57612a5d612a34565b92915050565b80820180821115612a5d57612a5d612a34565b601f821115610a8d57600081815260208120601f850160051c81016020861015612a9d5750805b601f850160051c820191505b81811015612abc57828155600101612aa9565b505050505050565b600019600383901b1c191660019190911b1790565b81516001600160401b03811115612af257612af26125df565b612b0681612b0084546129e4565b84612a76565b602080601f831160018114612b355760008415612b235750858301515b612b2d8582612ac4565b865550612abc565b600085815260208120601f198616915b82811015612b6457888601518255948401946001909101908401612b45565b5085821015612b825787850151600019600388901b60f8161c191681555b5050505050600190811b01905550565b606081526000612ba56060830186612580565b60208301949094525060400152919050565b60008154612bc4816129e4565b808552602060018381168015612be15760018114612bfb57612c29565b60ff1985168884015283151560051b880183019550612c29565b866000528260002060005b85811015612c215781548a8201860152908301908401612c06565b890184019650505b505050505092915050565b6020815260006125bf6020830184612bb7565b600060208284031215612c5957600080fd5b5051919050565b60038110612815576128156127ef565b60208101612a5d8284612c60565b6001600160401b03831115612c9557612c956125df565b612ca983612ca383546129e4565b83612a76565b6000601f841160018114612cd75760008515612cc55750838201355b612ccf8682612ac4565b845550612d31565b600083815260209020601f19861690835b82811015612d085786850135825560209485019460019092019101612ce8565b5086821015612d255760001960f88860031b161c19848701351681555b505060018560011b0183555b5050505050565b84815283602082015260606040820152816060820152818360808301376000818301608090810191909152601f909201601f191601019392505050565b608081526000612d886080830187612580565b6001600160a01b03959095166020830152506040810192909252606090910152919050565b60408101612dbb8285612c60565b8260208301529392505050565b6060815260006060820152608060208201526000612de96080830185612580565b8281036040840152612dfb8185612580565b95945050505050565b838152826020820152606060408201526000612dfb6060830184612bb7565b600082612e4057634e487b7160e01b600052601260045260246000fd5b500490565b828152604060208201526000612e5e6040830184612bb7565b949350505050565b60008251612e7881846020870161255c565b9190910192915050565b600060208284031215612e9457600080fd5b815180151581146125bf57600080fdfe89e6168584e1de3ec704ff46376271b5481b0d9b2b0ef0ae102f0d001093e000f0d0a0b363c32316c3e6e7e797bbc126af09c634db439ed65a3f96afe7ae2367a26469706673582212205affbe448218da096a7fe86de28ea7e13965bd324154b7a0fe455083b8e8c93764736f6c63430008120033",
  "devdoc": {
    "details": "Adapted from MultipleArbitrableTokenTransaction contract: https://github.com/kleros/kleros-interaction/blob/master/contracts/standard/arbitration/MultipleArbitrableTokenTransaction.sol and from MultipleArbitrableTransaction contract: https://github.com/kleros/kleros-interaction/blob/master/contracts/standard/arbitration/MultipleArbitrableTransaction.sol Note that the contract expects the tokens to have standard ERC20 behaviour. The tokens that don't conform to this type of behaviour should be filtered by the UI. Tokens should not reenter or allow recipients to refuse the transfer. Also note that arbitration fees are still paid in ETH.",
    "events": {
      "DisputeRequest(address,uint256,uint256,uint256,string)": {
        "details": "To be emitted when a dispute is created to link the correct meta-evidence to the disputeID.",
        "params": {
          "_arbitrableDisputeID": "The identifier of the dispute in the Arbitrable contract.",
          "_arbitrator": "The arbitrator of the contract.",
          "_externalDisputeID": "An identifier created outside Kleros by the protocol requesting arbitration.",
          "_templateId": "The identifier of the dispute template. Should not be used with _templateUri.",
          "_templateUri": "The URI to the dispute template. For example on IPFS: starting with '/ipfs/'. Should not be used with _templateId."
        }
      },
      "ERC20TransactionCreated(uint256,string,address,address,address,uint256,uint256)": {
        "details": "Emitted when a transaction paid in ERC20 token is created.",
        "params": {
          "_amount": "The initial amount in the transaction.",
          "_buyer": "The address of the buyer.",
          "_deadline": "The deadline of the transaction.",
          "_seller": "The address of the seller.",
          "_token": "The token address.",
          "_transactionID": "The index of the transaction.",
          "_transactionUri": "The IPFS Uri Hash of the transaction."
        }
      },
      "HasToPayFee(uint256,uint8)": {
        "details": "Indicate that a party has to pay a fee or would otherwise be considered as losing.",
        "params": {
          "_party": "The party who has to pay.",
          "_transactionID": "The index of the transaction."
        }
      },
      "NativeTransactionCreated(uint256,string,address,address,uint256,uint256)": {
        "details": "Emitted when a transaction paid in native currency is created.",
        "params": {
          "_amount": "The initial amount in the transaction.",
          "_buyer": "The address of the buyer.",
          "_deadline": "The deadline of the transaction.",
          "_seller": "The address of the seller.",
          "_transactionID": "The index of the transaction.",
          "_transactionUri": "The IPFS Uri Hash of the transaction."
        }
      },
      "ParameterUpdated(uint256,uint256,bytes)": {
        "details": "To be emitted when Escrow parameters are updated."
      },
      "Payment(uint256,uint256,address)": {
        "details": "To be emitted when a party pays or reimburses the other.",
        "params": {
          "_amount": "The amount paid.",
          "_party": "The party that paid.",
          "_transactionID": "The index of the transaction."
        }
      },
      "Ruling(address,uint256,uint256)": {
        "details": "To be raised when a ruling is given.",
        "params": {
          "_arbitrator": "The arbitrator giving the ruling.",
          "_disputeID": "The identifier of the dispute in the Arbitrator contract.",
          "_ruling": "The ruling which was given."
        }
      },
      "SettlementProposed(uint256,uint8,uint256)": {
        "details": "Emitted when a party proposes a settlement.",
        "params": {
          "_amount": "The amount proposed.",
          "_party": "The party that proposed a settlement.",
          "_transactionID": "The index of the transaction."
        }
      },
      "TransactionResolved(uint256,uint8)": {
        "details": "To be emitted when a transaction is resolved, either by its      execution, a timeout or because a ruling was enforced.",
        "params": {
          "_resolution": "Short description of what caused the transaction to be solved.",
          "_transactionID": "The ID of the respective transaction."
        }
      }
    },
    "kind": "dev",
    "methods": {
      "acceptSettlement(uint256)": {
        "details": "Accept a settlement proposed by the other party.",
        "params": {
          "_transactionID": "The index of the transaction."
        }
      },
      "constructor": {
        "details": "Constructor.",
        "params": {
          "_arbitrator": "The arbitrator of the contract.",
          "_arbitratorExtraData": "Extra data for the arbitrator.",
          "_feeTimeout": "Arbitration fee timeout for the parties.",
          "_settlementTimeout": "Settlement timeout for the parties.",
          "_templateData": "The dispute template data.",
          "_templateDataMappings": "The dispute template data mappings.",
          "_templateRegistry": "The dispute template registry."
        }
      },
      "createERC20Transaction(uint256,address,uint256,string,address,string,string)": {
        "details": "Create a transaction.",
        "params": {
          "_amount": "The amount of tokens in this transaction.",
          "_seller": "The recipient of the transaction.",
          "_templateData": "The dispute template data.",
          "_templateDataMappings": "The dispute template data mappings.",
          "_timeoutPayment": "Time after which a party can automatically execute the arbitrable transaction.",
          "_token": "The ERC20 token contract.",
          "_transactionUri": "The IPFS Uri Hash of the transaction."
        },
        "returns": {
          "transactionID": "The index of the transaction."
        }
      },
      "createNativeTransaction(uint256,string,address,string,string)": {
        "details": "Create a transaction.",
        "params": {
          "_seller": "The recipient of the transaction.",
          "_templateData": "The dispute template data.",
          "_templateDataMappings": "The dispute template data mappings.",
          "_timeoutPayment": "Time after which a party can automatically execute the arbitrable transaction.",
          "_transactionUri": "The IPFS Uri Hash of the transaction."
        },
        "returns": {
          "transactionID": "The index of the transaction."
        }
      },
      "executeTransaction(uint256)": {
        "details": "Transfer the transaction's amount to the seller if the timeout has passed.",
        "params": {
          "_transactionID": "The index of the transaction."
        }
      },
      "getTransactionCount()": {
        "details": "Getter to know the count of transactions.",
        "returns": {
          "_0": "The count of transactions."
        }
      },
      "pay(uint256,uint256)": {
        "details": "Pay seller. To be called if the good or service is provided.",
        "params": {
          "_amount": "Amount to pay in wei.",
          "_transactionID": "The index of the transaction."
        }
      },
      "payArbitrationFeeByBuyer(uint256)": {
        "details": "Pay the arbitration fee to raise a dispute. To be called by the buyer. Note that it can only be called after settlement proposition. Also note that the arbitrator can have createDispute throw, which will make      this function throw and therefore lead to a party being timed-out.      This is not a vulnerability as the arbitrator can rule in favor of one party anyway.",
        "params": {
          "_transactionID": "The index of the transaction."
        }
      },
      "payArbitrationFeeBySeller(uint256)": {
        "details": "Pay the arbitration fee to raise a dispute. To be called by the seller. Note that this function mirrors payArbitrationFeeByBuyer.",
        "params": {
          "_transactionID": "The index of the transaction."
        }
      },
      "proposeSettlement(uint256,uint256)": {
        "details": "Propose a settlement as a compromise from the initial terms to the other party.  Note that a party can only propose a settlement again after the other party has  done so as well to prevent front running/griefing issues.",
        "params": {
          "_amount": "The settlement amount.",
          "_transactionID": "The index of the transaction."
        }
      },
      "reimburse(uint256,uint256)": {
        "details": "Reimburse buyer. To be called if the good or service can't be fully provided.",
        "params": {
          "_amountReimbursed": "Amount to reimburse in wei.",
          "_transactionID": "The index of the transaction."
        }
      },
      "rule(uint256,uint256)": {
        "details": "Give a ruling for a dispute.      Must be called by the arbitrator.      The purpose of this function is to ensure that the address calling it has the right to rule on the contract.",
        "params": {
          "_disputeID": "The identifier of the dispute in the Arbitrator contract.",
          "_ruling": "Ruling given by the arbitrator. Note that 0 is reserved for \"Not able/wanting to make a decision\"."
        }
      },
      "timeOutByBuyer(uint256)": {
        "details": "Reimburse buyer if seller fails to pay the fee.",
        "params": {
          "_transactionID": "The index of the transaction."
        }
      },
      "timeOutBySeller(uint256)": {
        "details": "Pay seller if buyer fails to pay the fee.",
        "params": {
          "_transactionID": "The index of the transaction."
        }
      }
    },
    "title": "EscrowUniversal for a sale paid in native currency or ERC20 tokens without platform fees.",
    "version": 1
  },
  "userdoc": {
    "kind": "user",
    "methods": {},
    "version": 1
  },
  "storageLayout": {
    "storage": [
      {
        "astId": 262,
        "contract": "src/EscrowUniversal.sol:EscrowUniversal",
        "label": "governor",
        "offset": 0,
        "slot": "0",
        "type": "t_address"
      },
      {
        "astId": 265,
        "contract": "src/EscrowUniversal.sol:EscrowUniversal",
        "label": "arbitrator",
        "offset": 0,
        "slot": "1",
        "type": "t_contract(IArbitratorV2)134"
      },
      {
        "astId": 267,
        "contract": "src/EscrowUniversal.sol:EscrowUniversal",
        "label": "arbitratorExtraData",
        "offset": 0,
        "slot": "2",
        "type": "t_bytes_storage"
      },
      {
        "astId": 270,
        "contract": "src/EscrowUniversal.sol:EscrowUniversal",
        "label": "templateRegistry",
        "offset": 0,
        "slot": "3",
        "type": "t_contract(IDisputeTemplateRegistry)160"
      },
      {
        "astId": 272,
        "contract": "src/EscrowUniversal.sol:EscrowUniversal",
        "label": "templateId",
        "offset": 0,
        "slot": "4",
        "type": "t_uint256"
      },
      {
        "astId": 274,
        "contract": "src/EscrowUniversal.sol:EscrowUniversal",
        "label": "feeTimeout",
        "offset": 0,
        "slot": "5",
        "type": "t_uint256"
      },
      {
        "astId": 276,
        "contract": "src/EscrowUniversal.sol:EscrowUniversal",
        "label": "settlementTimeout",
        "offset": 0,
        "slot": "6",
        "type": "t_uint256"
      },
      {
        "astId": 280,
        "contract": "src/EscrowUniversal.sol:EscrowUniversal",
        "label": "transactions",
        "offset": 0,
        "slot": "7",
        "type": "t_array(t_struct(Transaction)2453_storage)dyn_storage"
      },
      {
        "astId": 284,
        "contract": "src/EscrowUniversal.sol:EscrowUniversal",
        "label": "disputeIDtoTransactionID",
        "offset": 0,
        "slot": "8",
        "type": "t_mapping(t_uint256,t_uint256)"
      }
    ],
    "types": {
      "t_address": {
        "encoding": "inplace",
        "label": "address",
        "numberOfBytes": "20"
      },
      "t_address_payable": {
        "encoding": "inplace",
        "label": "address payable",
        "numberOfBytes": "20"
      },
      "t_array(t_struct(Transaction)2453_storage)dyn_storage": {
        "base": "t_struct(Transaction)2453_storage",
        "encoding": "dynamic_array",
        "label": "struct Transaction[]",
        "numberOfBytes": "32"
      },
      "t_bytes_storage": {
        "encoding": "bytes",
        "label": "bytes",
        "numberOfBytes": "32"
      },
      "t_contract(IArbitratorV2)134": {
        "encoding": "inplace",
        "label": "contract IArbitratorV2",
        "numberOfBytes": "20"
      },
      "t_contract(IDisputeTemplateRegistry)160": {
        "encoding": "inplace",
        "label": "contract IDisputeTemplateRegistry",
        "numberOfBytes": "20"
      },
      "t_contract(IERC20)238": {
        "encoding": "inplace",
        "label": "contract IERC20",
        "numberOfBytes": "20"
      },
      "t_enum(Status)2416": {
        "encoding": "inplace",
        "label": "enum Status",
        "numberOfBytes": "1"
      },
      "t_mapping(t_uint256,t_uint256)": {
        "encoding": "mapping",
        "key": "t_uint256",
        "label": "mapping(uint256 => uint256)",
        "numberOfBytes": "32",
        "value": "t_uint256"
      },
      "t_string_storage": {
        "encoding": "bytes",
        "label": "string",
        "numberOfBytes": "32"
      },
      "t_struct(Transaction)2453_storage": {
        "encoding": "inplace",
        "label": "struct Transaction",
        "members": [
          {
            "astId": 2424,
            "contract": "src/EscrowUniversal.sol:EscrowUniversal",
            "label": "buyer",
            "offset": 0,
            "slot": "0",
            "type": "t_address_payable"
          },
          {
            "astId": 2426,
            "contract": "src/EscrowUniversal.sol:EscrowUniversal",
            "label": "seller",
            "offset": 0,
            "slot": "1",
            "type": "t_address_payable"
          },
          {
            "astId": 2428,
            "contract": "src/EscrowUniversal.sol:EscrowUniversal",
            "label": "amount",
            "offset": 0,
            "slot": "2",
            "type": "t_uint256"
          },
          {
            "astId": 2430,
            "contract": "src/EscrowUniversal.sol:EscrowUniversal",
            "label": "settlementBuyer",
            "offset": 0,
            "slot": "3",
            "type": "t_uint256"
          },
          {
            "astId": 2432,
            "contract": "src/EscrowUniversal.sol:EscrowUniversal",
            "label": "settlementSeller",
            "offset": 0,
            "slot": "4",
            "type": "t_uint256"
          },
          {
            "astId": 2434,
            "contract": "src/EscrowUniversal.sol:EscrowUniversal",
            "label": "deadline",
            "offset": 0,
            "slot": "5",
            "type": "t_uint256"
          },
          {
            "astId": 2436,
            "contract": "src/EscrowUniversal.sol:EscrowUniversal",
            "label": "disputeID",
            "offset": 0,
            "slot": "6",
            "type": "t_uint256"
          },
          {
            "astId": 2438,
            "contract": "src/EscrowUniversal.sol:EscrowUniversal",
            "label": "buyerFee",
            "offset": 0,
            "slot": "7",
            "type": "t_uint256"
          },
          {
            "astId": 2440,
            "contract": "src/EscrowUniversal.sol:EscrowUniversal",
            "label": "sellerFee",
            "offset": 0,
            "slot": "8",
            "type": "t_uint256"
          },
          {
            "astId": 2442,
            "contract": "src/EscrowUniversal.sol:EscrowUniversal",
            "label": "lastFeePaymentTime",
            "offset": 0,
            "slot": "9",
            "type": "t_uint256"
          },
          {
            "astId": 2444,
            "contract": "src/EscrowUniversal.sol:EscrowUniversal",
            "label": "templateData",
            "offset": 0,
            "slot": "10",
            "type": "t_string_storage"
          },
          {
            "astId": 2446,
            "contract": "src/EscrowUniversal.sol:EscrowUniversal",
            "label": "templateDataMappings",
            "offset": 0,
            "slot": "11",
            "type": "t_string_storage"
          },
          {
            "astId": 2449,
            "contract": "src/EscrowUniversal.sol:EscrowUniversal",
            "label": "status",
            "offset": 0,
            "slot": "12",
            "type": "t_enum(Status)2416"
          },
          {
            "astId": 2452,
            "contract": "src/EscrowUniversal.sol:EscrowUniversal",
            "label": "token",
            "offset": 1,
            "slot": "12",
            "type": "t_contract(IERC20)238"
          }
        ],
        "numberOfBytes": "416"
      },
      "t_uint256": {
        "encoding": "inplace",
        "label": "uint256",
        "numberOfBytes": "32"
      }
    }
  }
}