{
  "address": "0x250AB0477346aDFC010585b58FbF61cff1d8f3ea",
  "abi": [
    {
      "inputs": [
        {
          "internalType": "contract IArbitratorV2",
          "name": "_arbitrator",
          "type": "address"
        },
        {
          "internalType": "bytes",
          "name": "_arbitratorExtraData",
          "type": "bytes"
        },
        {
          "internalType": "string",
          "name": "_templateData",
          "type": "string"
        },
        {
          "internalType": "string",
          "name": "_templateDataMappings",
          "type": "string"
        },
        {
          "internalType": "contract IDisputeTemplateRegistry",
          "name": "_templateRegistry",
          "type": "address"
        },
        {
          "internalType": "uint256",
          "name": "_feeTimeout",
          "type": "uint256"
        },
        {
          "internalType": "uint256",
          "name": "_settlementTimeout",
          "type": "uint256"
        }
      ],
      "stateMutability": "nonpayable",
      "type": "constructor"
    },
    {
      "inputs": [],
      "name": "ArbitratorOnly",
      "type": "error"
    },
    {
      "inputs": [],
      "name": "BuyerFeeNotCoverArbitrationCosts",
      "type": "error"
    },
    {
      "inputs": [],
      "name": "BuyerOnly",
      "type": "error"
    },
    {
      "inputs": [],
      "name": "BuyerOrSellerOnly",
      "type": "error"
    },
    {
      "inputs": [],
      "name": "DeadlineNotPassed",
      "type": "error"
    },
    {
      "inputs": [],
      "name": "DisputeAlreadyResolved",
      "type": "error"
    },
    {
      "inputs": [],
      "name": "GovernorOnly",
      "type": "error"
    },
    {
      "inputs": [],
      "name": "InvalidRuling",
      "type": "error"
    },
    {
      "inputs": [],
      "name": "MaximumPaymentAmountExceeded",
      "type": "error"
    },
    {
      "inputs": [],
      "name": "NoSettlementProposedOrTransactionMovedOnAcceptSettlement",
      "type": "error"
    },
    {
      "inputs": [],
      "name": "NoSettlementProposedOrTransactionMovedOnPayFeeBuyer",
      "type": "error"
    },
    {
      "inputs": [],
      "name": "NoSettlementProposedOrTransactionMovedOnPayFeeSeller",
      "type": "error"
    },
    {
      "inputs": [],
      "name": "NotWaitingForBuyerFees",
      "type": "error"
    },
    {
      "inputs": [],
      "name": "NotWaitingForSellerFees",
      "type": "error"
    },
    {
      "inputs": [],
      "name": "SellerFeeNotCoverArbitrationCosts",
      "type": "error"
    },
    {
      "inputs": [],
      "name": "SellerOnly",
      "type": "error"
    },
    {
      "inputs": [],
      "name": "SettlementPeriodNotOver",
      "type": "error"
    },
    {
      "inputs": [],
      "name": "TimeoutNotPassed",
      "type": "error"
    },
    {
      "inputs": [],
      "name": "TransactionDisputed",
      "type": "error"
    },
    {
      "inputs": [],
      "name": "TransactionEscalatedForArbitration",
      "type": "error"
    },
    {
      "inputs": [],
      "name": "TransactionExpired",
      "type": "error"
    },
    {
      "anonymous": false,
      "inputs": [
        {
          "indexed": true,
          "internalType": "contract IArbitratorV2",
          "name": "_arbitrator",
          "type": "address"
        },
        {
          "indexed": true,
          "internalType": "uint256",
          "name": "_arbitrableDisputeID",
          "type": "uint256"
        },
        {
          "indexed": false,
          "internalType": "uint256",
          "name": "_externalDisputeID",
          "type": "uint256"
        },
        {
          "indexed": false,
          "internalType": "uint256",
          "name": "_templateId",
          "type": "uint256"
        },
        {
          "indexed": false,
          "internalType": "string",
          "name": "_templateUri",
          "type": "string"
        }
      ],
      "name": "DisputeRequest",
      "type": "event"
    },
    {
      "anonymous": false,
      "inputs": [
        {
          "indexed": true,
          "internalType": "uint256",
          "name": "_transactionID",
          "type": "uint256"
        },
        {
          "indexed": false,
          "internalType": "enum Escrow.Party",
          "name": "_party",
          "type": "uint8"
        }
      ],
      "name": "HasToPayFee",
      "type": "event"
    },
    {
      "anonymous": false,
      "inputs": [
        {
          "indexed": false,
          "internalType": "uint256",
          "name": "_feeTimeout",
          "type": "uint256"
        },
        {
          "indexed": false,
          "internalType": "uint256",
          "name": "_settlementTimeout",
          "type": "uint256"
        },
        {
          "indexed": false,
          "internalType": "bytes",
          "name": "_arbitratorExtraData",
          "type": "bytes"
        }
      ],
      "name": "ParameterUpdated",
      "type": "event"
    },
    {
      "anonymous": false,
      "inputs": [
        {
          "indexed": true,
          "internalType": "uint256",
          "name": "_transactionID",
          "type": "uint256"
        },
        {
          "indexed": false,
          "internalType": "uint256",
          "name": "_amount",
          "type": "uint256"
        },
        {
          "indexed": false,
          "internalType": "address",
          "name": "_party",
          "type": "address"
        }
      ],
      "name": "Payment",
      "type": "event"
    },
    {
      "anonymous": false,
      "inputs": [
        {
          "indexed": true,
          "internalType": "contract IArbitratorV2",
          "name": "_arbitrator",
          "type": "address"
        },
        {
          "indexed": true,
          "internalType": "uint256",
          "name": "_disputeID",
          "type": "uint256"
        },
        {
          "indexed": false,
          "internalType": "uint256",
          "name": "_ruling",
          "type": "uint256"
        }
      ],
      "name": "Ruling",
      "type": "event"
    },
    {
      "anonymous": false,
      "inputs": [
        {
          "indexed": true,
          "internalType": "uint256",
          "name": "_transactionID",
          "type": "uint256"
        },
        {
          "indexed": false,
          "internalType": "enum Escrow.Party",
          "name": "_party",
          "type": "uint8"
        },
        {
          "indexed": false,
          "internalType": "uint256",
          "name": "_amount",
          "type": "uint256"
        }
      ],
      "name": "SettlementProposed",
      "type": "event"
    },
    {
      "anonymous": false,
      "inputs": [
        {
          "indexed": true,
          "internalType": "uint256",
          "name": "_transactionID",
          "type": "uint256"
        },
        {
          "indexed": false,
          "internalType": "string",
          "name": "_transactionUri",
          "type": "string"
        },
        {
          "indexed": true,
          "internalType": "address",
          "name": "_buyer",
          "type": "address"
        },
        {
          "indexed": true,
          "internalType": "address",
          "name": "_seller",
          "type": "address"
        },
        {
          "indexed": false,
          "internalType": "uint256",
          "name": "_amount",
          "type": "uint256"
        },
        {
          "indexed": false,
          "internalType": "string",
          "name": "_asset",
          "type": "string"
        },
        {
          "indexed": false,
          "internalType": "uint256",
          "name": "_deadline",
          "type": "uint256"
        }
      ],
      "name": "TransactionCreated",
      "type": "event"
    },
    {
      "anonymous": false,
      "inputs": [
        {
          "indexed": true,
          "internalType": "uint256",
          "name": "_transactionID",
          "type": "uint256"
        },
        {
          "indexed": true,
          "internalType": "enum Escrow.Resolution",
          "name": "_resolution",
          "type": "uint8"
        }
      ],
      "name": "TransactionResolved",
      "type": "event"
    },
    {
      "inputs": [],
      "name": "AMOUNT_OF_CHOICES",
      "outputs": [
        {
          "internalType": "uint256",
          "name": "",
          "type": "uint256"
        }
      ],
      "stateMutability": "view",
      "type": "function"
    },
    {
      "inputs": [
        {
          "internalType": "uint256",
          "name": "_transactionID",
          "type": "uint256"
        }
      ],
      "name": "acceptSettlement",
      "outputs": [],
      "stateMutability": "nonpayable",
      "type": "function"
    },
    {
      "inputs": [],
      "name": "arbitrator",
      "outputs": [
        {
          "internalType": "contract IArbitratorV2",
          "name": "",
          "type": "address"
        }
      ],
      "stateMutability": "view",
      "type": "function"
    },
    {
      "inputs": [],
      "name": "arbitratorExtraData",
      "outputs": [
        {
          "internalType": "bytes",
          "name": "",
          "type": "bytes"
        }
      ],
      "stateMutability": "view",
      "type": "function"
    },
    {
      "inputs": [
        {
          "internalType": "contract IArbitratorV2",
          "name": "_arbitrator",
          "type": "address"
        }
      ],
      "name": "changeArbitrator",
      "outputs": [],
      "stateMutability": "nonpayable",
      "type": "function"
    },
    {
      "inputs": [
        {
          "internalType": "bytes",
          "name": "_arbitratorExtraData",
          "type": "bytes"
        }
      ],
      "name": "changeArbitratorExtraData",
      "outputs": [],
      "stateMutability": "nonpayable",
      "type": "function"
    },
    {
      "inputs": [
        {
          "internalType": "string",
          "name": "_templateData",
          "type": "string"
        },
        {
          "internalType": "string",
          "name": "_templateDataMappings",
          "type": "string"
        }
      ],
      "name": "changeDisputeTemplate",
      "outputs": [],
      "stateMutability": "nonpayable",
      "type": "function"
    },
    {
      "inputs": [
        {
          "internalType": "uint256",
          "name": "_feeTimeout",
          "type": "uint256"
        }
      ],
      "name": "changeFeeTimeout",
      "outputs": [],
      "stateMutability": "nonpayable",
      "type": "function"
    },
    {
      "inputs": [
        {
          "internalType": "address",
          "name": "_governor",
          "type": "address"
        }
      ],
      "name": "changeGovernor",
      "outputs": [],
      "stateMutability": "nonpayable",
      "type": "function"
    },
    {
      "inputs": [
        {
          "internalType": "uint256",
          "name": "_settlementTimeout",
          "type": "uint256"
        }
      ],
      "name": "changeSettlementTimeout",
      "outputs": [],
      "stateMutability": "nonpayable",
      "type": "function"
    },
    {
      "inputs": [
        {
          "internalType": "contract IDisputeTemplateRegistry",
          "name": "_templateRegistry",
          "type": "address"
        }
      ],
      "name": "changeTemplateRegistry",
      "outputs": [],
      "stateMutability": "nonpayable",
      "type": "function"
    },
    {
      "inputs": [
        {
          "internalType": "uint256",
          "name": "_timeoutPayment",
          "type": "uint256"
        },
        {
          "internalType": "string",
          "name": "_transactionUri",
          "type": "string"
        },
        {
          "internalType": "address payable",
          "name": "_seller",
          "type": "address"
        },
        {
          "internalType": "string",
          "name": "_templateData",
          "type": "string"
        },
        {
          "internalType": "string",
          "name": "_templateDataMappings",
          "type": "string"
        }
      ],
      "name": "createTransaction",
      "outputs": [
        {
          "internalType": "uint256",
          "name": "transactionID",
          "type": "uint256"
        }
      ],
      "stateMutability": "payable",
      "type": "function"
    },
    {
      "inputs": [
        {
          "internalType": "uint256",
          "name": "",
          "type": "uint256"
        }
      ],
      "name": "disputeIDtoTransactionID",
      "outputs": [
        {
          "internalType": "uint256",
          "name": "",
          "type": "uint256"
        }
      ],
      "stateMutability": "view",
      "type": "function"
    },
    {
      "inputs": [
        {
          "internalType": "uint256",
          "name": "_transactionID",
          "type": "uint256"
        }
      ],
      "name": "executeTransaction",
      "outputs": [],
      "stateMutability": "nonpayable",
      "type": "function"
    },
    {
      "inputs": [],
      "name": "feeTimeout",
      "outputs": [
        {
          "internalType": "uint256",
          "name": "",
          "type": "uint256"
        }
      ],
      "stateMutability": "view",
      "type": "function"
    },
    {
      "inputs": [],
      "name": "getCountTransactions",
      "outputs": [
        {
          "internalType": "uint256",
          "name": "",
          "type": "uint256"
        }
      ],
      "stateMutability": "view",
      "type": "function"
    },
    {
      "inputs": [],
      "name": "governor",
      "outputs": [
        {
          "internalType": "address",
          "name": "",
          "type": "address"
        }
      ],
      "stateMutability": "view",
      "type": "function"
    },
    {
      "inputs": [
        {
          "internalType": "uint256",
          "name": "_transactionID",
          "type": "uint256"
        },
        {
          "internalType": "uint256",
          "name": "_amount",
          "type": "uint256"
        }
      ],
      "name": "pay",
      "outputs": [],
      "stateMutability": "nonpayable",
      "type": "function"
    },
    {
      "inputs": [
        {
          "internalType": "uint256",
          "name": "_transactionID",
          "type": "uint256"
        }
      ],
      "name": "payArbitrationFeeByBuyer",
      "outputs": [],
      "stateMutability": "payable",
      "type": "function"
    },
    {
      "inputs": [
        {
          "internalType": "uint256",
          "name": "_transactionID",
          "type": "uint256"
        }
      ],
      "name": "payArbitrationFeeBySeller",
      "outputs": [],
      "stateMutability": "payable",
      "type": "function"
    },
    {
      "inputs": [
        {
          "internalType": "uint256",
          "name": "_transactionID",
          "type": "uint256"
        },
        {
          "internalType": "uint256",
          "name": "_amount",
          "type": "uint256"
        }
      ],
      "name": "proposeSettlement",
      "outputs": [],
      "stateMutability": "nonpayable",
      "type": "function"
    },
    {
      "inputs": [
        {
          "internalType": "uint256",
          "name": "_transactionID",
          "type": "uint256"
        },
        {
          "internalType": "uint256",
          "name": "_amountReimbursed",
          "type": "uint256"
        }
      ],
      "name": "reimburse",
      "outputs": [],
      "stateMutability": "nonpayable",
      "type": "function"
    },
    {
      "inputs": [
        {
          "internalType": "uint256",
          "name": "_disputeID",
          "type": "uint256"
        },
        {
          "internalType": "uint256",
          "name": "_ruling",
          "type": "uint256"
        }
      ],
      "name": "rule",
      "outputs": [],
      "stateMutability": "nonpayable",
      "type": "function"
    },
    {
      "inputs": [],
      "name": "settlementTimeout",
      "outputs": [
        {
          "internalType": "uint256",
          "name": "",
          "type": "uint256"
        }
      ],
      "stateMutability": "view",
      "type": "function"
    },
    {
      "inputs": [],
      "name": "templateId",
      "outputs": [
        {
          "internalType": "uint256",
          "name": "",
          "type": "uint256"
        }
      ],
      "stateMutability": "view",
      "type": "function"
    },
    {
      "inputs": [],
      "name": "templateRegistry",
      "outputs": [
        {
          "internalType": "contract IDisputeTemplateRegistry",
          "name": "",
          "type": "address"
        }
      ],
      "stateMutability": "view",
      "type": "function"
    },
    {
      "inputs": [
        {
          "internalType": "uint256",
          "name": "_transactionID",
          "type": "uint256"
        }
      ],
      "name": "timeOutByBuyer",
      "outputs": [],
      "stateMutability": "nonpayable",
      "type": "function"
    },
    {
      "inputs": [
        {
          "internalType": "uint256",
          "name": "_transactionID",
          "type": "uint256"
        }
      ],
      "name": "timeOutBySeller",
      "outputs": [],
      "stateMutability": "nonpayable",
      "type": "function"
    },
    {
      "inputs": [
        {
          "internalType": "uint256",
          "name": "",
          "type": "uint256"
        }
      ],
      "name": "transactions",
      "outputs": [
        {
          "internalType": "address payable",
          "name": "buyer",
          "type": "address"
        },
        {
          "internalType": "address payable",
          "name": "seller",
          "type": "address"
        },
        {
          "internalType": "uint256",
          "name": "amount",
          "type": "uint256"
        },
        {
          "internalType": "uint256",
          "name": "settlementBuyer",
          "type": "uint256"
        },
        {
          "internalType": "uint256",
          "name": "settlementSeller",
          "type": "uint256"
        },
        {
          "internalType": "uint256",
          "name": "deadline",
          "type": "uint256"
        },
        {
          "internalType": "uint256",
          "name": "disputeID",
          "type": "uint256"
        },
        {
          "internalType": "uint256",
          "name": "buyerFee",
          "type": "uint256"
        },
        {
          "internalType": "uint256",
          "name": "sellerFee",
          "type": "uint256"
        },
        {
          "internalType": "uint256",
          "name": "lastFeePaymentTime",
          "type": "uint256"
        },
        {
          "internalType": "string",
          "name": "templateData",
          "type": "string"
        },
        {
          "internalType": "string",
          "name": "templateDataMappings",
          "type": "string"
        },
        {
          "internalType": "enum Escrow.Status",
          "name": "status",
          "type": "uint8"
        }
      ],
      "stateMutability": "view",
      "type": "function"
    }
  ],
  "transactionHash": "0xc6f8c0cbf4c3855157366e2b8a3705093aa217514572f69a2e2a328de5f32a66",
  "args": [
    "0xA54e7A16d7460e38a8F324eF46782FB520d58CE8",
    "0x00000000000000000000000000000000000000000000000000000000000000010000000000000000000000000000000000000000000000000000000000000003",
    "{\n  \"title\": \"{{escrowTitle}}\",\n  \"description\": \"{{deliverableText}}\",\n  \"question\": \"Which party abided by the terms of the contract?\",\n  \"answers\": [\n      {\n          \"title\": \"Refund the Buyer\",\n          \"description\": \"Select this to return the funds to the Buyer.\"\n      },\n      {\n          \"title\": \"Pay the Seller\",\n          \"description\": \"Select this to release the funds to the Seller.\"\n      }\n  ],\n  \"policyURI\": \"ipfs://TODO\",\n  \"attachment\": {\n      \"label\": \"Transaction Terms\",\n      \"uri\": \"{{extraDescriptionUri}}\"\n  },\n  \"frontendUrl\": \"https://escrow-v2.kleros.builders/#/myTransactions/%s\",\n  \"arbitrableChainID\": \"421614\",\n  \"arbitrableAddress\": \"0x10f7A6f42Af606553883415bc8862643A6e63fdA\",\n  \"arbitratorChainID\": \"421614\",\n  \"arbitratorAddress\": \"0xA54e7A16d7460e38a8F324eF46782FB520d58CE8\",\n  \"metadata\": {\n      \"buyer\": \"{{address}}\",\n      \"seller\": \"{{sendingRecipientAddress}}\",\n      \"amount\": \"{{sendingQuantity}}\",\n      \"asset\": \"{{escrowType}}\",\n      \"timeoutPayment\": \"{{timeoutPayment}}\",\n      \"transactionUri\": \"{{transactionUri}}\"\n  },\n  \"category\": \"Escrow\",\n  \"specification\": \"KIPXXX\",\n  \"aliases\": {\n      \"Buyer\": \"{{address}}\",\n      \"Seller\": \"{{sendingRecipientAddress}}\"\n  },\n  \"version\": \"1.0\"\n}\n",
    "{}",
    "0x596D3B09E684D62217682216e9b7a0De75933391",
    600,
    600
  ],
  "numDeployments": 2,
  "solcInputHash": "c813274576266a64c2d25b0cce4d61cc",
  "bytecode": "0x60806040523480156200001157600080fd5b5060405162002b5238038062002b52833981016040819052620000349162000233565b60008054336001600160a01b031991821617909155600180549091166001600160a01b03891617905560026200006b878262000393565b50600380546001600160a01b0319166001600160a01b038516908117909155600583905560068290556040516312a6505d60e21b8152634a99417490620000b990889088906004016200048d565b6020604051808303816000875af1158015620000d9573d6000803e3d6000fd5b505050506040513d601f19601f82011682018060405250810190620000ff9190620004cd565b6004556040517ff0d0a0b363c32316c3e6e7e797bbc126af09c634db439ed65a3f96afe7ae2367906200013890849084908a90620004e7565b60405180910390a15050505050505062000508565b6001600160a01b03811681146200016357600080fd5b50565b634e487b7160e01b600052604160045260246000fd5b60005b83811015620001995781810151838201526020016200017f565b50506000910152565b600082601f830112620001b457600080fd5b81516001600160401b0380821115620001d157620001d162000166565b604051601f8301601f19908116603f01168101908282118183101715620001fc57620001fc62000166565b816040528381528660208588010111156200021657600080fd5b620002298460208301602089016200017c565b9695505050505050565b600080600080600080600060e0888a0312156200024f57600080fd5b87516200025c816200014d565b60208901519097506001600160401b03808211156200027a57600080fd5b620002888b838c01620001a2565b975060408a01519150808211156200029f57600080fd5b620002ad8b838c01620001a2565b965060608a0151915080821115620002c457600080fd5b50620002d38a828b01620001a2565b9450506080880151620002e6816200014d565b8093505060a0880151915060c0880151905092959891949750929550565b600181811c908216806200031957607f821691505b6020821081036200033a57634e487b7160e01b600052602260045260246000fd5b50919050565b601f8211156200038e57600081815260208120601f850160051c81016020861015620003695750805b601f850160051c820191505b818110156200038a5782815560010162000375565b5050505b505050565b81516001600160401b03811115620003af57620003af62000166565b620003c781620003c0845462000304565b8462000340565b602080601f831160018114620003ff5760008415620003e65750858301515b600019600386901b1c1916600185901b1785556200038a565b600085815260208120601f198616915b8281101562000430578886015182559484019460019091019084016200040f565b50858210156200044f5787850151600019600388901b60f8161c191681555b5050505050600190811b01905550565b60008151808452620004798160208601602086016200017c565b601f01601f19169290920160200192915050565b6060815260006060820152608060208201526000620004b060808301856200045f565b8281036040840152620004c481856200045f565b95945050505050565b600060208284031215620004e057600080fd5b5051919050565b838152826020820152606060408201526000620004c460608301846200045f565b61263a80620005186000396000f3fe6080604052600436106101825760003560e01c806393ee2678116100d7578063cb44c3fa11610085578063cb44c3fa14610421578063e4c0aaf414610441578063e77d0bd314610461578063e98c579b14610481578063ee22610b146104a1578063ef48eee6146104c1578063fc548f08146104e1578063fe43a9921461050157600080fd5b806393ee26781461033d5780639ace38c21461035d578063a0af81f014610396578063a527aa6a146103b6578063b2b96792146103cb578063b329036b146103eb578063c5d552881461040157600080fd5b806334e2672d1161013457806334e2672d1461028b5780633bf54724146102ab578063441080fe146102be5780634660ebbe146102d45780634ba5845b146102f45780636cc6cde1146103075780637aa77f291461032757600080fd5b80630c340a24146101875780630c7ac7b6146101c45780631bd1823a146101e65780632be6d005146102085780632e0b64221461021b5780632fbe3b031461023e578063311a6c561461026b575b600080fd5b34801561019357600080fd5b506000546101a7906001600160a01b031681565b6040516001600160a01b0390911681526020015b60405180910390f35b3480156101d057600080fd5b506101d9610521565b6040516101bb9190611ded565b3480156101f257600080fd5b50610206610201366004611e07565b6105af565b005b610206610216366004611e07565b6106a6565b34801561022757600080fd5b50610230600281565b6040519081526020016101bb565b34801561024a57600080fd5b50610230610259366004611e07565b60086020526000908152604090205481565b34801561027757600080fd5b50610206610286366004611e20565b6108f4565b34801561029757600080fd5b506102066102a6366004611e42565b610a04565b6102066102b9366004611e07565b610a70565b3480156102ca57600080fd5b5061023060065481565b3480156102e057600080fd5b506102066102ef366004611ecc565b610ca5565b610230610302366004611f8c565b610cf2565b34801561031357600080fd5b506001546101a7906001600160a01b031681565b34801561033357600080fd5b5061023060045481565b34801561034957600080fd5b50610206610358366004611e07565b610e35565b34801561036957600080fd5b5061037d610378366004611e07565b610fd4565b6040516101bb9d9c9b9a99989796959493929190612049565b3480156103a257600080fd5b506003546101a7906001600160a01b031681565b3480156103c257600080fd5b50600754610230565b3480156103d757600080fd5b506102066103e6366004611e20565b61116e565b3480156103f757600080fd5b5061023060055481565b34801561040d57600080fd5b5061020661041c3660046120ec565b6113dd565b34801561042d57600080fd5b5061020661043c366004611e07565b611484565b34801561044d57600080fd5b5061020661045c366004611ecc565b6114e4565b34801561046d57600080fd5b5061020661047c366004611e07565b611531565b34801561048d57600080fd5b5061020661049c366004611e07565b611611565b3480156104ad57600080fd5b506102066104bc366004611e07565b611665565b3480156104cd57600080fd5b506102066104dc366004611e20565b61174d565b3480156104ed57600080fd5b506102066104fc366004611ecc565b611881565b34801561050d57600080fd5b5061020661051c366004611e20565b6118ce565b6002805461052e90612150565b80601f016020809104026020016040519081016040528092919081815260200182805461055a90612150565b80156105a75780601f1061057c576101008083540402835291602001916105a7565b820191906000526020600020905b81548152906001019060200180831161058a57829003601f168201915b505050505081565b6000600782815481106105c4576105c461218a565b60009182526020909120600d9091020190506003600c82015460ff1660068111156105f1576105f1612033565b1461060f57604051635ed7670b60e11b815260040160405180910390fd5b600554600982015461062190426121b6565b101561064057604051634799187b60e01b815260040160405180910390fd5b60078101805460009091556106568360026119bf565b80156106855781546040516001600160a01b039091169082156108fc029083906000818181858888f150505050505b60025b60405184906000805160206125c583398151915290600090a3505050565b6000600782815481106106bb576106bb61218a565b60009182526020909120600d9091020190506001600c82015460ff1660068111156106e8576106e8612033565b1415801561070f57506002600c82015460ff16600681111561070c5761070c612033565b14155b801561073457506003600c82015460ff16600681111561073157610731612033565b14155b156107525760405163376af24960e21b815260040160405180910390fd5b6002600c82015460ff16600681111561076d5761076d612033565b1480156107895750600654600982015461078790426121b6565b105b156107a757604051630627cd6b60e01b815260040160405180910390fd5b80546001600160a01b031633146107d15760405163e2bc376b60e01b815260040160405180910390fd5b348160070160008282546107e591906121cf565b909155505060015460405163f7434ea960e01b81526000916001600160a01b03169063f7434ea99061081c9060029060040161225f565b602060405180830381865afa158015610839573d6000803e3d6000fd5b505050506040513d601f19601f8201168201806040525081019061085d9190612272565b9050808260070154101561088457604051631a48f3db60e11b815260040160405180910390fd5b42600983015560088201548111156108e557600c8201805460ff1916600417905560405183907fc74b9f7dedf2887cd3c113b6d8da9cea19e55c1116e25f1f0e1b72d7543179b5906108d89060029061229f565b60405180910390a2505050565b6108ef8382611be0565b505050565b6001546001600160a01b0316331461091f57604051630955f84760e31b815260040160405180910390fd5b6002811115610941576040516309efd47960e41b815260040160405180910390fd5b60008281526008602052604081205460078054919291839081106109675761096761218a565b60009182526020909120600d9091020190506005600c82015460ff16600681111561099457610994612033565b146109b25760405163f10068b560e01b815260040160405180910390fd5b60015460405184815285916001600160a01b0316907f394027a5fa6e098a1191094d1719d6929b9abc535fcc0c8f448d6a4e756222769060200160405180910390a36109fe82846119bf565b50505050565b6000546001600160a01b03163314610a2f5760405163c383977560e01b815260040160405180910390fd5b6002610a3c828483612310565b506000805160206125e58339815191526005546006548484604051610a6494939291906123cb565b60405180910390a15050565b600060078281548110610a8557610a8561218a565b60009182526020909120600d9091020190506001600c82015460ff166006811115610ab257610ab2612033565b14158015610ad957506002600c82015460ff166006811115610ad657610ad6612033565b14155b8015610afe57506004600c82015460ff166006811115610afb57610afb612033565b14155b15610b1c5760405163365105ef60e11b815260040160405180910390fd5b6001600c82015460ff166006811115610b3757610b37612033565b148015610b5357506006546009820154610b5190426121b6565b105b15610b7157604051630627cd6b60e01b815260040160405180910390fd5b60018101546001600160a01b03163314610b9e57604051635800797f60e11b815260040160405180910390fd5b34816008016000828254610bb291906121cf565b909155505060015460405163f7434ea960e01b81526000916001600160a01b03169063f7434ea990610be99060029060040161225f565b602060405180830381865afa158015610c06573d6000803e3d6000fd5b505050506040513d601f19601f82011682018060405250810190610c2a9190612272565b90508082600801541015610c515760405163818d938f60e01b815260040160405180910390fd5b42600983015560078201548111156108e557600c8201805460ff1916600317905560405183907fc74b9f7dedf2887cd3c113b6d8da9cea19e55c1116e25f1f0e1b72d7543179b5906108d89060019061229f565b6000546001600160a01b03163314610cd05760405163c383977560e01b815260040160405180910390fd5b600380546001600160a01b0319166001600160a01b0392909216919091179055565b600780546001810182556000918252600d027fa66cc928b5edb82af9bd49922954155ab7b0942694bea4ce44661d9a8736c688810180546001600160a01b0319908116331782557fa66cc928b5edb82af9bd49922954155ab7b0942694bea4ce44661d9a8736c689830180546001600160a01b0389169216919091179055347fa66cc928b5edb82af9bd49922954155ab7b0942694bea4ce44661d9a8736c68a90920191909155610da387426121cf565b6005820155600a8101610db68582612408565b50600b8101610dc58482612408565b50600754610dd5906001906121b6565b9150846001600160a01b0316336001600160a01b0316837facce36df44ab52b164cd7cbe013bca2f8a44e5a2cfe4753f5480f79a3116230989348660050154604051610e23939291906124c2565b60405180910390a45095945050505050565b600060078281548110610e4a57610e4a61218a565b600091825260208220600d9091020191506001600c83015460ff166006811115610e7657610e76612033565b03610eb05781546001600160a01b03163314610ea55760405163e2bc376b60e01b815260040160405180910390fd5b506004810154610f21565b6002600c83015460ff166006811115610ecb57610ecb612033565b03610f085760018201546001600160a01b03163314610efd57604051635800797f60e11b815260040160405180910390fd5b506003810154610f21565b604051630a7b6ec160e01b815260040160405180910390fd5b6000818360020154610f3391906121b6565b6000600285018190556003850181905560048501819055600c8501805460ff1916600617905584546040519293506001600160a01b0316916108fc84150291849190818181858888f150505060018501546040516001600160a01b03909116925084156108fc02915084906000818181858888f15060049350610fb592505050565b60405185906000805160206125c583398151915290600090a350505050565b60078181548110610fe457600080fd5b60009182526020909120600d9091020180546001820154600283015460038401546004850154600586015460068701546007880154600889015460098a0154600a8b0180546001600160a01b039b8c169d5099909a169a9799969895979496939592949193909261105490612150565b80601f016020809104026020016040519081016040528092919081815260200182805461108090612150565b80156110cd5780601f106110a2576101008083540402835291602001916110cd565b820191906000526020600020905b8154815290600101906020018083116110b057829003601f168201915b50505050509080600b0180546110e290612150565b80601f016020809104026020016040519081016040528092919081815260200182805461110e90612150565b801561115b5780601f106111305761010080835404028352916020019161115b565b820191906000526020600020905b81548152906001019060200180831161113e57829003601f168201915b505050600c909301549192505060ff168d565b6000600783815481106111835761118361218a565b600091825260208220600d909102019150600c82015460ff1660068111156111ad576111ad612033565b1480156111be575080600501544210155b156111dc576040516338e5e54b60e21b815260040160405180910390fd5b6003600c82015460ff1660068111156111f7576111f7612033565b1061121557604051630d71592960e31b815260040160405180910390fd5b806002015482111561123a576040516305aafecf60e01b815260040160405180910390fd5b42600982015560006001600c83015460ff16600681111561125d5761125d612033565b036112b35781546001600160a01b0316331461128c5760405163e2bc376b60e01b815260040160405180910390fd5b60038201839055600c820180546002919060ff19166001835b02179055506001905061139d565b6002600c83015460ff1660068111156112ce576112ce612033565b036113265760018201546001600160a01b0316331461130057604051635800797f60e11b815260040160405180910390fd5b60048201839055600c820180546001919060ff191682805b02179055506002905061139d565b81546001600160a01b031633036113545760038201839055600c820180546002919060ff19166001836112a5565b60018201546001600160a01b031633036113845760048201839055600c820180546001919060ff19168280611318565b60405163351c18ff60e21b815260040160405180910390fd5b837f10c8b22b69e324b0227c6adfa65183c771304c11385423e93ce99779a7483dbf82856040516113cf92919061250b565b60405180910390a250505050565b6000546001600160a01b031633146114085760405163c383977560e01b815260040160405180910390fd5b6003546040516312a6505d60e21b81526001600160a01b0390911690634a9941749061143a9085908590600401612526565b6020604051808303816000875af1158015611459573d6000803e3d6000fd5b505050506040513d601f19601f8201168201806040525081019061147d9190612272565b6004555050565b6000546001600160a01b031633146114af5760405163c383977560e01b815260040160405180910390fd5b60058190556006546040516000805160206125e5833981519152916114d991849190600290612562565b60405180910390a150565b6000546001600160a01b0316331461150f5760405163c383977560e01b815260040160405180910390fd5b600080546001600160a01b0319166001600160a01b0392909216919091179055565b6000600782815481106115465761154661218a565b60009182526020909120600d9091020190506004600c82015460ff16600681111561157357611573612033565b1461159157604051638225aba560e01b815260040160405180910390fd5b60055460098201546115a390426121b6565b10156115c257604051634799187b60e01b815260040160405180910390fd5b60088101805460009091556115d88360016119bf565b801561160a5760018201546040516001600160a01b039091169082156108fc029083906000818181858888f150505050505b6001610688565b6000546001600160a01b0316331461163c5760405163c383977560e01b815260040160405180910390fd5b60068190556005546040516000805160206125e5833981519152916114d9918490600290612562565b60006007828154811061167a5761167a61218a565b90600052602060002090600d0201905080600501544210156116af576040516302eb354360e41b815260040160405180910390fd5b6000600c82015460ff1660068111156116ca576116ca612033565b146116e857604051634e22597f60e11b815260040160405180910390fd5b600181015460028201546040516001600160a01b039092169181156108fc0291906000818181858888f15050600060028501819055600c8501805460ff191660061790556040519093508592506000805160206125c583398151915291508390a35050565b6000600783815481106117625761176261218a565b60009182526020909120600d9091020180549091506001600160a01b0316331461179f5760405163e2bc376b60e01b815260040160405180910390fd5b6000600c82015460ff1660068111156117ba576117ba612033565b146117d857604051634e22597f60e11b815260040160405180910390fd5b80600201548211156117fd576040516305aafecf60e01b815260040160405180910390fd5b60018101546040516001600160a01b039091169083156108fc029084906000818181858888f19350505050508181600201600082825461183d91906121b6565b90915550506040805183815233602082015284917fd1432ca9a38d944f01b256a411861b109bc4bfe200c40d7144e919a16b86a8a8910160405180910390a2505050565b6000546001600160a01b031633146118ac5760405163c383977560e01b815260040160405180910390fd5b600180546001600160a01b0319166001600160a01b0392909216919091179055565b6000600783815481106118e3576118e361218a565b600091825260209091206001600d90920201908101549091506001600160a01b0316331461192457604051635800797f60e11b815260040160405180910390fd5b6000600c82015460ff16600681111561193f5761193f612033565b1461195d57604051634e22597f60e11b815260040160405180910390fd5b8060020154821115611982576040516305aafecf60e01b815260040160405180910390fd5b80546040516001600160a01b039091169083156108fc029084906000818181858888f19350505050508181600201600082825461183d91906121b6565b6000600783815481106119d4576119d461218a565b600091825260208220600d9190910201600281018054600383018054600485018054600787018054600889018054988b9055958a90559289905588905596909255600c8501805460ff191660061790559395509093916000198701611ad9578315611aa45785546001600160a01b03166108fc85611a5288866121cf565b611a5c91906121b6565b6040518115909202916000818181858888f150505060018801546040516001600160a01b03909116925086156108fc02915086906000818181858888f1935050505050611bbb565b85546001600160a01b03166108fc611abc87856121cf565b6040518115909202916000818181858888f1935050505050611bbb565b60028703611b4d578215611b325785546001600160a01b03166108fc611aff85886121b6565b6040518115909202916000818181858888f15050505060018701546001600160a01b031690506108fc611abc85846121cf565b60018601546001600160a01b03166108fc611abc87846121cf565b60006002611b5b87856121cf565b611b659190612581565b87546040519192506001600160a01b03169082156108fc029083906000818181858888f150505060018901546040516001600160a01b03909116925083156108fc02915083906000818181858888f15050505050505b600360405189906000805160206125c583398151915290600090a35050505050505050565b600060078381548110611bf557611bf561218a565b60009182526020909120600c600d90920201908101805460ff1916600517905560015460405163c13517e160e01b81529192506001600160a01b03169063c13517e1908490611c4b9060029081906004016125a3565b60206040518083038185885af1158015611c69573d6000803e3d6000fd5b50505050506040513d601f19601f82011682018060405250810190611c8e9190612272565b60068201818155600091825260086020908152604080842087905591546001546004548451898152938401526060838501819052830194909452915191926001600160a01b0316917f8bd32f430ff060e6bd204709b3790c9807987263d3230c580dc80b5f89e271869181900360800190a38181600701541115611d50576000828260070154611d1e91906121b6565b6007830184905582546040519192506001600160a01b03169082156108fc029083906000818181858888f15050505050505b81816008015411156108ef576000828260080154611d6e91906121b6565b6008830184905560018301546040519192506001600160a01b03169082156108fc029083906000818181858888f1505050505050505050565b6000815180845260005b81811015611dcd57602081850181015186830182015201611db1565b506000602082860101526020601f19601f83011685010191505092915050565b602081526000611e006020830184611da7565b9392505050565b600060208284031215611e1957600080fd5b5035919050565b60008060408385031215611e3357600080fd5b50508035926020909101359150565b60008060208385031215611e5557600080fd5b823567ffffffffffffffff80821115611e6d57600080fd5b818501915085601f830112611e8157600080fd5b813581811115611e9057600080fd5b866020828501011115611ea257600080fd5b60209290920196919550909350505050565b6001600160a01b0381168114611ec957600080fd5b50565b600060208284031215611ede57600080fd5b8135611e0081611eb4565b634e487b7160e01b600052604160045260246000fd5b600082601f830112611f1057600080fd5b813567ffffffffffffffff80821115611f2b57611f2b611ee9565b604051601f8301601f19908116603f01168101908282118183101715611f5357611f53611ee9565b81604052838152866020858801011115611f6c57600080fd5b836020870160208301376000602085830101528094505050505092915050565b600080600080600060a08688031215611fa457600080fd5b85359450602086013567ffffffffffffffff80821115611fc357600080fd5b611fcf89838a01611eff565b955060408801359150611fe182611eb4565b90935060608701359080821115611ff757600080fd5b61200389838a01611eff565b9350608088013591508082111561201957600080fd5b5061202688828901611eff565b9150509295509295909350565b634e487b7160e01b600052602160045260246000fd5b60018060a01b038e16815260018060a01b038d1660208201528b60408201528a60608201528960808201528860a08201528760c08201528660e082015285610100820152846101208201526101a061014082015260006120ad6101a0830186611da7565b8281036101608401526120c08186611da7565b915050600783106120d3576120d3612033565b826101808301529e9d5050505050505050505050505050565b600080604083850312156120ff57600080fd5b823567ffffffffffffffff8082111561211757600080fd5b61212386838701611eff565b9350602085013591508082111561213957600080fd5b5061214685828601611eff565b9150509250929050565b600181811c9082168061216457607f821691505b60208210810361218457634e487b7160e01b600052602260045260246000fd5b50919050565b634e487b7160e01b600052603260045260246000fd5b634e487b7160e01b600052601160045260246000fd5b818103818111156121c9576121c96121a0565b92915050565b808201808211156121c9576121c96121a0565b600081546121ef81612150565b80855260206001838116801561220c576001811461222657612254565b60ff1985168884015283151560051b880183019550612254565b866000528260002060005b8581101561224c5781548a8201860152908301908401612231565b890184019650505b505050505092915050565b602081526000611e0060208301846121e2565b60006020828403121561228457600080fd5b5051919050565b6003811061229b5761229b612033565b9052565b602081016121c9828461228b565b601f8211156108ef57600081815260208120601f850160051c810160208610156122d45750805b601f850160051c820191505b818110156122f3578281556001016122e0565b505050505050565b600019600383901b1c191660019190911b1790565b67ffffffffffffffff83111561232857612328611ee9565b61233c836123368354612150565b836122ad565b6000601f84116001811461236a57600085156123585750838201355b61236286826122fb565b8455506123c4565b600083815260209020601f19861690835b8281101561239b578685013582556020948501946001909201910161237b565b50868210156123b85760001960f88860031b161c19848701351681555b505060018560011b0183555b5050505050565b84815283602082015260606040820152816060820152818360808301376000818301608090810191909152601f909201601f191601019392505050565b815167ffffffffffffffff81111561242257612422611ee9565b612436816124308454612150565b846122ad565b602080601f83116001811461246557600084156124535750858301515b61245d85826122fb565b8655506122f3565b600085815260208120601f198616915b8281101561249457888601518255948401946001909101908401612475565b50858210156124b25787850151600019600388901b60f8161c191681555b5050505050600190811b01905550565b6080815260006124d56080830186611da7565b846020840152828103604084015260068152656e617469766560d01b602082015260408101915050826060830152949350505050565b60408101612519828561228b565b8260208301529392505050565b60608152600060608201526080602082015260006125476080830185611da7565b82810360408401526125598185611da7565b95945050505050565b83815282602082015260606040820152600061255960608301846121e2565b60008261259e57634e487b7160e01b600052601260045260246000fd5b500490565b8281526040602082015260006125bc60408301846121e2565b94935050505056fe89e6168584e1de3ec704ff46376271b5481b0d9b2b0ef0ae102f0d001093e000f0d0a0b363c32316c3e6e7e797bbc126af09c634db439ed65a3f96afe7ae2367a26469706673582212207aa831171868a956e29122693ca62df579297dabf5e9a493772f6cf6c7f811a564736f6c63430008120033",
  "devdoc": {
    "details": "MultipleArbitrableTransaction contract that is compatible with V2.      Adapted from https://github.com/kleros/kleros-interaction/blob/master/contracts/standard/arbitration/MultipleArbitrableTransaction.sol",
    "events": {
      "DisputeRequest(address,uint256,uint256,uint256,string)": {
        "details": "To be emitted when a dispute is created to link the correct meta-evidence to the disputeID.",
        "params": {
          "_arbitrableDisputeID": "The identifier of the dispute in the Arbitrable contract.",
          "_arbitrator": "The arbitrator of the contract.",
          "_externalDisputeID": "An identifier created outside Kleros by the protocol requesting arbitration.",
          "_templateId": "The identifier of the dispute template. Should not be used with _templateUri.",
          "_templateUri": "The URI to the dispute template. For example on IPFS: starting with '/ipfs/'. Should not be used with _templateId."
        }
      },
      "HasToPayFee(uint256,uint8)": {
        "details": "Indicate that a party has to pay a fee or would otherwise be considered as losing.",
        "params": {
          "_party": "The party who has to pay.",
          "_transactionID": "The index of the transaction."
        }
      },
      "ParameterUpdated(uint256,uint256,bytes)": {
        "details": "To be emitted when Escrow parameters are updated."
      },
      "Payment(uint256,uint256,address)": {
        "details": "To be emitted when a party pays or reimburses the other.",
        "params": {
          "_amount": "The amount paid.",
          "_party": "The party that paid.",
          "_transactionID": "The index of the transaction."
        }
      },
      "Ruling(address,uint256,uint256)": {
        "details": "To be raised when a ruling is given.",
        "params": {
          "_arbitrator": "The arbitrator giving the ruling.",
          "_disputeID": "The identifier of the dispute in the Arbitrator contract.",
          "_ruling": "The ruling which was given."
        }
      },
      "SettlementProposed(uint256,uint8,uint256)": {
        "details": "Emitted when a party proposes a settlement.",
        "params": {
          "_amount": "The amount proposed.",
          "_party": "The party that proposed a settlement.",
          "_transactionID": "The index of the transaction."
        }
      },
      "TransactionCreated(uint256,string,address,address,uint256,string,uint256)": {
        "details": "Emitted when a transaction is created.",
        "params": {
          "_amount": "The initial amount in the transaction.",
          "_asset": "The asset used (\"native\" for native chain token).",
          "_buyer": "The address of the buyer.",
          "_deadline": "The deadline of the transaction.",
          "_seller": "The address of the seller.",
          "_transactionID": "The index of the transaction.",
          "_transactionUri": "The IPFS Uri Hash of the transaction."
        }
      },
      "TransactionResolved(uint256,uint8)": {
        "details": "To be emitted when a transaction is resolved, either by its      execution, a timeout or because a ruling was enforced.",
        "params": {
          "_resolution": "Short description of what caused the transaction to be solved.",
          "_transactionID": "The ID of the respective transaction."
        }
      }
    },
    "kind": "dev",
    "methods": {
      "acceptSettlement(uint256)": {
        "details": "Accept a settlement proposed by the other party.",
        "params": {
          "_transactionID": "The index of the transaction."
        }
      },
      "constructor": {
        "details": "Constructor.",
        "params": {
          "_arbitrator": "The arbitrator of the contract.",
          "_arbitratorExtraData": "Extra data for the arbitrator.",
          "_feeTimeout": "Arbitration fee timeout for the parties.",
          "_settlementTimeout": "Settlement timeout for the parties.",
          "_templateData": "The dispute template data.",
          "_templateDataMappings": "The dispute template data mappings.",
          "_templateRegistry": "The dispute template registry."
        }
      },
      "createTransaction(uint256,string,address,string,string)": {
        "details": "Create a transaction.",
        "params": {
          "_seller": "The recipient of the transaction.",
          "_templateData": "The dispute template data.",
          "_templateDataMappings": "The dispute template data mappings.",
          "_timeoutPayment": "Time after which a party can automatically execute the arbitrable transaction.",
          "_transactionUri": "The IPFS Uri Hash of the transaction."
        },
        "returns": {
          "transactionID": "The index of the transaction."
        }
      },
      "executeTransaction(uint256)": {
        "details": "Transfer the transaction's amount to the seller if the timeout has passed.",
        "params": {
          "_transactionID": "The index of the transaction."
        }
      },
      "getCountTransactions()": {
        "details": "Getter to know the count of transactions.",
        "returns": {
          "_0": "The count of transactions."
        }
      },
      "pay(uint256,uint256)": {
        "details": "Pay seller. To be called if the good or service is provided.",
        "params": {
          "_amount": "Amount to pay in wei.",
          "_transactionID": "The index of the transaction."
        }
      },
      "payArbitrationFeeByBuyer(uint256)": {
        "details": "Pay the arbitration fee to raise a dispute. To be called by the buyer. Note that it can only be called after settlement proposition. Also note that the arbitrator can have createDispute throw, which will make      this function throw and therefore lead to a party being timed-out.      This is not a vulnerability as the arbitrator can rule in favor of one party anyway.",
        "params": {
          "_transactionID": "The index of the transaction."
        }
      },
      "payArbitrationFeeBySeller(uint256)": {
        "details": "Pay the arbitration fee to raise a dispute. To be called by the seller. Note that this function mirrors payArbitrationFeeByBuyer.",
        "params": {
          "_transactionID": "The index of the transaction."
        }
      },
      "proposeSettlement(uint256,uint256)": {
        "details": "Propose a settlement as a compromise from the initial terms to the other party.  Note that a party can only propose a settlement again after the other party has  done so as well to prevent front running/griefing issues.",
        "params": {
          "_amount": "The settlement amount.",
          "_transactionID": "The index of the transaction."
        }
      },
      "reimburse(uint256,uint256)": {
        "details": "Reimburse buyer. To be called if the good or service can't be fully provided.",
        "params": {
          "_amountReimbursed": "Amount to reimburse in wei.",
          "_transactionID": "The index of the transaction."
        }
      },
      "rule(uint256,uint256)": {
        "details": "Give a ruling for a dispute. Must be called by the arbitrator to enforce the final ruling.      The purpose of this function is to ensure that the address calling it has the right to rule on the contract.",
        "params": {
          "_disputeID": "ID of the dispute in the Arbitrator contract.",
          "_ruling": "Ruling given by the arbitrator. Note that 0 is reserved for \"Refuse to arbitrate\"."
        }
      },
      "timeOutByBuyer(uint256)": {
        "details": "Reimburse buyer if seller fails to pay the fee.",
        "params": {
          "_transactionID": "The index of the transaction."
        }
      },
      "timeOutBySeller(uint256)": {
        "details": "Pay seller if buyer fails to pay the fee.",
        "params": {
          "_transactionID": "The index of the transaction."
        }
      }
    },
    "title": "Escrow for a sale paid in ETH and no fees.",
    "version": 1
  },
  "userdoc": {
    "kind": "user",
    "methods": {},
    "version": 1
  },
  "storageLayout": {
    "storage": [
      {
        "astId": 298,
        "contract": "src/Escrow.sol:Escrow",
        "label": "governor",
        "offset": 0,
        "slot": "0",
        "type": "t_address"
      },
      {
        "astId": 301,
        "contract": "src/Escrow.sol:Escrow",
        "label": "arbitrator",
        "offset": 0,
        "slot": "1",
        "type": "t_contract(IArbitratorV2)134"
      },
      {
        "astId": 303,
        "contract": "src/Escrow.sol:Escrow",
        "label": "arbitratorExtraData",
        "offset": 0,
        "slot": "2",
        "type": "t_bytes_storage"
      },
      {
        "astId": 306,
        "contract": "src/Escrow.sol:Escrow",
        "label": "templateRegistry",
        "offset": 0,
        "slot": "3",
        "type": "t_contract(IDisputeTemplateRegistry)160"
      },
      {
        "astId": 308,
        "contract": "src/Escrow.sol:Escrow",
        "label": "templateId",
        "offset": 0,
        "slot": "4",
        "type": "t_uint256"
      },
      {
        "astId": 310,
        "contract": "src/Escrow.sol:Escrow",
        "label": "feeTimeout",
        "offset": 0,
        "slot": "5",
        "type": "t_uint256"
      },
      {
        "astId": 312,
        "contract": "src/Escrow.sol:Escrow",
        "label": "settlementTimeout",
        "offset": 0,
        "slot": "6",
        "type": "t_uint256"
      },
      {
        "astId": 316,
        "contract": "src/Escrow.sol:Escrow",
        "label": "transactions",
        "offset": 0,
        "slot": "7",
        "type": "t_array(t_struct(Transaction)293_storage)dyn_storage"
      },
      {
        "astId": 320,
        "contract": "src/Escrow.sol:Escrow",
        "label": "disputeIDtoTransactionID",
        "offset": 0,
        "slot": "8",
        "type": "t_mapping(t_uint256,t_uint256)"
      }
    ],
    "types": {
      "t_address": {
        "encoding": "inplace",
        "label": "address",
        "numberOfBytes": "20"
      },
      "t_address_payable": {
        "encoding": "inplace",
        "label": "address payable",
        "numberOfBytes": "20"
      },
      "t_array(t_struct(Transaction)293_storage)dyn_storage": {
        "base": "t_struct(Transaction)293_storage",
        "encoding": "dynamic_array",
        "label": "struct Escrow.Transaction[]",
        "numberOfBytes": "32"
      },
      "t_bytes_storage": {
        "encoding": "bytes",
        "label": "bytes",
        "numberOfBytes": "32"
      },
      "t_contract(IArbitratorV2)134": {
        "encoding": "inplace",
        "label": "contract IArbitratorV2",
        "numberOfBytes": "20"
      },
      "t_contract(IDisputeTemplateRegistry)160": {
        "encoding": "inplace",
        "label": "contract IDisputeTemplateRegistry",
        "numberOfBytes": "20"
      },
      "t_enum(Status)259": {
        "encoding": "inplace",
        "label": "enum Escrow.Status",
        "numberOfBytes": "1"
      },
      "t_mapping(t_uint256,t_uint256)": {
        "encoding": "mapping",
        "key": "t_uint256",
        "label": "mapping(uint256 => uint256)",
        "numberOfBytes": "32",
        "value": "t_uint256"
      },
      "t_string_storage": {
        "encoding": "bytes",
        "label": "string",
        "numberOfBytes": "32"
      },
      "t_struct(Transaction)293_storage": {
        "encoding": "inplace",
        "label": "struct Escrow.Transaction",
        "members": [
          {
            "astId": 267,
            "contract": "src/Escrow.sol:Escrow",
            "label": "buyer",
            "offset": 0,
            "slot": "0",
            "type": "t_address_payable"
          },
          {
            "astId": 269,
            "contract": "src/Escrow.sol:Escrow",
            "label": "seller",
            "offset": 0,
            "slot": "1",
            "type": "t_address_payable"
          },
          {
            "astId": 271,
            "contract": "src/Escrow.sol:Escrow",
            "label": "amount",
            "offset": 0,
            "slot": "2",
            "type": "t_uint256"
          },
          {
            "astId": 273,
            "contract": "src/Escrow.sol:Escrow",
            "label": "settlementBuyer",
            "offset": 0,
            "slot": "3",
            "type": "t_uint256"
          },
          {
            "astId": 275,
            "contract": "src/Escrow.sol:Escrow",
            "label": "settlementSeller",
            "offset": 0,
            "slot": "4",
            "type": "t_uint256"
          },
          {
            "astId": 277,
            "contract": "src/Escrow.sol:Escrow",
            "label": "deadline",
            "offset": 0,
            "slot": "5",
            "type": "t_uint256"
          },
          {
            "astId": 279,
            "contract": "src/Escrow.sol:Escrow",
            "label": "disputeID",
            "offset": 0,
            "slot": "6",
            "type": "t_uint256"
          },
          {
            "astId": 281,
            "contract": "src/Escrow.sol:Escrow",
            "label": "buyerFee",
            "offset": 0,
            "slot": "7",
            "type": "t_uint256"
          },
          {
            "astId": 283,
            "contract": "src/Escrow.sol:Escrow",
            "label": "sellerFee",
            "offset": 0,
            "slot": "8",
            "type": "t_uint256"
          },
          {
            "astId": 285,
            "contract": "src/Escrow.sol:Escrow",
            "label": "lastFeePaymentTime",
            "offset": 0,
            "slot": "9",
            "type": "t_uint256"
          },
          {
            "astId": 287,
            "contract": "src/Escrow.sol:Escrow",
            "label": "templateData",
            "offset": 0,
            "slot": "10",
            "type": "t_string_storage"
          },
          {
            "astId": 289,
            "contract": "src/Escrow.sol:Escrow",
            "label": "templateDataMappings",
            "offset": 0,
            "slot": "11",
            "type": "t_string_storage"
          },
          {
            "astId": 292,
            "contract": "src/Escrow.sol:Escrow",
            "label": "status",
            "offset": 0,
            "slot": "12",
            "type": "t_enum(Status)259"
          }
        ],
        "numberOfBytes": "416"
      },
      "t_uint256": {
        "encoding": "inplace",
        "label": "uint256",
        "numberOfBytes": "32"
      }
    }
  }
}