{
  "address": "0xA01e6B988aeDae1fD4a748D6bfBcB8A438601DeE",
  "abi": [
    {
      "inputs": [
        {
          "internalType": "contract IArbitratorV2",
          "name": "_arbitrator",
          "type": "address"
        },
        {
          "internalType": "bytes",
          "name": "_arbitratorExtraData",
          "type": "bytes"
        },
        {
          "internalType": "string",
          "name": "_templateData",
          "type": "string"
        },
        {
          "internalType": "string",
          "name": "_templateDataMappings",
          "type": "string"
        },
        {
          "internalType": "contract IDisputeTemplateRegistry",
          "name": "_templateRegistry",
          "type": "address"
        },
        {
          "internalType": "uint256",
          "name": "_feeTimeout",
          "type": "uint256"
        },
        {
          "internalType": "uint256",
          "name": "_settlementTimeout",
          "type": "uint256"
        }
      ],
      "stateMutability": "nonpayable",
      "type": "constructor"
    },
    {
      "inputs": [],
      "name": "AmountExceedsCap",
      "type": "error"
    },
    {
      "inputs": [],
      "name": "ArbitratorOnly",
      "type": "error"
    },
    {
      "inputs": [],
      "name": "BuyerFeeNotCoverArbitrationCosts",
      "type": "error"
    },
    {
      "inputs": [],
      "name": "BuyerOnly",
      "type": "error"
    },
    {
      "inputs": [],
      "name": "BuyerOrSellerOnly",
      "type": "error"
    },
    {
      "inputs": [],
      "name": "DeadlineNotPassed",
      "type": "error"
    },
    {
      "inputs": [],
      "name": "DisputeAlreadyResolved",
      "type": "error"
    },
    {
      "inputs": [],
      "name": "GovernorOnly",
      "type": "error"
    },
    {
      "inputs": [],
      "name": "InvalidRuling",
      "type": "error"
    },
    {
      "inputs": [],
      "name": "MaximumPaymentAmountExceeded",
      "type": "error"
    },
    {
      "inputs": [],
      "name": "NoSettlementProposedOrTransactionMovedOnAcceptSettlement",
      "type": "error"
    },
    {
      "inputs": [],
      "name": "NoSettlementProposedOrTransactionMovedOnPayFeeBuyer",
      "type": "error"
    },
    {
      "inputs": [],
      "name": "NoSettlementProposedOrTransactionMovedOnPayFeeSeller",
      "type": "error"
    },
    {
      "inputs": [],
      "name": "NotSupported",
      "type": "error"
    },
    {
      "inputs": [],
      "name": "NotWaitingForBuyerFees",
      "type": "error"
    },
    {
      "inputs": [],
      "name": "NotWaitingForSellerFees",
      "type": "error"
    },
    {
      "inputs": [],
      "name": "SellerFeeNotCoverArbitrationCosts",
      "type": "error"
    },
    {
      "inputs": [],
      "name": "SellerOnly",
      "type": "error"
    },
    {
      "inputs": [],
      "name": "SettlementPeriodNotOver",
      "type": "error"
    },
    {
      "inputs": [],
      "name": "TimeoutNotPassed",
      "type": "error"
    },
    {
      "inputs": [],
      "name": "TokenTransferFailed",
      "type": "error"
    },
    {
      "inputs": [],
      "name": "TransactionDisputed",
      "type": "error"
    },
    {
      "inputs": [],
      "name": "TransactionEscalatedForArbitration",
      "type": "error"
    },
    {
      "inputs": [],
      "name": "TransactionExpired",
      "type": "error"
    },
    {
      "anonymous": false,
      "inputs": [
        {
          "indexed": true,
          "internalType": "contract IArbitratorV2",
          "name": "_arbitrator",
          "type": "address"
        },
        {
          "indexed": true,
          "internalType": "uint256",
          "name": "_arbitratorDisputeID",
          "type": "uint256"
        },
        {
          "indexed": false,
          "internalType": "uint256",
          "name": "_externalDisputeID",
          "type": "uint256"
        },
        {
          "indexed": false,
          "internalType": "uint256",
          "name": "_templateId",
          "type": "uint256"
        },
        {
          "indexed": false,
          "internalType": "string",
          "name": "_templateUri",
          "type": "string"
        }
      ],
      "name": "DisputeRequest",
      "type": "event"
    },
    {
      "anonymous": false,
      "inputs": [
        {
          "indexed": true,
          "internalType": "uint256",
          "name": "_transactionID",
          "type": "uint256"
        },
        {
          "indexed": false,
          "internalType": "string",
          "name": "_transactionUri",
          "type": "string"
        },
        {
          "indexed": true,
          "internalType": "address",
          "name": "_buyer",
          "type": "address"
        },
        {
          "indexed": true,
          "internalType": "address",
          "name": "_seller",
          "type": "address"
        },
        {
          "indexed": false,
          "internalType": "contract IERC20",
          "name": "_token",
          "type": "address"
        },
        {
          "indexed": false,
          "internalType": "uint256",
          "name": "_amount",
          "type": "uint256"
        },
        {
          "indexed": false,
          "internalType": "uint256",
          "name": "_deadline",
          "type": "uint256"
        }
      ],
      "name": "ERC20TransactionCreated",
      "type": "event"
    },
    {
      "anonymous": false,
      "inputs": [
        {
          "indexed": true,
          "internalType": "uint256",
          "name": "_transactionID",
          "type": "uint256"
        },
        {
          "indexed": false,
          "internalType": "enum Party",
          "name": "_party",
          "type": "uint8"
        }
      ],
      "name": "HasToPayFee",
      "type": "event"
    },
    {
      "anonymous": false,
      "inputs": [
        {
          "indexed": true,
          "internalType": "uint256",
          "name": "_transactionID",
          "type": "uint256"
        },
        {
          "indexed": false,
          "internalType": "string",
          "name": "_transactionUri",
          "type": "string"
        },
        {
          "indexed": true,
          "internalType": "address",
          "name": "_buyer",
          "type": "address"
        },
        {
          "indexed": true,
          "internalType": "address",
          "name": "_seller",
          "type": "address"
        },
        {
          "indexed": false,
          "internalType": "uint256",
          "name": "_amount",
          "type": "uint256"
        },
        {
          "indexed": false,
          "internalType": "uint256",
          "name": "_deadline",
          "type": "uint256"
        }
      ],
      "name": "NativeTransactionCreated",
      "type": "event"
    },
    {
      "anonymous": false,
      "inputs": [
        {
          "indexed": false,
          "internalType": "uint256",
          "name": "_feeTimeout",
          "type": "uint256"
        },
        {
          "indexed": false,
          "internalType": "uint256",
          "name": "_settlementTimeout",
          "type": "uint256"
        },
        {
          "indexed": false,
          "internalType": "bytes",
          "name": "_arbitratorExtraData",
          "type": "bytes"
        }
      ],
      "name": "ParameterUpdated",
      "type": "event"
    },
    {
      "anonymous": false,
      "inputs": [
        {
          "indexed": true,
          "internalType": "uint256",
          "name": "_transactionID",
          "type": "uint256"
        },
        {
          "indexed": false,
          "internalType": "uint256",
          "name": "_amount",
          "type": "uint256"
        },
        {
          "indexed": false,
          "internalType": "address",
          "name": "_party",
          "type": "address"
        }
      ],
      "name": "Payment",
      "type": "event"
    },
    {
      "anonymous": false,
      "inputs": [
        {
          "indexed": true,
          "internalType": "contract IArbitratorV2",
          "name": "_arbitrator",
          "type": "address"
        },
        {
          "indexed": true,
          "internalType": "uint256",
          "name": "_disputeID",
          "type": "uint256"
        },
        {
          "indexed": false,
          "internalType": "uint256",
          "name": "_ruling",
          "type": "uint256"
        }
      ],
      "name": "Ruling",
      "type": "event"
    },
    {
      "anonymous": false,
      "inputs": [
        {
          "indexed": true,
          "internalType": "uint256",
          "name": "_transactionID",
          "type": "uint256"
        },
        {
          "indexed": false,
          "internalType": "enum Party",
          "name": "_party",
          "type": "uint8"
        },
        {
          "indexed": false,
          "internalType": "uint256",
          "name": "_amount",
          "type": "uint256"
        }
      ],
      "name": "SettlementProposed",
      "type": "event"
    },
    {
      "anonymous": false,
      "inputs": [
        {
          "indexed": true,
          "internalType": "uint256",
          "name": "_transactionID",
          "type": "uint256"
        },
        {
          "indexed": true,
          "internalType": "enum Resolution",
          "name": "_resolution",
          "type": "uint8"
        }
      ],
      "name": "TransactionResolved",
      "type": "event"
    },
    {
      "inputs": [],
      "name": "AMOUNT_OF_CHOICES",
      "outputs": [
        {
          "internalType": "uint256",
          "name": "",
          "type": "uint256"
        }
      ],
      "stateMutability": "view",
      "type": "function"
    },
    {
      "inputs": [
        {
          "internalType": "uint256",
          "name": "_transactionID",
          "type": "uint256"
        }
      ],
      "name": "acceptSettlement",
      "outputs": [],
      "stateMutability": "nonpayable",
      "type": "function"
    },
    {
      "inputs": [
        {
          "internalType": "contract IERC20",
          "name": "",
          "type": "address"
        }
      ],
      "name": "amountCaps",
      "outputs": [
        {
          "internalType": "uint256",
          "name": "",
          "type": "uint256"
        }
      ],
      "stateMutability": "view",
      "type": "function"
    },
    {
      "inputs": [],
      "name": "arbitrator",
      "outputs": [
        {
          "internalType": "contract IArbitratorV2",
          "name": "",
          "type": "address"
        }
      ],
      "stateMutability": "view",
      "type": "function"
    },
    {
      "inputs": [],
      "name": "arbitratorExtraData",
      "outputs": [
        {
          "internalType": "bytes",
          "name": "",
          "type": "bytes"
        }
      ],
      "stateMutability": "view",
      "type": "function"
    },
    {
      "inputs": [
        {
          "internalType": "contract IERC20",
          "name": "_token",
          "type": "address"
        },
        {
          "internalType": "uint256",
          "name": "_amountCap",
          "type": "uint256"
        }
      ],
      "name": "changeAmountCap",
      "outputs": [],
      "stateMutability": "nonpayable",
      "type": "function"
    },
    {
      "inputs": [
        {
          "internalType": "contract IArbitratorV2",
          "name": "_arbitrator",
          "type": "address"
        }
      ],
      "name": "changeArbitrator",
      "outputs": [],
      "stateMutability": "nonpayable",
      "type": "function"
    },
    {
      "inputs": [
        {
          "internalType": "bytes",
          "name": "_arbitratorExtraData",
          "type": "bytes"
        }
      ],
      "name": "changeArbitratorExtraData",
      "outputs": [],
      "stateMutability": "nonpayable",
      "type": "function"
    },
    {
      "inputs": [
        {
          "internalType": "string",
          "name": "_templateData",
          "type": "string"
        },
        {
          "internalType": "string",
          "name": "_templateDataMappings",
          "type": "string"
        }
      ],
      "name": "changeDisputeTemplate",
      "outputs": [],
      "stateMutability": "nonpayable",
      "type": "function"
    },
    {
      "inputs": [
        {
          "internalType": "uint256",
          "name": "_feeTimeout",
          "type": "uint256"
        }
      ],
      "name": "changeFeeTimeout",
      "outputs": [],
      "stateMutability": "nonpayable",
      "type": "function"
    },
    {
      "inputs": [
        {
          "internalType": "address",
          "name": "_governor",
          "type": "address"
        }
      ],
      "name": "changeGovernor",
      "outputs": [],
      "stateMutability": "nonpayable",
      "type": "function"
    },
    {
      "inputs": [
        {
          "internalType": "uint256",
          "name": "_settlementTimeout",
          "type": "uint256"
        }
      ],
      "name": "changeSettlementTimeout",
      "outputs": [],
      "stateMutability": "nonpayable",
      "type": "function"
    },
    {
      "inputs": [
        {
          "internalType": "contract IDisputeTemplateRegistry",
          "name": "_templateRegistry",
          "type": "address"
        }
      ],
      "name": "changeTemplateRegistry",
      "outputs": [],
      "stateMutability": "nonpayable",
      "type": "function"
    },
    {
      "inputs": [
        {
          "internalType": "uint256",
          "name": "_amount",
          "type": "uint256"
        },
        {
          "internalType": "contract IERC20",
          "name": "_token",
          "type": "address"
        },
        {
          "internalType": "uint256",
          "name": "_deadline",
          "type": "uint256"
        },
        {
          "internalType": "string",
          "name": "_transactionUri",
          "type": "string"
        },
        {
          "internalType": "address payable",
          "name": "_seller",
          "type": "address"
        }
      ],
      "name": "createERC20Transaction",
      "outputs": [
        {
          "internalType": "uint256",
          "name": "transactionID",
          "type": "uint256"
        }
      ],
      "stateMutability": "nonpayable",
      "type": "function"
    },
    {
      "inputs": [
        {
          "internalType": "uint256",
          "name": "_amount",
          "type": "uint256"
        },
        {
          "internalType": "contract IERC20",
          "name": "_token",
          "type": "address"
        },
        {
          "internalType": "uint256",
          "name": "_deadline",
          "type": "uint256"
        },
        {
          "internalType": "string",
          "name": "_transactionUri",
          "type": "string"
        },
        {
          "internalType": "address payable",
          "name": "_buyer",
          "type": "address"
        },
        {
          "internalType": "address payable",
          "name": "_seller",
          "type": "address"
        }
      ],
      "name": "createERC20TransactionCustomBuyer",
      "outputs": [
        {
          "internalType": "uint256",
          "name": "transactionID",
          "type": "uint256"
        }
      ],
      "stateMutability": "nonpayable",
      "type": "function"
    },
    {
      "inputs": [
        {
          "internalType": "uint256",
          "name": "_deadline",
          "type": "uint256"
        },
        {
          "internalType": "string",
          "name": "_transactionUri",
          "type": "string"
        },
        {
          "internalType": "address payable",
          "name": "_seller",
          "type": "address"
        }
      ],
      "name": "createNativeTransaction",
      "outputs": [
        {
          "internalType": "uint256",
          "name": "transactionID",
          "type": "uint256"
        }
      ],
      "stateMutability": "payable",
      "type": "function"
    },
    {
      "inputs": [
        {
          "internalType": "uint256",
          "name": "_deadline",
          "type": "uint256"
        },
        {
          "internalType": "string",
          "name": "_transactionUri",
          "type": "string"
        },
        {
          "internalType": "address payable",
          "name": "_buyer",
          "type": "address"
        },
        {
          "internalType": "address payable",
          "name": "_seller",
          "type": "address"
        }
      ],
      "name": "createNativeTransactionCustomBuyer",
      "outputs": [
        {
          "internalType": "uint256",
          "name": "transactionID",
          "type": "uint256"
        }
      ],
      "stateMutability": "payable",
      "type": "function"
    },
    {
      "inputs": [
        {
          "internalType": "uint256",
          "name": "",
          "type": "uint256"
        }
      ],
      "name": "disputeIDtoTransactionID",
      "outputs": [
        {
          "internalType": "uint256",
          "name": "",
          "type": "uint256"
        }
      ],
      "stateMutability": "view",
      "type": "function"
    },
    {
      "inputs": [
        {
          "internalType": "uint256",
          "name": "_transactionID",
          "type": "uint256"
        }
      ],
      "name": "executeTransaction",
      "outputs": [],
      "stateMutability": "nonpayable",
      "type": "function"
    },
    {
      "inputs": [],
      "name": "feeTimeout",
      "outputs": [
        {
          "internalType": "uint256",
          "name": "",
          "type": "uint256"
        }
      ],
      "stateMutability": "view",
      "type": "function"
    },
    {
      "inputs": [
        {
          "internalType": "uint256",
          "name": "_transactionID",
          "type": "uint256"
        },
        {
          "internalType": "enum Party",
          "name": "_winningParty",
          "type": "uint8"
        }
      ],
      "name": "getPayouts",
      "outputs": [
        {
          "internalType": "uint256",
          "name": "buyerPayout",
          "type": "uint256"
        },
        {
          "internalType": "uint256",
          "name": "buyerPayoutToken",
          "type": "uint256"
        },
        {
          "internalType": "uint256",
          "name": "sellerPayout",
          "type": "uint256"
        },
        {
          "internalType": "uint256",
          "name": "sellerPayoutToken",
          "type": "uint256"
        }
      ],
      "stateMutability": "view",
      "type": "function"
    },
    {
      "inputs": [],
      "name": "getTransactionCount",
      "outputs": [
        {
          "internalType": "uint256",
          "name": "",
          "type": "uint256"
        }
      ],
      "stateMutability": "view",
      "type": "function"
    },
    {
      "inputs": [],
      "name": "governor",
      "outputs": [
        {
          "internalType": "address",
          "name": "",
          "type": "address"
        }
      ],
      "stateMutability": "view",
      "type": "function"
    },
    {
      "inputs": [
        {
          "internalType": "uint256",
          "name": "_transactionID",
          "type": "uint256"
        },
        {
          "internalType": "uint256",
          "name": "_amount",
          "type": "uint256"
        }
      ],
      "name": "pay",
      "outputs": [],
      "stateMutability": "nonpayable",
      "type": "function"
    },
    {
      "inputs": [
        {
          "internalType": "uint256",
          "name": "_transactionID",
          "type": "uint256"
        }
      ],
      "name": "payArbitrationFeeByBuyer",
      "outputs": [],
      "stateMutability": "payable",
      "type": "function"
    },
    {
      "inputs": [
        {
          "internalType": "uint256",
          "name": "_transactionID",
          "type": "uint256"
        }
      ],
      "name": "payArbitrationFeeBySeller",
      "outputs": [],
      "stateMutability": "payable",
      "type": "function"
    },
    {
      "inputs": [
        {
          "internalType": "uint256",
          "name": "_transactionID",
          "type": "uint256"
        },
        {
          "internalType": "uint256",
          "name": "_amount",
          "type": "uint256"
        }
      ],
      "name": "proposeSettlement",
      "outputs": [],
      "stateMutability": "nonpayable",
      "type": "function"
    },
    {
      "inputs": [
        {
          "internalType": "uint256",
          "name": "_transactionID",
          "type": "uint256"
        },
        {
          "internalType": "uint256",
          "name": "_amountReimbursed",
          "type": "uint256"
        }
      ],
      "name": "reimburse",
      "outputs": [],
      "stateMutability": "nonpayable",
      "type": "function"
    },
    {
      "inputs": [
        {
          "internalType": "uint256",
          "name": "_disputeID",
          "type": "uint256"
        },
        {
          "internalType": "uint256",
          "name": "_ruling",
          "type": "uint256"
        }
      ],
      "name": "rule",
      "outputs": [],
      "stateMutability": "nonpayable",
      "type": "function"
    },
    {
      "inputs": [],
      "name": "settlementTimeout",
      "outputs": [
        {
          "internalType": "uint256",
          "name": "",
          "type": "uint256"
        }
      ],
      "stateMutability": "view",
      "type": "function"
    },
    {
      "inputs": [],
      "name": "templateId",
      "outputs": [
        {
          "internalType": "uint256",
          "name": "",
          "type": "uint256"
        }
      ],
      "stateMutability": "view",
      "type": "function"
    },
    {
      "inputs": [],
      "name": "templateRegistry",
      "outputs": [
        {
          "internalType": "contract IDisputeTemplateRegistry",
          "name": "",
          "type": "address"
        }
      ],
      "stateMutability": "view",
      "type": "function"
    },
    {
      "inputs": [
        {
          "internalType": "uint256",
          "name": "_transactionID",
          "type": "uint256"
        }
      ],
      "name": "timeOutByBuyer",
      "outputs": [],
      "stateMutability": "nonpayable",
      "type": "function"
    },
    {
      "inputs": [
        {
          "internalType": "uint256",
          "name": "_transactionID",
          "type": "uint256"
        }
      ],
      "name": "timeOutBySeller",
      "outputs": [],
      "stateMutability": "nonpayable",
      "type": "function"
    },
    {
      "inputs": [
        {
          "internalType": "uint256",
          "name": "",
          "type": "uint256"
        }
      ],
      "name": "transactions",
      "outputs": [
        {
          "internalType": "address payable",
          "name": "buyer",
          "type": "address"
        },
        {
          "internalType": "address payable",
          "name": "seller",
          "type": "address"
        },
        {
          "internalType": "uint256",
          "name": "amount",
          "type": "uint256"
        },
        {
          "internalType": "uint256",
          "name": "settlementBuyer",
          "type": "uint256"
        },
        {
          "internalType": "uint256",
          "name": "settlementSeller",
          "type": "uint256"
        },
        {
          "internalType": "uint256",
          "name": "deadline",
          "type": "uint256"
        },
        {
          "internalType": "uint256",
          "name": "disputeID",
          "type": "uint256"
        },
        {
          "internalType": "uint256",
          "name": "buyerFee",
          "type": "uint256"
        },
        {
          "internalType": "uint256",
          "name": "sellerFee",
          "type": "uint256"
        },
        {
          "internalType": "uint256",
          "name": "lastFeePaymentTime",
          "type": "uint256"
        },
        {
          "internalType": "enum Status",
          "name": "status",
          "type": "uint8"
        },
        {
          "internalType": "contract IERC20",
          "name": "token",
          "type": "address"
        }
      ],
      "stateMutability": "view",
      "type": "function"
    }
  ],
  "transactionHash": "0x5bdf3d51ed9eff9c0a9b239d779ade148b777355eb3a703026342c74840efe8d",
  "args": [
    "0x1Bd44c4a4511DbFa7DC1d5BC201635596E7200f9",
    "0x00000000000000000000000000000000000000000000000000000000000000010000000000000000000000000000000000000000000000000000000000000001",
    "",
    "",
    "0xc852F94f90E3B06Da6eCfB61d76561ECfb94613f",
    600,
    600
  ],
  "numDeployments": 1,
  "solcInputHash": "fab05c4d500438ef529c26fabe219229",
  "bytecode": "0x60808060405234620002665762002c6a8038038091620000208285620003ad565b833981019060e081830312620002665780516001600160a01b03928382169291839003620002665760208201516001600160401b03908181116200026657830182601f820112156200026657828160206200007e93519101620003f6565b9460408401518281116200026657836200009a91860162000442565b926060850151908382116200026657620000b691860162000442565b926080850151928284168403620002665760c060a0870151960151963360018060a01b0319600054161760005560018060a01b0319600154161760015587519081116200039757600254600181811c911680156200038c575b60208210146200037657601f81116200030c575b506020601f82116001146200028c57620001c695936020959383620001b394600094859162000280575b508160011b9185199060031b1c1916176002555b600380546001600160a01b031916868416179055600589905560068a90556040516312a6505d60e21b815260606004820152606481018490526080602482015297889687958693608485019062000462565b8381036003190160448501529062000462565b0393165af1908115620002745760009162000228575b5060008051602062002c4a8339815191529362000215916004556040519384938452602084015260606040840152606083019062000462565b0390a16040516127c090816200048a8239f35b90506020813d6020116200026b575b816200024660209383620003ad565b8101031262000266575160008051602062002c4a833981519152620001dc565b600080fd5b3d915062000237565b6040513d6000823e3d90fd5b90508c0151386200014d565b601f1982169060026000528960206000209260005b818110620002f1575084600094620001c69a989460209a9894620001b39860019510620002d8575b505050811b0160025562000161565b0151861960f88460031b161c1916905538808e620002c9565b9183015184556001909301926020928301928c9201620002a1565b60026000527f405787fa12a823e0f2b7631cc41b3ba8828b3321ca811111fa75cd3aa3bb5ace601f830160051c810191602084106200036b575b601f0160051c01905b8181106200035e575062000123565b600081556001016200034f565b909150819062000346565b634e487b7160e01b600052602260045260246000fd5b90607f16906200010f565b634e487b7160e01b600052604160045260246000fd5b601f909101601f19168101906001600160401b038211908210176200039757604052565b60005b838110620003e55750506000910152565b8181015183820152602001620003d4565b919291906001600160401b03811162000397576040519162000423601f8301601f191660200184620003ad565b8294828452828201116200026657602062000440930190620003d1565b565b9080601f83011215620002665781516200045f92602001620003f6565b90565b906020916200047d81518092818552858086019101620003d1565b601f01601f191601019056fe6040608081526004908136101561001557600080fd5b600090813560e01c8063040c488814611f045780630c340a2414611edd5780630c7ac7b614611e0d5780631bd1823a14611bf65780632a7027de14611aee5780632be6d005146119115780632e0b6422146118f65780632e7700f0146118d85780632fbe3b03146118b0578063311a6c56146116d257806334e2672d146115005780633bf547241461130f578063441080fe146112f15780634660ebbe146112a65780634ab162e2146111465780636cc6cde11461111e5780637aa77f2914611100578063871fbf86146110b857806393ee267814610f305780639ace38c214610e54578063a0af81f014610e2c578063b2b9679214610c44578063b329036b14610c26578063c5d5528814610b11578063cb44c3fa14610ab3578063d2b8ae9c14610a64578063e3f07e9014610904578063e4c0aaf4146108ba578063e77d0bd31461068e578063e98c579b1461061b578063ee22610b146104c7578063ef48eee6146103ac578063f05a59f914610375578063fc548f08146103155763fe43a992146101a257600080fd5b34610311576101b036612162565b9190936101bc856121a4565b5060018101546001600160a01b039391929190841633810361030357600a84019081549060ff821660078110156102f0576102e0576002860190815490818a116102d05785518a81526001600160a01b039091166020820152999a8b9a8995948c949293909291610249918d91869060008051602061276b8339815191529080604081015b0390a26121fc565b809155156102ad575b5050505460081c16801560001461028457505050839283928392541682821561027b575bf15080f35b506108fc610276565b919550939192610296935416906126cd565b156102a057505080f35b5163022e258160e11b8152fd5b60ff1916600617835560008051602061272b8339815191528280a3873880610252565b85516305aafecf60e01b81528790fd5b50505051634e22597f60e11b8152fd5b634e487b7160e01b8a526021865260248afd5b5051635800797f60e11b8152fd5b5080fd5b5082346103715760203660031901126103715780356001600160a01b03818116939184900361036d578454163303610360575050600180546001600160a01b03191691909117905580f35b5163c383977560e01b8152fd5b8480fd5b8280fd5b50346103115760203660031901126103115760209181906001600160a01b0361039c61218e565b1681526009845220549051908152f35b5034610311576103bb36612162565b9190936103c7856121a4565b5080546001600160a01b03939192919084163381036104b957600a84019081549060ff821660078110156102f0576102e0576002860190815490818a116102d05785518a81526001600160a01b039091166020820152999a8b9a8995948c94929390929161044d918d91869060008051602061276b833981519152908060408101610241565b80915515610496575b5050505460081c16801560001461048157505050839283926001849301541682821561027b57f15080f35b919550939192600161029694015416906126cd565b60ff1916600617835560008051602061272b8339815191528280a3873880610456565b505163e2bc376b60e01b8152fd5b509134610311576020366003190112610311578035906104e6826121a4565b506005810154421061060c57600a81019081549260ff841660078110156105f9576105eb576002820180549087905560ff19909416600617928390556001600160a01b039260081c8316806105a857505094826105878388888080808b9a60008051602061276b8339815191529a829f600101541682821561059f575bf1505b5493519283529092166001600160a01b031660208201529081906040820190565b0390a260008051602061272b8339815191528280a380f35b506108fc610563565b846105ba9185600186015416906126cd565b156105dd575094839261058760008051602061276b833981519152938798610566565b865163022e258160e11b8152fd5b8651634e22597f60e11b8152fd5b634e487b7160e01b875260218252602487fd5b5083516302eb354360e41b8152fd5b50829034610371576020366003190112610371578254823592906001600160a01b03163303610680575090606060008051602061274b833981519152928260065560055492815193845260208401528201528061067a6060820161224e565b0390a180f35b905163c383977560e01b8152fd5b5034610311576020366003190112610311578235906106ac826121a4565b509060ff600a8301541660078110156108a7578503610898576106d36009830154426121fc565b600554116108895750918281946008600195019183835493556106f5856121a4565b5091868060a01b039283815416848983015416908788809581956107188d6121a4565b506002810154906003810154998c600a600784015493015460081c161560001461086b575091846107558b610750600a958497612241565b6121fc565b9a945b8160028401558160038401558201558260078201558260088201550197600660ff198a5416178955858115801561084a575b505050508481158015610829575b5050505080610811575b505084826107f9575b5050505082159283156107d2575b505050508060008051602061272b83398151915291a380f35b849384938885940154169083906107f0575bf15082388080806107b9565b506108fc6107e4565b610807935460081c166126cd565b50388080846107ab565b6108219187865460081c166126cd565b5038806107a2565b8392839283928390610841575bf15088388481610798565b506108fc610836565b8392839283928390610862575bf1508138858161078a565b506108fc610857565b9398508995509184610882600a939b82959c6121fc565b9699610758565b51634799187b60e01b81528490fd5b51638225aba560e01b81528490fd5b634e487b7160e01b855260218652602485fd5b50829034610371576020366003190112610371576001600160a01b0382358181169391929084900361036d5784549233908416036103605750506001600160a01b03191617815580f35b50346103115760a0366003190112610311578235610920612178565b604435916064356001600160401b038111610a60576109429036908801612070565b9161094b6120d2565b6001600160a01b038281168852600960205286882054909591908411610a50576109778430338661263d565b15610a4057600582916109886121d9565b5080546001600160a01b0319908116331782556001820180549091169990921698891790915560028101869055600a81018054610100600160a81b031916600887901b610100600160a81b03161790550155600754600019810197908811610a2d575060209750917fb96ca2c0c34e2ad6384277748b8101f4bddc3cbeaad7086e59cd315bd19aa8c591610a24889488519384933398856122e0565b0390a451908152f35b634e487b7160e01b815260118952602490fd5b865163022e258160e11b81528990fd5b8651631d9c3dff60e31b81528990fd5b8580fd5b508234610371578160031936011261037157610a7e61218e565b83546001600160a01b03929083163303610aa5575016825260096020526024359082205580f35b835163c383977560e01b8152fd5b50829034610371576020366003190112610371578254823592906001600160a01b03163303610680575090606060008051602061274b8339815191529282600555600654815193845260208401528201528061067a6060820161224e565b508234610371576003198281360112610c22576001600160401b038235818111610a6057610b429036908501612070565b90602435908111610a6057610b5a9036908501612070565b85549091906001600160a01b039081163303610c125790610bb187602094936003541692610bc08951978896879586946312a6505d60e21b865260608d870152866064870152608060248701526084860190612122565b91848303016044850152612122565b03925af1928315610c0957508392610bd757505580f35b9091506020813d602011610c01575b81610bf36020938361201e565b810103126103715751905580f35b3d9150610be6565b513d85823e3d90fd5b855163c383977560e01b81528590fd5b8380fd5b50346103115781600319360112610311576020906005549051908152f35b503461031157610c5336612162565b610c5e8293926121a4565b50600a8101805460ff8116926007841015610e1957831580610e0b575b610dfb576003841015610deb5788600292838301548711610ddc578690426009850155600196878114600014610d3257505082546001600160a01b031633039150610d22905057600301849055815460ff1916179055905b8251916003811015610d0f577f10c8b22b69e324b0227c6adfa65183c771304c11385423e93ce99779a7483dbf9495965082526020820152a280f35b634e487b7160e01b865260218752602486fd5b855163e2bc376b60e01b81528990fd5b9496949293928703610d75575050808301546001600160a01b03163303610d665701849055815460ff191617905590610cd3565b508551635800797f60e11b8152fd5b8254949694919390916001600160a01b03903390821603610da65750505060030155815460ff191617905590610cd3565b909291935086829795970154163314600014610dcd570185905560ff191617905590610cd3565b50865163351c18ff60e21b8152fd5b5086516305aafecf60e01b8152fd5b8551630d71592960e31b81528990fd5b85516338e5e54b60e21b81528990fd5b506005810154421015610c7b565b634e487b7160e01b885260218952602488fd5b503461031157816003193601126103115760035490516001600160a01b039091168152602090f35b503461031157602036600319011261031157823560075481101561037157610e7b906121a4565b5090600160a01b60019003918281541693836001830154169160028101546003820154888301546005840154600685015491600786015493600887015495600988015497600a01549a60ff8c169a81519e8f908152602001528d015260608c015260808b015260a08a015260c089015260e08801526101008701526101208601526007821015610f1d5750610180945061014084015260081c16610160820152f35b634e487b7160e01b815260218652602490fd5b5082903461037157602036600319011261037157813590610f50826121a4565b50600a81019182549060ff821660078110156110a5576001810361105d575082546001600160a01b0316330361104e575090859185820154915b6006600282019285610f9d8686546121fc565b94556003830186905588830186905560ff19161780865560081c6001600160a01b03908116959092908661101f575084955091600182868080808099979887829a5416828215611016575bf15001541682821561100d575bf1505b60008051602061272b8339815191528380a380f35b506108fc610ff5565b506108fc610fe8565b82949550611038849261104898846001965416906126cd565b505460081c1692015416906126cd565b50610ff8565b5163e2bc376b60e01b81528590fd5b6002036110965760018301546001600160a01b031633036110875750908591600382015491610f8a565b51635800797f60e11b81528590fd5b51630a7b6ec160e01b81528590fd5b634e487b7160e01b885260218752602488fd5b5082346103715781600319360112610371576024359260038410156110fd57506080926110e59135612312565b92939091815194855260208501528301526060820152f35b80fd5b50823461037157826003193601126103715760209250549051908152f35b503461031157816003193601126103115760015490516001600160a01b039091168152602090f35b50346103115760c0366003190112610311578235611162612178565b604435906064356001600160401b038111610a60576111849036908801612070565b61118c6120d2565b9260a4359460018060a01b038087168097036112a25780851689526009602052878920548211611292576111c28230338861263d565b1561128257600583916111d36121d9565b5080546001600160a01b03199081169290991691821781556001810180549099168a1790985560028801849055600a88018054610100600160a81b031916600889901b610100600160a81b031617905596015560075460001981019890891161126f57506020985091610a248894927fb96ca2c0c34e2ad6384277748b8101f4bddc3cbeaad7086e59cd315bd19aa8c5948951948594856122e0565b634e487b7160e01b815260118a52602490fd5b875163022e258160e11b81528a90fd5b8751631d9c3dff60e31b81528a90fd5b8880fd5b5082346103715760203660031901126103715780356001600160a01b03818116939184900361036d578454163303610360575050600380546001600160a01b03191691909117905580f35b50346103115781600319360112610311576020906006549051908152f35b508290602080600319360112610c225782359161132b836121a4565b50600a81019060ff8254166007811015806114ed576001821491821590816114de575b82826114ba575b50506114aa576110a55780611492575b6114825760018101546001600160a01b03969087163303611474576008820196611390348954612241565b8098556001541696858551809963f7434ea960e01b8252828583015281806113ba6024820161224e565b03915afa97881561146a57899861143b575b50871161142d57504260098201556007015485111561141d577fc74b9f7dedf2887cd3c113b6d8da9cea19e55c1116e25f1f0e1b72d7543179b5939450600360ff198254161790555160018152a280f35b5050509061142a91612438565b80f35b835163818d938f60e01b8152fd5b9097508581813d8311611463575b611453818361201e565b810103126112a2575196896113cc565b503d611449565b85513d8b823e3d90fd5b8351635800797f60e11b8152fd5b8251630627cd6b60e01b81528690fd5b506114a16009820154426121fc565b60065411611365565b845163365105ef60e11b81528890fd5b9091506114cb578814158a82611355565b634e487b7160e01b8a526021895260248afd5b8a92506002811415915061134e565b634e487b7160e01b895260218852602489fd5b50913461031157602090816003193601126103715780356001600160401b039182821161036d573660238301121561036d578181013592831161036d576024903660248585010111610a605785546001600160a01b031633036116c457506115696002546120e8565b601f8111611680575b508490601f84116001146115fd5750918060248697938260809660008051602061274b83398151915299916115f0575b508360011b906000198560031b1c1916176002555b6060600554956006548151998a98895288015286015282606086015201848401378181018301869052601f01601f19168101030190a180f35b83915082010135386115a2565b90601f198416600287528587209287905b82821061166557505060008051602061274b8339815191529697938593849360809760249410611649575b5050600183811b016002556115b7565b8201830135600019600386901b60f8161c191690553880611639565b909293876001819284888a010135815501950193019061160e565b60028652848620601f850160051c8101918686106116ba575b601f0160051c01905b8181106116af5750611572565b8681556001016116a2565b9091508190611699565b865163c383977560e01b8152fd5b5034610311576116e136612162565b6001549092916001600160a01b03918216338190036118a05760028511611890578186526008602052838620549360ff600a61171c876121a4565b500154166007811015610e19576005036118815760207f394027a5fa6e098a1191094d1719d6929b9abc535fcc0c8f448d6a4e756222769151878152a360038260008051602061272b8339815191528680a3611777826121a4565b509281845416908260018601541693600382101561186e57958097816117a18194600a999a612312565b9a929b919690948160028401558160038401558201558260078201558260088201550198600660ff198b5416178a55858115801561184d575b50505050858115801561182c575b5050505080611814575b5050826117fd578480f35b61180b935460081c166126cd565b50388080808480f35b6118249183875460081c166126cd565b5038806117f2565b8392839283928390611844575bf150863885816117e8565b506108fc611839565b8392839283928390611865575bf150813885816117da565b506108fc61185a565b634e487b7160e01b875260218852602487fd5b5163f10068b560e01b81528790fd5b83516309efd47960e41b81528790fd5b8351630955f84760e31b81528790fd5b5082346103715760203660031901126103715760209282913581526008845220549051908152f35b50346103115781600319360112610311576020906007549051908152f35b50346103115781600319360112610311576020905160028152f35b508290602080600319360112610c225782359161192d836121a4565b5093600a85019060ff825416600781101580611ace57600182141580611ae1575b8181611abd575b50611aad57611a9a5760021480611a82575b611a745785546001600160a01b03969087163303611a6557600781019661198f348954612241565b8098556001541696858551809963f7434ea960e01b8252828683015281806119b96024820161224e565b03915afa97881561146a578998611a36575b508711611a275742600982015560080154861115611a19577fc74b9f7dedf2887cd3c113b6d8da9cea19e55c1116e25f1f0e1b72d7543179b594955060ff198254161790555160028152a280f35b505050509061142a91612438565b508251631a48f3db60e11b8152fd5b9097508581813d8311611a5e575b611a4e818361201e565b810103126112a2575196896119cb565b503d611a44565b50825163e2bc376b60e01b8152fd5b8251630627cd6b60e01b8152fd5b50611a916009870154426121fc565b60065411611967565b634e487b7160e01b885260218252602488fd5b845163376af24960e21b81528390fd5b9050611ace57600382141581611955565b634e487b7160e01b895260218352602489fd5b505087600282141561194e565b5060603660031901126103115782356024356001600160401b038111610c2257611b1b9036908601612070565b611b236120bc565b918480526009602052838520543411611be657806005611b416121d9565b5080546001600160a01b0319908116331782556001820180549091166001600160a01b03979097169687179055346002820155600a81018054610100600160a81b03191690550155600754600019810195908611611bd35750602095507f0a7ca50c43ec865fdc8519822762f88432e18409024b9c036d6507b9c8f79d80610a2486928651918291339634908461221f565b634e487b7160e01b815260118752602490fd5b8351631d9c3dff60e31b81528690fd5b503461031157602036600319011261031157823590611c14826121a4565b509060ff600a8301541660078110156108a757600303611dfe57611c3c6009830154426121fc565b60055411610889575091828194600760029501918383549355611c5e856121a4565b50805460018201546001600160a01b039487938493928716928716918491829190611c888d6121a4565b50978e890154838a0154918c600a60088d01549c015460081c161592801515600014611df657925b15611dd857509184611ccf83611cc9600a9584976121fc565b9c612241565b945b600282908401558160038401558201558260078201558260088201550197600660ff198a54161789558581158015611db7575b505050508481158015611d96575b5050505080611d7e575b50508482611d66575b505050508215928315611d4b57505050508060008051602061272b83398151915291a380f35b84938493849354169083906107f057f15082388080806107b9565b611d74935460081c166126cd565b5038808084611d25565b611d8e9187865460081c166126cd565b503880611d1c565b8392839283928390611dae575bf15088388481611d12565b506108fc611da3565b8392839283928390611dcf575bf15081388581611d04565b506108fc611dc4565b999550819398509184611dee600a9382956121fc565b969499611cd1565b508192611cb0565b51635ed7670b60e11b81528490fd5b5090346110fd57806003193601126110fd578151918282600254611e30816120e8565b9081845260209560019187600182169182600014611eb6575050600114611e78575b505050611e749291611e6591038561201e565b51928284938452830190612122565b0390f35b9190869350600283528383205b828410611e9e5750505082010181611e65611e74611e52565b8054848a018601528895508794909301928101611e85565b60ff19168782015293151560051b86019093019350849250611e659150611e749050611e52565b5034610311578160031936011261031157905490516001600160a01b039091168152602090f35b5060803660031901126103115782356024356001600160401b038111610c2257611f319036908601612070565b90611f3a6120bc565b906064359260018060a01b0380851680950361201a57868052600960205285872054341161200a5760058391611f6e6121d9565b508054969091166001600160a01b0319968716811782556001820180549097168817909655346002820155600a81018054610100600160a81b03191690550155600754600019810196908711611ff757506020965085917f0a7ca50c43ec865fdc8519822762f88432e18409024b9c036d6507b9c8f79d8091610a24875192839234908461221f565b634e487b7160e01b815260118852602490fd5b8551631d9c3dff60e31b81528890fd5b8680fd5b90601f801991011681019081106001600160401b0382111761203f57604052565b634e487b7160e01b600052604160045260246000fd5b6001600160401b03811161203f57601f01601f191660200190565b81601f820112156120b75780359061208782612055565b92612095604051948561201e565b828452602083830101116120b757816000926020809301838601378301015290565b600080fd5b604435906001600160a01b03821682036120b757565b608435906001600160a01b03821682036120b757565b90600182811c92168015612118575b602083101461210257565b634e487b7160e01b600052602260045260246000fd5b91607f16916120f7565b919082519283825260005b84811061214e575050826000602080949584010152601f8019910116010190565b60208183018101518483018201520161212d565b60409060031901126120b7576004359060243590565b602435906001600160a01b03821682036120b757565b600435906001600160a01b03821682036120b757565b6007548110156121c3576007600052600b602060002091020190600090565b634e487b7160e01b600052603260045260246000fd5b600754600160401b81101561203f578060016121f892016007556121a4565b9091565b9190820391821161220957565b634e487b7160e01b600052601160045260246000fd5b61223760409295949395606083526060830190612122565b9460208201520152565b9190820180921161220957565b6002546000929161225e826120e8565b908181526020926001906001811690816000146122c35750600114612284575b50505050565b929394509060026000528360002092846000945b8386106122af57505050500101903880808061227e565b805485870183015294019385908201612298565b60ff191685840152505090151560051b010191503880808061227e565b90926122f9606093969594608084526080840190612122565b6001600160a01b03909616602083015260408201520152565b91600092600092838061232582946121a4565b50926002840154936003810154986004820154600783015495600884015493600a60018060a01b0391015460081c1615946003811015612424576001810361239a5750505050506000146123865750610750612382928792612241565b9391565b93925085945094612396916121fc565b9290565b939b5093969591945092916002036123f157505080156123e957925b156123d35750906123ca816123d0936121fc565b95612241565b91565b95945081939250906123e4916121fc565b929190565b5081926123b6565b93985050505060011c8095819060011c926000146124185750906123ca816123d093612241565b93925094508093509290565b634e487b7160e01b82526021600452602482fd5b90612442826121a4565b50600a8101805460ff191660051790556001546040805163c13517e160e01b815260026004820152602481018290526001600160a01b0395602093919290918490849089168189816124966044820161224e565b03925af19283156125ea5760009361259b575b507f8bd32f430ff060e6bd204709b3790c9807987263d3230c580dc80b5f89e27186916060608092600688019580875560005260088752828160002055896001541695549660045490825194855284015282015260006060820152a36007810180549083808311612567575b505050600881019182549281841161252f575b5050505050565b60009460018695948461254588979688976121fc565b945501541682821561255e575bf1503880808080612528565b506108fc612552565b60008093928261257a83959484956121fc565b915587865416828215612592575bf150388083612515565b506108fc612588565b9092508381813d83116125e3575b6125b3818361201e565b810103126120b75751917f8bd32f430ff060e6bd204709b3790c9807987263d3230c580dc80b5f89e271866124a9565b503d6125a9565b50513d6000823e3d90fd5b3d15612620573d9061260682612055565b91612614604051938461201e565b82523d6000602084013e565b606090565b908160209103126120b7575180151581036120b75790565b9060018060a01b039384604051948160208701946323b872dd60e01b865216602487015216604485015260648401526064835260a083018381106001600160401b0382111761203f57600094859485926040525193165af161269d6125f5565b816126a6575090565b80518015925082156126b757505090565b6126ca9250602080918301019101612625565b90565b60405163a9059cbb60e01b602082019081526001600160a01b0393841660248301526044808301959095529381529192608083016001600160401b0381118482101761203f57600094859485926040525193165af161269d6125f556fe89e6168584e1de3ec704ff46376271b5481b0d9b2b0ef0ae102f0d001093e000f0d0a0b363c32316c3e6e7e797bbc126af09c634db439ed65a3f96afe7ae2367d1432ca9a38d944f01b256a411861b109bc4bfe200c40d7144e919a16b86a8a8a26469706673582212205b2f8a11e2887439a1f7713cbd67d4ed2d8739faa61061ca66daa3e5c240117964736f6c63430008180033f0d0a0b363c32316c3e6e7e797bbc126af09c634db439ed65a3f96afe7ae2367",
  "devdoc": {
    "details": "Version of Escrow that allows to specify a buyer when transaction is created.",
    "events": {
      "DisputeRequest(address,uint256,uint256,uint256,string)": {
        "details": "To be emitted when a dispute is created to link the correct meta-evidence to the disputeID.",
        "params": {
          "_arbitrator": "The arbitrator of the contract.",
          "_arbitratorDisputeID": "The identifier of the dispute in the Arbitrator contract.",
          "_externalDisputeID": "An identifier created outside Kleros by the protocol requesting arbitration.",
          "_templateId": "The identifier of the dispute template. Should not be used with _templateUri.",
          "_templateUri": "The URI to the dispute template. For example on IPFS: starting with '/ipfs/'. Should not be used with _templateId."
        }
      },
      "ERC20TransactionCreated(uint256,string,address,address,address,uint256,uint256)": {
        "details": "Emitted when a transaction paid in ERC20 token is created.",
        "params": {
          "_amount": "The initial amount in the transaction.",
          "_buyer": "The address of the buyer.",
          "_deadline": "The deadline of the transaction.",
          "_seller": "The address of the seller.",
          "_token": "The token address.",
          "_transactionID": "The index of the transaction.",
          "_transactionUri": "The IPFS Uri Hash of the transaction."
        }
      },
      "HasToPayFee(uint256,uint8)": {
        "details": "Indicate that a party has to pay a fee or would otherwise be considered as losing.",
        "params": {
          "_party": "The party who has to pay.",
          "_transactionID": "The index of the transaction."
        }
      },
      "NativeTransactionCreated(uint256,string,address,address,uint256,uint256)": {
        "details": "Emitted when a transaction paid in native currency is created.",
        "params": {
          "_amount": "The initial amount in the transaction.",
          "_buyer": "The address of the buyer.",
          "_deadline": "The deadline of the transaction.",
          "_seller": "The address of the seller.",
          "_transactionID": "The index of the transaction.",
          "_transactionUri": "The IPFS Uri Hash of the transaction."
        }
      },
      "ParameterUpdated(uint256,uint256,bytes)": {
        "details": "To be emitted when Escrow parameters are updated."
      },
      "Payment(uint256,uint256,address)": {
        "details": "To be emitted when a party pays or reimburses the other.",
        "params": {
          "_amount": "The amount paid.",
          "_party": "The party that paid.",
          "_transactionID": "The index of the transaction."
        }
      },
      "Ruling(address,uint256,uint256)": {
        "details": "To be raised when a ruling is given.",
        "params": {
          "_arbitrator": "The arbitrator giving the ruling.",
          "_disputeID": "The identifier of the dispute in the Arbitrator contract.",
          "_ruling": "The ruling which was given."
        }
      },
      "SettlementProposed(uint256,uint8,uint256)": {
        "details": "Emitted when a party proposes a settlement.",
        "params": {
          "_amount": "The amount proposed.",
          "_party": "The party that proposed a settlement.",
          "_transactionID": "The index of the transaction."
        }
      },
      "TransactionResolved(uint256,uint8)": {
        "details": "To be emitted when a transaction is resolved, either by its      execution, a timeout or because a ruling was enforced.",
        "params": {
          "_resolution": "Short description of what caused the transaction to be solved.",
          "_transactionID": "The ID of the respective transaction."
        }
      }
    },
    "kind": "dev",
    "methods": {
      "acceptSettlement(uint256)": {
        "details": "Accept a settlement proposed by the other party.",
        "params": {
          "_transactionID": "The index of the transaction."
        }
      },
      "constructor": {
        "details": "Constructor.",
        "params": {
          "_arbitrator": "The arbitrator of the contract.",
          "_arbitratorExtraData": "Extra data for the arbitrator.",
          "_feeTimeout": "Arbitration fee timeout for the parties.",
          "_settlementTimeout": "Settlement timeout for the parties.",
          "_templateData": "The dispute template data.",
          "_templateDataMappings": "The dispute template data mappings.",
          "_templateRegistry": "The dispute template registry."
        }
      },
      "createERC20Transaction(uint256,address,uint256,string,address)": {
        "details": "Create a transaction.",
        "params": {
          "_amount": "The amount of tokens in this transaction.",
          "_deadline": "Time after which a party can automatically execute the arbitrable transaction.",
          "_seller": "The recipient of the transaction.",
          "_token": "The ERC20 token contract.",
          "_transactionUri": "The IPFS Uri Hash of the transaction."
        },
        "returns": {
          "transactionID": "The index of the transaction."
        }
      },
      "createERC20TransactionCustomBuyer(uint256,address,uint256,string,address,address)": {
        "details": "Create an ERC20 transaction with custom buyer address.",
        "params": {
          "_amount": "The amount of tokens in this transaction.",
          "_buyer": "Buyer's address.",
          "_deadline": "Time after which a party can automatically execute the arbitrable transaction.",
          "_seller": "The recipient of the transaction.",
          "_token": "The ERC20 token contract.",
          "_transactionUri": "The IPFS Uri Hash of the transaction."
        },
        "returns": {
          "transactionID": "The index of the transaction."
        }
      },
      "createNativeTransaction(uint256,string,address)": {
        "details": "Create a transaction.",
        "params": {
          "_deadline": "Time after which a party can automatically execute the arbitrable transaction.",
          "_seller": "The recipient of the transaction.",
          "_transactionUri": "The IPFS Uri Hash of the transaction."
        },
        "returns": {
          "transactionID": "The index of the transaction."
        }
      },
      "createNativeTransactionCustomBuyer(uint256,string,address,address)": {
        "details": "Create a native transaction with custom buyer.",
        "params": {
          "_buyer": "Buyer's address.",
          "_deadline": "Time after which a party can automatically execute the arbitrable transaction.",
          "_seller": "The recipient of the transaction.",
          "_transactionUri": "The IPFS Uri Hash of the transaction."
        },
        "returns": {
          "transactionID": "The index of the transaction."
        }
      },
      "executeTransaction(uint256)": {
        "details": "Transfer the transaction's amount to the seller if the timeout has passed.",
        "params": {
          "_transactionID": "The index of the transaction."
        }
      },
      "getPayouts(uint256,uint8)": {
        "details": "Get the payout depending on the winning party.The cost for the buyer is the seller payout non-inclusive of any arbitration fees.",
        "params": {
          "_transactionID": "The index of the transaction.",
          "_winningParty": "The winning party."
        },
        "returns": {
          "buyerPayout": "The payout for the buyer.",
          "buyerPayoutToken": "The payout for the buyer in tokens.",
          "sellerPayout": "The payout for the seller.",
          "sellerPayoutToken": "The payout for the seller in tokens."
        }
      },
      "getTransactionCount()": {
        "details": "Getter to know the count of transactions.",
        "returns": {
          "_0": "The count of transactions."
        }
      },
      "pay(uint256,uint256)": {
        "details": "Pay seller. To be called if the good or service is provided.",
        "params": {
          "_amount": "Amount to pay in wei.",
          "_transactionID": "The index of the transaction."
        }
      },
      "payArbitrationFeeByBuyer(uint256)": {
        "details": "Pay the arbitration fee to raise a dispute. To be called by the buyer. Note that it can only be called after settlement proposition. Also note that the arbitrator can have createDispute throw, which will make      this function throw and therefore lead to a party being timed-out.      This is not a vulnerability as the arbitrator can rule in favor of one party anyway.",
        "params": {
          "_transactionID": "The index of the transaction."
        }
      },
      "payArbitrationFeeBySeller(uint256)": {
        "details": "Pay the arbitration fee to raise a dispute. To be called by the seller. Note that this function mirrors payArbitrationFeeByBuyer.",
        "params": {
          "_transactionID": "The index of the transaction."
        }
      },
      "proposeSettlement(uint256,uint256)": {
        "details": "Propose a settlement as a compromise from the initial terms to the other party.  Note that a party can only propose a settlement again after the other party has  done so as well to prevent front running/griefing issues.",
        "params": {
          "_amount": "The settlement amount.",
          "_transactionID": "The index of the transaction."
        }
      },
      "reimburse(uint256,uint256)": {
        "details": "Reimburse buyer. To be called if the good or service can't be fully provided.",
        "params": {
          "_amountReimbursed": "Amount to reimburse in wei.",
          "_transactionID": "The index of the transaction."
        }
      },
      "rule(uint256,uint256)": {
        "details": "Give a ruling for a dispute.      Must be called by the arbitrator.      The purpose of this function is to ensure that the address calling it has the right to rule on the contract.",
        "params": {
          "_disputeID": "The identifier of the dispute in the Arbitrator contract.",
          "_ruling": "Ruling given by the arbitrator. Note that 0 is reserved for \"Not able/wanting to make a decision\"."
        }
      },
      "timeOutByBuyer(uint256)": {
        "details": "Reimburse buyer if seller fails to pay the fee.",
        "params": {
          "_transactionID": "The index of the transaction."
        }
      },
      "timeOutBySeller(uint256)": {
        "details": "Pay seller if buyer fails to pay the fee.",
        "params": {
          "_transactionID": "The index of the transaction."
        }
      }
    },
    "title": "EscrowCustomBuyer.",
    "version": 1
  },
  "userdoc": {
    "kind": "user",
    "methods": {},
    "version": 1
  },
  "storageLayout": {
    "storage": [
      {
        "astId": 480,
        "contract": "src/EscrowCustomBuyer.sol:EscrowCustomBuyer",
        "label": "governor",
        "offset": 0,
        "slot": "0",
        "type": "t_address"
      },
      {
        "astId": 483,
        "contract": "src/EscrowCustomBuyer.sol:EscrowCustomBuyer",
        "label": "arbitrator",
        "offset": 0,
        "slot": "1",
        "type": "t_contract(IArbitratorV2)134"
      },
      {
        "astId": 485,
        "contract": "src/EscrowCustomBuyer.sol:EscrowCustomBuyer",
        "label": "arbitratorExtraData",
        "offset": 0,
        "slot": "2",
        "type": "t_bytes_storage"
      },
      {
        "astId": 488,
        "contract": "src/EscrowCustomBuyer.sol:EscrowCustomBuyer",
        "label": "templateRegistry",
        "offset": 0,
        "slot": "3",
        "type": "t_contract(IDisputeTemplateRegistry)160"
      },
      {
        "astId": 490,
        "contract": "src/EscrowCustomBuyer.sol:EscrowCustomBuyer",
        "label": "templateId",
        "offset": 0,
        "slot": "4",
        "type": "t_uint256"
      },
      {
        "astId": 492,
        "contract": "src/EscrowCustomBuyer.sol:EscrowCustomBuyer",
        "label": "feeTimeout",
        "offset": 0,
        "slot": "5",
        "type": "t_uint256"
      },
      {
        "astId": 494,
        "contract": "src/EscrowCustomBuyer.sol:EscrowCustomBuyer",
        "label": "settlementTimeout",
        "offset": 0,
        "slot": "6",
        "type": "t_uint256"
      },
      {
        "astId": 498,
        "contract": "src/EscrowCustomBuyer.sol:EscrowCustomBuyer",
        "label": "transactions",
        "offset": 0,
        "slot": "7",
        "type": "t_array(t_struct(Transaction)2688_storage)dyn_storage"
      },
      {
        "astId": 502,
        "contract": "src/EscrowCustomBuyer.sol:EscrowCustomBuyer",
        "label": "disputeIDtoTransactionID",
        "offset": 0,
        "slot": "8",
        "type": "t_mapping(t_uint256,t_uint256)"
      },
      {
        "astId": 507,
        "contract": "src/EscrowCustomBuyer.sol:EscrowCustomBuyer",
        "label": "amountCaps",
        "offset": 0,
        "slot": "9",
        "type": "t_mapping(t_contract(IERC20)238,t_uint256)"
      }
    ],
    "types": {
      "t_address": {
        "encoding": "inplace",
        "label": "address",
        "numberOfBytes": "20"
      },
      "t_address_payable": {
        "encoding": "inplace",
        "label": "address payable",
        "numberOfBytes": "20"
      },
      "t_array(t_struct(Transaction)2688_storage)dyn_storage": {
        "base": "t_struct(Transaction)2688_storage",
        "encoding": "dynamic_array",
        "label": "struct Transaction[]",
        "numberOfBytes": "32"
      },
      "t_bytes_storage": {
        "encoding": "bytes",
        "label": "bytes",
        "numberOfBytes": "32"
      },
      "t_contract(IArbitratorV2)134": {
        "encoding": "inplace",
        "label": "contract IArbitratorV2",
        "numberOfBytes": "20"
      },
      "t_contract(IDisputeTemplateRegistry)160": {
        "encoding": "inplace",
        "label": "contract IDisputeTemplateRegistry",
        "numberOfBytes": "20"
      },
      "t_contract(IERC20)238": {
        "encoding": "inplace",
        "label": "contract IERC20",
        "numberOfBytes": "20"
      },
      "t_enum(Status)2655": {
        "encoding": "inplace",
        "label": "enum Status",
        "numberOfBytes": "1"
      },
      "t_mapping(t_contract(IERC20)238,t_uint256)": {
        "encoding": "mapping",
        "key": "t_contract(IERC20)238",
        "label": "mapping(contract IERC20 => uint256)",
        "numberOfBytes": "32",
        "value": "t_uint256"
      },
      "t_mapping(t_uint256,t_uint256)": {
        "encoding": "mapping",
        "key": "t_uint256",
        "label": "mapping(uint256 => uint256)",
        "numberOfBytes": "32",
        "value": "t_uint256"
      },
      "t_struct(Transaction)2688_storage": {
        "encoding": "inplace",
        "label": "struct Transaction",
        "members": [
          {
            "astId": 2663,
            "contract": "src/EscrowCustomBuyer.sol:EscrowCustomBuyer",
            "label": "buyer",
            "offset": 0,
            "slot": "0",
            "type": "t_address_payable"
          },
          {
            "astId": 2665,
            "contract": "src/EscrowCustomBuyer.sol:EscrowCustomBuyer",
            "label": "seller",
            "offset": 0,
            "slot": "1",
            "type": "t_address_payable"
          },
          {
            "astId": 2667,
            "contract": "src/EscrowCustomBuyer.sol:EscrowCustomBuyer",
            "label": "amount",
            "offset": 0,
            "slot": "2",
            "type": "t_uint256"
          },
          {
            "astId": 2669,
            "contract": "src/EscrowCustomBuyer.sol:EscrowCustomBuyer",
            "label": "settlementBuyer",
            "offset": 0,
            "slot": "3",
            "type": "t_uint256"
          },
          {
            "astId": 2671,
            "contract": "src/EscrowCustomBuyer.sol:EscrowCustomBuyer",
            "label": "settlementSeller",
            "offset": 0,
            "slot": "4",
            "type": "t_uint256"
          },
          {
            "astId": 2673,
            "contract": "src/EscrowCustomBuyer.sol:EscrowCustomBuyer",
            "label": "deadline",
            "offset": 0,
            "slot": "5",
            "type": "t_uint256"
          },
          {
            "astId": 2675,
            "contract": "src/EscrowCustomBuyer.sol:EscrowCustomBuyer",
            "label": "disputeID",
            "offset": 0,
            "slot": "6",
            "type": "t_uint256"
          },
          {
            "astId": 2677,
            "contract": "src/EscrowCustomBuyer.sol:EscrowCustomBuyer",
            "label": "buyerFee",
            "offset": 0,
            "slot": "7",
            "type": "t_uint256"
          },
          {
            "astId": 2679,
            "contract": "src/EscrowCustomBuyer.sol:EscrowCustomBuyer",
            "label": "sellerFee",
            "offset": 0,
            "slot": "8",
            "type": "t_uint256"
          },
          {
            "astId": 2681,
            "contract": "src/EscrowCustomBuyer.sol:EscrowCustomBuyer",
            "label": "lastFeePaymentTime",
            "offset": 0,
            "slot": "9",
            "type": "t_uint256"
          },
          {
            "astId": 2684,
            "contract": "src/EscrowCustomBuyer.sol:EscrowCustomBuyer",
            "label": "status",
            "offset": 0,
            "slot": "10",
            "type": "t_enum(Status)2655"
          },
          {
            "astId": 2687,
            "contract": "src/EscrowCustomBuyer.sol:EscrowCustomBuyer",
            "label": "token",
            "offset": 1,
            "slot": "10",
            "type": "t_contract(IERC20)238"
          }
        ],
        "numberOfBytes": "352"
      },
      "t_uint256": {
        "encoding": "inplace",
        "label": "uint256",
        "numberOfBytes": "32"
      }
    }
  }
}