{
  "address": "0x11aB737EDB1c6b181919a95ccD07c8DAA3e8E687",
  "abi": [
    {
      "inputs": [
        {
          "internalType": "contract IArbitratorV2",
          "name": "_arbitrator",
          "type": "address"
        },
        {
          "internalType": "bytes",
          "name": "_arbitratorExtraData",
          "type": "bytes"
        },
        {
          "internalType": "string",
          "name": "_templateData",
          "type": "string"
        },
        {
          "internalType": "string",
          "name": "_templateDataMappings",
          "type": "string"
        },
        {
          "internalType": "contract IDisputeTemplateRegistry",
          "name": "_templateRegistry",
          "type": "address"
        },
        {
          "internalType": "uint256",
          "name": "_feeTimeout",
          "type": "uint256"
        },
        {
          "internalType": "uint256",
          "name": "_settlementTimeout",
          "type": "uint256"
        }
      ],
      "stateMutability": "nonpayable",
      "type": "constructor"
    },
    {
      "inputs": [],
      "name": "AmountExceedsCap",
      "type": "error"
    },
    {
      "inputs": [],
      "name": "ArbitratorOnly",
      "type": "error"
    },
    {
      "inputs": [],
      "name": "BuyerFeeNotCoverArbitrationCosts",
      "type": "error"
    },
    {
      "inputs": [],
      "name": "BuyerOnly",
      "type": "error"
    },
    {
      "inputs": [],
      "name": "BuyerOrSellerOnly",
      "type": "error"
    },
    {
      "inputs": [],
      "name": "DeadlineNotPassed",
      "type": "error"
    },
    {
      "inputs": [],
      "name": "DisputeAlreadyResolved",
      "type": "error"
    },
    {
      "inputs": [],
      "name": "GovernorOnly",
      "type": "error"
    },
    {
      "inputs": [],
      "name": "InvalidRuling",
      "type": "error"
    },
    {
      "inputs": [],
      "name": "MaximumPaymentAmountExceeded",
      "type": "error"
    },
    {
      "inputs": [],
      "name": "NoSettlementProposedOrTransactionMovedOnAcceptSettlement",
      "type": "error"
    },
    {
      "inputs": [],
      "name": "NoSettlementProposedOrTransactionMovedOnPayFeeBuyer",
      "type": "error"
    },
    {
      "inputs": [],
      "name": "NoSettlementProposedOrTransactionMovedOnPayFeeSeller",
      "type": "error"
    },
    {
      "inputs": [],
      "name": "NotSupported",
      "type": "error"
    },
    {
      "inputs": [],
      "name": "NotWaitingForBuyerFees",
      "type": "error"
    },
    {
      "inputs": [],
      "name": "NotWaitingForSellerFees",
      "type": "error"
    },
    {
      "inputs": [],
      "name": "SellerFeeNotCoverArbitrationCosts",
      "type": "error"
    },
    {
      "inputs": [],
      "name": "SellerOnly",
      "type": "error"
    },
    {
      "inputs": [],
      "name": "SettlementPeriodNotOver",
      "type": "error"
    },
    {
      "inputs": [],
      "name": "TimeoutNotPassed",
      "type": "error"
    },
    {
      "inputs": [],
      "name": "TokenTransferFailed",
      "type": "error"
    },
    {
      "inputs": [],
      "name": "TransactionDisputed",
      "type": "error"
    },
    {
      "inputs": [],
      "name": "TransactionEscalatedForArbitration",
      "type": "error"
    },
    {
      "inputs": [],
      "name": "TransactionExpired",
      "type": "error"
    },
    {
      "anonymous": false,
      "inputs": [
        {
          "indexed": true,
          "internalType": "contract IArbitratorV2",
          "name": "_arbitrator",
          "type": "address"
        },
        {
          "indexed": true,
          "internalType": "uint256",
          "name": "_arbitrableDisputeID",
          "type": "uint256"
        },
        {
          "indexed": false,
          "internalType": "uint256",
          "name": "_externalDisputeID",
          "type": "uint256"
        },
        {
          "indexed": false,
          "internalType": "uint256",
          "name": "_templateId",
          "type": "uint256"
        },
        {
          "indexed": false,
          "internalType": "string",
          "name": "_templateUri",
          "type": "string"
        }
      ],
      "name": "DisputeRequest",
      "type": "event"
    },
    {
      "anonymous": false,
      "inputs": [
        {
          "indexed": true,
          "internalType": "uint256",
          "name": "_transactionID",
          "type": "uint256"
        },
        {
          "indexed": false,
          "internalType": "string",
          "name": "_transactionUri",
          "type": "string"
        },
        {
          "indexed": true,
          "internalType": "address",
          "name": "_buyer",
          "type": "address"
        },
        {
          "indexed": true,
          "internalType": "address",
          "name": "_seller",
          "type": "address"
        },
        {
          "indexed": false,
          "internalType": "contract IERC20",
          "name": "_token",
          "type": "address"
        },
        {
          "indexed": false,
          "internalType": "uint256",
          "name": "_amount",
          "type": "uint256"
        },
        {
          "indexed": false,
          "internalType": "uint256",
          "name": "_deadline",
          "type": "uint256"
        }
      ],
      "name": "ERC20TransactionCreated",
      "type": "event"
    },
    {
      "anonymous": false,
      "inputs": [
        {
          "indexed": true,
          "internalType": "uint256",
          "name": "_transactionID",
          "type": "uint256"
        },
        {
          "indexed": false,
          "internalType": "enum Party",
          "name": "_party",
          "type": "uint8"
        }
      ],
      "name": "HasToPayFee",
      "type": "event"
    },
    {
      "anonymous": false,
      "inputs": [
        {
          "indexed": true,
          "internalType": "uint256",
          "name": "_transactionID",
          "type": "uint256"
        },
        {
          "indexed": false,
          "internalType": "string",
          "name": "_transactionUri",
          "type": "string"
        },
        {
          "indexed": true,
          "internalType": "address",
          "name": "_buyer",
          "type": "address"
        },
        {
          "indexed": true,
          "internalType": "address",
          "name": "_seller",
          "type": "address"
        },
        {
          "indexed": false,
          "internalType": "uint256",
          "name": "_amount",
          "type": "uint256"
        },
        {
          "indexed": false,
          "internalType": "uint256",
          "name": "_deadline",
          "type": "uint256"
        }
      ],
      "name": "NativeTransactionCreated",
      "type": "event"
    },
    {
      "anonymous": false,
      "inputs": [
        {
          "indexed": false,
          "internalType": "uint256",
          "name": "_feeTimeout",
          "type": "uint256"
        },
        {
          "indexed": false,
          "internalType": "uint256",
          "name": "_settlementTimeout",
          "type": "uint256"
        },
        {
          "indexed": false,
          "internalType": "bytes",
          "name": "_arbitratorExtraData",
          "type": "bytes"
        }
      ],
      "name": "ParameterUpdated",
      "type": "event"
    },
    {
      "anonymous": false,
      "inputs": [
        {
          "indexed": true,
          "internalType": "uint256",
          "name": "_transactionID",
          "type": "uint256"
        },
        {
          "indexed": false,
          "internalType": "uint256",
          "name": "_amount",
          "type": "uint256"
        },
        {
          "indexed": false,
          "internalType": "address",
          "name": "_party",
          "type": "address"
        }
      ],
      "name": "Payment",
      "type": "event"
    },
    {
      "anonymous": false,
      "inputs": [
        {
          "indexed": true,
          "internalType": "contract IArbitratorV2",
          "name": "_arbitrator",
          "type": "address"
        },
        {
          "indexed": true,
          "internalType": "uint256",
          "name": "_disputeID",
          "type": "uint256"
        },
        {
          "indexed": false,
          "internalType": "uint256",
          "name": "_ruling",
          "type": "uint256"
        }
      ],
      "name": "Ruling",
      "type": "event"
    },
    {
      "anonymous": false,
      "inputs": [
        {
          "indexed": true,
          "internalType": "uint256",
          "name": "_transactionID",
          "type": "uint256"
        },
        {
          "indexed": false,
          "internalType": "enum Party",
          "name": "_party",
          "type": "uint8"
        },
        {
          "indexed": false,
          "internalType": "uint256",
          "name": "_amount",
          "type": "uint256"
        }
      ],
      "name": "SettlementProposed",
      "type": "event"
    },
    {
      "anonymous": false,
      "inputs": [
        {
          "indexed": true,
          "internalType": "uint256",
          "name": "_transactionID",
          "type": "uint256"
        },
        {
          "indexed": true,
          "internalType": "enum Resolution",
          "name": "_resolution",
          "type": "uint8"
        }
      ],
      "name": "TransactionResolved",
      "type": "event"
    },
    {
      "inputs": [],
      "name": "AMOUNT_OF_CHOICES",
      "outputs": [
        {
          "internalType": "uint256",
          "name": "",
          "type": "uint256"
        }
      ],
      "stateMutability": "view",
      "type": "function"
    },
    {
      "inputs": [
        {
          "internalType": "uint256",
          "name": "_transactionID",
          "type": "uint256"
        }
      ],
      "name": "acceptSettlement",
      "outputs": [],
      "stateMutability": "nonpayable",
      "type": "function"
    },
    {
      "inputs": [
        {
          "internalType": "contract IERC20",
          "name": "",
          "type": "address"
        }
      ],
      "name": "amountCaps",
      "outputs": [
        {
          "internalType": "uint256",
          "name": "",
          "type": "uint256"
        }
      ],
      "stateMutability": "view",
      "type": "function"
    },
    {
      "inputs": [],
      "name": "arbitrator",
      "outputs": [
        {
          "internalType": "contract IArbitratorV2",
          "name": "",
          "type": "address"
        }
      ],
      "stateMutability": "view",
      "type": "function"
    },
    {
      "inputs": [],
      "name": "arbitratorExtraData",
      "outputs": [
        {
          "internalType": "bytes",
          "name": "",
          "type": "bytes"
        }
      ],
      "stateMutability": "view",
      "type": "function"
    },
    {
      "inputs": [
        {
          "internalType": "contract IERC20",
          "name": "_token",
          "type": "address"
        },
        {
          "internalType": "uint256",
          "name": "_amountCap",
          "type": "uint256"
        }
      ],
      "name": "changeAmountCap",
      "outputs": [],
      "stateMutability": "nonpayable",
      "type": "function"
    },
    {
      "inputs": [
        {
          "internalType": "contract IArbitratorV2",
          "name": "_arbitrator",
          "type": "address"
        }
      ],
      "name": "changeArbitrator",
      "outputs": [],
      "stateMutability": "nonpayable",
      "type": "function"
    },
    {
      "inputs": [
        {
          "internalType": "bytes",
          "name": "_arbitratorExtraData",
          "type": "bytes"
        }
      ],
      "name": "changeArbitratorExtraData",
      "outputs": [],
      "stateMutability": "nonpayable",
      "type": "function"
    },
    {
      "inputs": [
        {
          "internalType": "string",
          "name": "_templateData",
          "type": "string"
        },
        {
          "internalType": "string",
          "name": "_templateDataMappings",
          "type": "string"
        }
      ],
      "name": "changeDisputeTemplate",
      "outputs": [],
      "stateMutability": "nonpayable",
      "type": "function"
    },
    {
      "inputs": [
        {
          "internalType": "uint256",
          "name": "_feeTimeout",
          "type": "uint256"
        }
      ],
      "name": "changeFeeTimeout",
      "outputs": [],
      "stateMutability": "nonpayable",
      "type": "function"
    },
    {
      "inputs": [
        {
          "internalType": "address",
          "name": "_governor",
          "type": "address"
        }
      ],
      "name": "changeGovernor",
      "outputs": [],
      "stateMutability": "nonpayable",
      "type": "function"
    },
    {
      "inputs": [
        {
          "internalType": "uint256",
          "name": "_settlementTimeout",
          "type": "uint256"
        }
      ],
      "name": "changeSettlementTimeout",
      "outputs": [],
      "stateMutability": "nonpayable",
      "type": "function"
    },
    {
      "inputs": [
        {
          "internalType": "contract IDisputeTemplateRegistry",
          "name": "_templateRegistry",
          "type": "address"
        }
      ],
      "name": "changeTemplateRegistry",
      "outputs": [],
      "stateMutability": "nonpayable",
      "type": "function"
    },
    {
      "inputs": [
        {
          "internalType": "uint256",
          "name": "_amount",
          "type": "uint256"
        },
        {
          "internalType": "contract IERC20",
          "name": "_token",
          "type": "address"
        },
        {
          "internalType": "uint256",
          "name": "_deadline",
          "type": "uint256"
        },
        {
          "internalType": "string",
          "name": "_transactionUri",
          "type": "string"
        },
        {
          "internalType": "address payable",
          "name": "_seller",
          "type": "address"
        }
      ],
      "name": "createERC20Transaction",
      "outputs": [
        {
          "internalType": "uint256",
          "name": "transactionID",
          "type": "uint256"
        }
      ],
      "stateMutability": "nonpayable",
      "type": "function"
    },
    {
      "inputs": [
        {
          "internalType": "uint256",
          "name": "_deadline",
          "type": "uint256"
        },
        {
          "internalType": "string",
          "name": "_transactionUri",
          "type": "string"
        },
        {
          "internalType": "address payable",
          "name": "_seller",
          "type": "address"
        }
      ],
      "name": "createNativeTransaction",
      "outputs": [
        {
          "internalType": "uint256",
          "name": "transactionID",
          "type": "uint256"
        }
      ],
      "stateMutability": "payable",
      "type": "function"
    },
    {
      "inputs": [
        {
          "internalType": "uint256",
          "name": "",
          "type": "uint256"
        }
      ],
      "name": "disputeIDtoTransactionID",
      "outputs": [
        {
          "internalType": "uint256",
          "name": "",
          "type": "uint256"
        }
      ],
      "stateMutability": "view",
      "type": "function"
    },
    {
      "inputs": [
        {
          "internalType": "uint256",
          "name": "_transactionID",
          "type": "uint256"
        }
      ],
      "name": "executeTransaction",
      "outputs": [],
      "stateMutability": "nonpayable",
      "type": "function"
    },
    {
      "inputs": [],
      "name": "feeTimeout",
      "outputs": [
        {
          "internalType": "uint256",
          "name": "",
          "type": "uint256"
        }
      ],
      "stateMutability": "view",
      "type": "function"
    },
    {
      "inputs": [
        {
          "internalType": "uint256",
          "name": "_transactionID",
          "type": "uint256"
        },
        {
          "internalType": "enum Party",
          "name": "_winningParty",
          "type": "uint8"
        }
      ],
      "name": "getPayouts",
      "outputs": [
        {
          "internalType": "uint256",
          "name": "buyerPayout",
          "type": "uint256"
        },
        {
          "internalType": "uint256",
          "name": "buyerPayoutToken",
          "type": "uint256"
        },
        {
          "internalType": "uint256",
          "name": "sellerPayout",
          "type": "uint256"
        },
        {
          "internalType": "uint256",
          "name": "sellerPayoutToken",
          "type": "uint256"
        }
      ],
      "stateMutability": "view",
      "type": "function"
    },
    {
      "inputs": [],
      "name": "getTransactionCount",
      "outputs": [
        {
          "internalType": "uint256",
          "name": "",
          "type": "uint256"
        }
      ],
      "stateMutability": "view",
      "type": "function"
    },
    {
      "inputs": [],
      "name": "governor",
      "outputs": [
        {
          "internalType": "address",
          "name": "",
          "type": "address"
        }
      ],
      "stateMutability": "view",
      "type": "function"
    },
    {
      "inputs": [
        {
          "internalType": "uint256",
          "name": "_transactionID",
          "type": "uint256"
        },
        {
          "internalType": "uint256",
          "name": "_amount",
          "type": "uint256"
        }
      ],
      "name": "pay",
      "outputs": [],
      "stateMutability": "nonpayable",
      "type": "function"
    },
    {
      "inputs": [
        {
          "internalType": "uint256",
          "name": "_transactionID",
          "type": "uint256"
        }
      ],
      "name": "payArbitrationFeeByBuyer",
      "outputs": [],
      "stateMutability": "payable",
      "type": "function"
    },
    {
      "inputs": [
        {
          "internalType": "uint256",
          "name": "_transactionID",
          "type": "uint256"
        }
      ],
      "name": "payArbitrationFeeBySeller",
      "outputs": [],
      "stateMutability": "payable",
      "type": "function"
    },
    {
      "inputs": [
        {
          "internalType": "uint256",
          "name": "_transactionID",
          "type": "uint256"
        },
        {
          "internalType": "uint256",
          "name": "_amount",
          "type": "uint256"
        }
      ],
      "name": "proposeSettlement",
      "outputs": [],
      "stateMutability": "nonpayable",
      "type": "function"
    },
    {
      "inputs": [
        {
          "internalType": "uint256",
          "name": "_transactionID",
          "type": "uint256"
        },
        {
          "internalType": "uint256",
          "name": "_amountReimbursed",
          "type": "uint256"
        }
      ],
      "name": "reimburse",
      "outputs": [],
      "stateMutability": "nonpayable",
      "type": "function"
    },
    {
      "inputs": [
        {
          "internalType": "uint256",
          "name": "_disputeID",
          "type": "uint256"
        },
        {
          "internalType": "uint256",
          "name": "_ruling",
          "type": "uint256"
        }
      ],
      "name": "rule",
      "outputs": [],
      "stateMutability": "nonpayable",
      "type": "function"
    },
    {
      "inputs": [],
      "name": "settlementTimeout",
      "outputs": [
        {
          "internalType": "uint256",
          "name": "",
          "type": "uint256"
        }
      ],
      "stateMutability": "view",
      "type": "function"
    },
    {
      "inputs": [],
      "name": "templateId",
      "outputs": [
        {
          "internalType": "uint256",
          "name": "",
          "type": "uint256"
        }
      ],
      "stateMutability": "view",
      "type": "function"
    },
    {
      "inputs": [],
      "name": "templateRegistry",
      "outputs": [
        {
          "internalType": "contract IDisputeTemplateRegistry",
          "name": "",
          "type": "address"
        }
      ],
      "stateMutability": "view",
      "type": "function"
    },
    {
      "inputs": [
        {
          "internalType": "uint256",
          "name": "_transactionID",
          "type": "uint256"
        }
      ],
      "name": "timeOutByBuyer",
      "outputs": [],
      "stateMutability": "nonpayable",
      "type": "function"
    },
    {
      "inputs": [
        {
          "internalType": "uint256",
          "name": "_transactionID",
          "type": "uint256"
        }
      ],
      "name": "timeOutBySeller",
      "outputs": [],
      "stateMutability": "nonpayable",
      "type": "function"
    },
    {
      "inputs": [
        {
          "internalType": "uint256",
          "name": "",
          "type": "uint256"
        }
      ],
      "name": "transactions",
      "outputs": [
        {
          "internalType": "address payable",
          "name": "buyer",
          "type": "address"
        },
        {
          "internalType": "address payable",
          "name": "seller",
          "type": "address"
        },
        {
          "internalType": "uint256",
          "name": "amount",
          "type": "uint256"
        },
        {
          "internalType": "uint256",
          "name": "settlementBuyer",
          "type": "uint256"
        },
        {
          "internalType": "uint256",
          "name": "settlementSeller",
          "type": "uint256"
        },
        {
          "internalType": "uint256",
          "name": "deadline",
          "type": "uint256"
        },
        {
          "internalType": "uint256",
          "name": "disputeID",
          "type": "uint256"
        },
        {
          "internalType": "uint256",
          "name": "buyerFee",
          "type": "uint256"
        },
        {
          "internalType": "uint256",
          "name": "sellerFee",
          "type": "uint256"
        },
        {
          "internalType": "uint256",
          "name": "lastFeePaymentTime",
          "type": "uint256"
        },
        {
          "internalType": "enum Status",
          "name": "status",
          "type": "uint8"
        },
        {
          "internalType": "contract IERC20",
          "name": "token",
          "type": "address"
        }
      ],
      "stateMutability": "view",
      "type": "function"
    }
  ],
  "transactionHash": "0xf01f6d429f552afffe3c6f56202b68ce241e163e64a5fb814ba67bda9143b610",
  "args": [
    "0xA54e7A16d7460e38a8F324eF46782FB520d58CE8",
    "0x00000000000000000000000000000000000000000000000000000000000000010000000000000000000000000000000000000000000000000000000000000003",
    "",
    "",
    "0x596D3B09E684D62217682216e9b7a0De75933391",
    600,
    600
  ],
  "numDeployments": 1,
  "solcInputHash": "785f82242b1bbda24c61d6bd55c15d10",
  "bytecode": "0x6080806040523462000266576200296d8038038091620000208285620003ad565b833981019060e081830312620002665780516001600160a01b03928382169291839003620002665760208201516001600160401b03908181116200026657830182601f820112156200026657828160206200007e93519101620003f6565b9460408401518281116200026657836200009a91860162000442565b926060850151908382116200026657620000b691860162000442565b926080850151928284168403620002665760c060a0870151960151963360018060a01b0319600054161760005560018060a01b0319600154161760015587519081116200039757600254600181811c911680156200038c575b60208210146200037657601f81116200030c575b506020601f82116001146200028c57620001c695936020959383620001b394600094859162000280575b508160011b9185199060031b1c1916176002555b600380546001600160a01b031916868416179055600589905560068a90556040516312a6505d60e21b815260606004820152606481018490526080602482015297889687958693608485019062000462565b8381036003190160448501529062000462565b0393165af1908115620002745760009162000228575b506000805160206200294d8339815191529362000215916004556040519384938452602084015260606040840152606083019062000462565b0390a16040516124c390816200048a8239f35b90506020813d6020116200026b575b816200024660209383620003ad565b810103126200026657516000805160206200294d833981519152620001dc565b600080fd5b3d915062000237565b6040513d6000823e3d90fd5b90508c0151386200014d565b601f1982169060026000528960206000209260005b818110620002f1575084600094620001c69a989460209a9894620001b39860019510620002d8575b505050811b0160025562000161565b0151861960f88460031b161c1916905538808e620002c9565b9183015184556001909301926020928301928c9201620002a1565b60026000527f405787fa12a823e0f2b7631cc41b3ba8828b3321ca811111fa75cd3aa3bb5ace601f830160051c810191602084106200036b575b601f0160051c01905b8181106200035e575062000123565b600081556001016200034f565b909150819062000346565b634e487b7160e01b600052602260045260246000fd5b90607f16906200010f565b634e487b7160e01b600052604160045260246000fd5b601f909101601f19168101906001600160401b038211908210176200039757604052565b60005b838110620003e55750506000910152565b8181015183820152602001620003d4565b919291906001600160401b03811162000397576040519162000423601f8301601f191660200184620003ad565b8294828452828201116200026657602062000440930190620003d1565b565b9080601f83011215620002665781516200045f92602001620003f6565b90565b906020916200047d81518092818552858086019101620003d1565b601f01601f191601019056fe60806040908082526004918236101561001757600080fd5b600091823560e01c9081630c340a2414611e00575080630c7ac7b614611d1c5780631bd1823a14611b055780632a7027de146119e45780632be6d005146118075780632e0b6422146117ec5780632e7700f0146117ce5780632fbe3b03146117a6578063311a6c56146115c857806334e2672d1461140c5780633bf5472414611217578063441080fe146111f95780634660ebbe146111ae5780636cc6cde1146111865780637aa77f2914611168578063871fbf861461112057806393ee267814610f985780639ace38c214610ebc578063a0af81f014610e94578063b2b9679214610cac578063b329036b14610c8e578063c5d5528814610b76578063cb44c3fa14610b18578063d2b8ae9c14610ac9578063e3f07e90146108c4578063e4c0aaf41461087a578063e77d0bd31461064e578063e98c579b146105db578063ee22610b14610498578063ef48eee61461038b578063f05a59f914610354578063fc548f08146102f45763fe43a9921461019057600080fd5b346102f05761019e36611f3c565b9190936101aa85611f52565b5060018101546001600160a01b039391929190841633036102e357600a830196875460ff811660078110156102d0576102c1576002850180548089116102b1578451898152336020820152999a8b9a899591948c94929390929161022a918d91869060008051602061246e8339815191529080604081015b0390a2612045565b8091551561028e575b5050505460081c16801560001461026557505050839283928392541682821561025c575bf15080f35b506108fc610257565b919550939192610277935416906123a0565b1561028157505080f35b5163022e258160e11b8152fd5b60ff1916600617835560008051602061242e8339815191528280a3873880610233565b84516305aafecf60e01b81528690fd5b505051634e22597f60e11b8152fd5b634e487b7160e01b895260218552602489fd5b51635800797f60e11b8152fd5b5080fd5b5082346103505760203660031901126103505780356001600160a01b03818116939184900361034c57845416330361033f575050600180546001600160a01b03191691909117905580f35b5163c383977560e01b8152fd5b8480fd5b8280fd5b50346102f05760203660031901126102f05760209181906001600160a01b0361037b611f87565b1681526009845220549051908152f35b50346102f05761039a36611f3c565b9190936103a685611f52565b5080546001600160a01b0393919291908416330361048b57600a830196875460ff811660078110156102d0576102c1576002850180548089116102b1578451898152336020820152999a8b9a899591948c94929390929161041f918d91869060008051602061246e833981519152908060408101610222565b80915515610468575b5050505460081c16801560001461045357505050839283926001849301541682821561025c57f15080f35b919550939192600161027794015416906123a0565b60ff1916600617835560008051602061242e8339815191528280a3873880610428565b5163e2bc376b60e01b8152fd5b50346102f05760203660031901126102f0578235906104b682611f52565b50600581015442106105cb57600a81019081549560ff871660078110156105b8576105aa576002820180549087905560ff19909716600617928390556001600160a01b039260081c83168061056957505085849386808080809b60008051602061246e83398151915298600161054899015416828215610560575bf1505b519081523360208201529081906040820190565b0390a260008051602061242e8339815191528280a380f35b506108fc610531565b879193600161057b94015416906123a0565b1561059c575060008051602061246e83398151915261054884958493610534565b905163022e258160e11b8152fd5b8351634e22597f60e11b8152fd5b634e487b7160e01b875260218252602487fd5b81516302eb354360e41b81528590fd5b50829034610350576020366003190112610350578254823592906001600160a01b03163303610640575090606060008051602061244e833981519152928260065560055492815193845260208401528201528061063a60608201611f9d565b0390a180f35b905163c383977560e01b8152fd5b50346102f05760203660031901126102f05782359061066c82611f52565b509060ff600a83015416600781101561086757850361085857610693600983015442612045565b600554116108495750918281946008600195019183835493556106b585611f52565b5091868060a01b039283815416848983015416908788809581956106d88d611f52565b506002810154906003810154998c600a600784015493015460081c161560001461082b575091846107158b610710600a958497612068565b612045565b9a945b8160028401558160038401558201558260078201558260088201550197600660ff198a5416178955858115801561080a575b5050505084811580156107e9575b50505050806107d1575b505084826107b9575b505050508215928315610792575b505050508060008051602061242e83398151915291a380f35b849384938885940154169083906107b0575bf1508238808080610779565b506108fc6107a4565b6107c7935460081c166123a0565b503880808461076b565b6107e19187865460081c166123a0565b503880610762565b8392839283928390610801575bf15088388481610758565b506108fc6107f6565b8392839283928390610822575bf1508138858161074a565b506108fc610817565b9398508995509184610842600a939b82959c612045565b9699610718565b51634799187b60e01b81528490fd5b51638225aba560e01b81528490fd5b634e487b7160e01b855260218652602485fd5b50829034610350576020366003190112610350576001600160a01b0382358181169391929084900361034c57845492339084160361033f5750506001600160a01b03191617815580f35b508290346103505760a0366003190112610350576001600160a01b03602435818116908435828203610ac55760443590606435976001600160401b03988981116102f0576109159036908a01611ef0565b936084359687168097036102f05785825260209960098b52888320548411610ab55788516323b872dd60e01b8c8201908152336024830152306044830152606480830187905282529160a0820190811182821017610aa2578a52518391829190828a5af1610981612358565b81610a72575b5015610a625760058491610999612022565b5080546001600160a01b0319908116331782556001820180549091168b17905560028101869055600a81018054610100600160a81b03191660089390931b610100600160a81b0316929092179091550155600754600019810198908911610a4f575050917fb96ca2c0c34e2ad6384277748b8101f4bddc3cbeaad7086e59cd315bd19aa8c5918793610a35885193608085526080850190611e95565b958a8401528783015260608201528033940390a451908152f35b634e487b7160e01b825260119052602490fd5b875163022e258160e11b81528990fd5b8051801592508c908315610a8a575b5050508b610987565b610a9a9350820181019101612388565b8b8b81610a81565b634e487b7160e01b855260418c52602485fd5b8851631d9c3dff60e31b81528a90fd5b8680fd5b508234610350578160031936011261035057610ae3611f87565b83546001600160a01b03929083163303610b0a575016825260096020526024359082205580f35b835163c383977560e01b8152fd5b50829034610350576020366003190112610350578254823592906001600160a01b03163303610640575090606060008051602061244e8339815191529282600555600654815193845260208401528201528061063a60608201611f9d565b508234610350576003198281360112610c8a576001600160401b038235818111610c8657610ba79036908501611ef0565b90602435908111610c8657610bbf9036908501611ef0565b85549091906001600160a01b039081163303610c765790610c1687602094936003541692610c258951978896879586946312a6505d60e21b865260608d870152866064870152608060248701526084860190611e95565b91848303016044850152611e95565b03925af1928315610c6d57508392610c3c57505580f35b9091506020813d8211610c65575b81610c5760209383611e5e565b810103126103505751905580f35b3d9150610c4a565b513d85823e3d90fd5b855163c383977560e01b81528590fd5b8580fd5b8380fd5b50346102f057816003193601126102f0576020906005549051908152f35b50346102f057610cbb36611f3c565b610cc6829392611f52565b50600a8101805460ff8116926007841015610e8157831580610e73575b610e63576003841015610e535788600292838301548711610e44578690426009850155600196878114600014610d9a57505082546001600160a01b031633039150610d8a905057600301849055815460ff1916179055905b8251916003811015610d77577f10c8b22b69e324b0227c6adfa65183c771304c11385423e93ce99779a7483dbf9495965082526020820152a280f35b634e487b7160e01b865260218752602486fd5b855163e2bc376b60e01b81528990fd5b9496949293928703610ddd575050808301546001600160a01b03163303610dce5701849055815460ff191617905590610d3b565b508551635800797f60e11b8152fd5b8254949694919390916001600160a01b03903390821603610e0e5750505060030155815460ff191617905590610d3b565b909291935086829795970154163314600014610e35570185905560ff191617905590610d3b565b50865163351c18ff60e21b8152fd5b5086516305aafecf60e01b8152fd5b8551630d71592960e31b81528990fd5b85516338e5e54b60e21b81528990fd5b506005810154421015610ce3565b634e487b7160e01b885260218952602488fd5b50346102f057816003193601126102f05760035490516001600160a01b039091168152602090f35b50346102f05760203660031901126102f057823560075481101561035057610ee390611f52565b5090600160a01b60019003918281541693836001830154169160028101546003820154888301546005840154600685015491600786015493600887015495600988015497600a01549a60ff8c169a81519e8f908152602001528d015260608c015260808b015260a08a015260c089015260e08801526101008701526101208601526007821015610f855750610180945061014084015260081c16610160820152f35b634e487b7160e01b815260218652602490fd5b5082903461035057602036600319011261035057813590610fb882611f52565b50600a81019182549060ff8216600781101561110d57600181036110c5575082546001600160a01b031633036110b6575090859185820154915b6006600282019285611005868654612045565b94556003830186905588830186905560ff19161780865560081c6001600160a01b039081169590929086611087575084955091600182868080808099979887829a541682821561107e575bf150015416828215611075575bf1505b60008051602061242e8339815191528380a380f35b506108fc61105d565b506108fc611050565b829495506110a084926110b098846001965416906123a0565b505460081c1692015416906123a0565b50611060565b5163e2bc376b60e01b81528590fd5b6002036110fe5760018301546001600160a01b031633036110ef5750908591600382015491610ff2565b51635800797f60e11b81528590fd5b51630a7b6ec160e01b81528590fd5b634e487b7160e01b885260218752602488fd5b508234610350578160031936011261035057602435926003841015611165575060809261114d9135612232565b92939091815194855260208501528301526060820152f35b80fd5b50823461035057826003193601126103505760209250549051908152f35b50346102f057816003193601126102f05760015490516001600160a01b039091168152602090f35b5082346103505760203660031901126103505780356001600160a01b03818116939184900361034c57845416330361033f575050600380546001600160a01b03191691909117905580f35b50346102f057816003193601126102f0576020906006549051908152f35b508290602080600319360112610c8a5782359161123383611f52565b50600a81019060ff8254166007811015806113f9576001821491821590816113ea575b82826113c6575b50506113b65761110d578061139e575b61138e5760018101546001600160a01b03969087163303611380576008820196611298348954612068565b8098556001541696858551809963f7434ea960e01b8252828583015281806112c260248201611f9d565b03915afa978815611376578998611343575b508711611335575042600982015560070154851115611325577fc74b9f7dedf2887cd3c113b6d8da9cea19e55c1116e25f1f0e1b72d7543179b5939450600360ff198254161790555160018152a280f35b5050509061133291612075565b80f35b835163818d938f60e01b8152fd5b9097508581813d831161136f575b61135b8183611e5e565b8101031261136b575196896112d4565b8880fd5b503d611351565b85513d8b823e3d90fd5b8351635800797f60e11b8152fd5b8251630627cd6b60e01b81528690fd5b506113ad600982015442612045565b6006541161126d565b845163365105ef60e11b81528890fd5b9091506113d7578814158a8261125d565b634e487b7160e01b8a526021895260248afd5b8a925060028114159150611256565b634e487b7160e01b895260218852602489fd5b50346102f05760209081600319360112610350578335936001600160401b039081861161034c573660238701121561034c578581013591821161034c5760249036828489010111610c865785546001600160a01b03163303610b0a5750611474600254611e24565b601f8111611584575b508495601f831160011461150857918160809493828094899a60008051602061244e8339815191529a926114fb575b50508360011b906000198560031b1c1916176002555b6060600554956006548151998a98895288015286015282606086015201848401378181018301869052601f01601f19168101030190a180f35b83010135905082386114ac565b60028652848620601f198416875b81811061156b57509184939160008051602061244e83398151915298998560809897951061154f575b5050600183811b016002556114c2565b8201830135600019600386901b60f8161c19169055388061153f565b838a018501358355988701986001909201918701611516565b60028652848620601f840160051c8101918685106115be575b601f0160051c01905b8181106115b3575061147d565b8681556001016115a6565b909150819061159d565b50346102f0576115d736611f3c565b6001549092916001600160a01b03918216338190036117965760028511611786578186526008602052838620549360ff600a61161287611f52565b500154166007811015610e81576005036117775760207f394027a5fa6e098a1191094d1719d6929b9abc535fcc0c8f448d6a4e756222769151878152a360038260008051602061242e8339815191528680a361166d82611f52565b509281845416908260018601541693600382101561176457958097816116978194600a999a612232565b9a929b919690948160028401558160038401558201558260078201558260088201550198600660ff198b5416178a558581158015611743575b505050508581158015611722575b505050508061170a575b5050826116f3578480f35b611701935460081c166123a0565b50388080808480f35b61171a9183875460081c166123a0565b5038806116e8565b839283928392839061173a575bf150863885816116de565b506108fc61172f565b839283928392839061175b575bf150813885816116d0565b506108fc611750565b634e487b7160e01b875260218852602487fd5b5163f10068b560e01b81528790fd5b83516309efd47960e41b81528790fd5b8351630955f84760e31b81528790fd5b5082346103505760203660031901126103505760209282913581526008845220549051908152f35b50346102f057816003193601126102f0576020906007549051908152f35b50346102f057816003193601126102f0576020905160028152f35b508290602080600319360112610c8a5782359161182383611f52565b5093600a85019060ff8254166007811015806119c4576001821415806119d7575b81816119b3575b506119a3576119905760021480611978575b61196a5785546001600160a01b0396908716330361195b576007810196611885348954612068565b8098556001541696858551809963f7434ea960e01b8252828683015281806118af60248201611f9d565b03915afa97881561137657899861192c575b50871161191d574260098201556008015486111561190f577fc74b9f7dedf2887cd3c113b6d8da9cea19e55c1116e25f1f0e1b72d7543179b594955060ff198254161790555160028152a280f35b505050509061133291612075565b508251631a48f3db60e11b8152fd5b9097508581813d8311611954575b6119448183611e5e565b8101031261136b575196896118c1565b503d61193a565b50825163e2bc376b60e01b8152fd5b8251630627cd6b60e01b8152fd5b50611987600987015442612045565b6006541161185d565b634e487b7160e01b885260218252602488fd5b845163376af24960e21b81528390fd5b90506119c45760038214158161184b565b634e487b7160e01b895260218352602489fd5b5050876002821415611844565b5060603660031901126102f05782356024356001600160401b038111610c8a57611a119036908601611ef0565b6044356001600160a01b03811692919083900361034c578480526009602052838520543411611af557816005611a45612022565b5080546001600160a01b03199081163317825560018201805490911687179055346002820155600a81018054610100600160a81b03191690550155600754600019810195908611611ae25750602095507f0a7ca50c43ec865fdc8519822762f88432e18409024b9c036d6507b9c8f79d808591611acc865191606083526060830190611e95565b933489830152868201528033940390a451908152f35b634e487b7160e01b815260118752602490fd5b8351631d9c3dff60e31b81528690fd5b50346102f05760203660031901126102f057823590611b2382611f52565b509060ff600a83015416600781101561086757600303611d0d57611b4b600983015442612045565b60055411610849575091828194600760029501918383549355611b6d85611f52565b50805460018201546001600160a01b039487938493928716928716918491829190611b978d611f52565b50978e890154838a0154918c600a60088d01549c015460081c161592801515600014611d0557925b15611ce757509184611bde83611bd8600a958497612045565b9c612068565b945b600282908401558160038401558201558260078201558260088201550197600660ff198a54161789558581158015611cc6575b505050508481158015611ca5575b5050505080611c8d575b50508482611c75575b505050508215928315611c5a57505050508060008051602061242e83398151915291a380f35b84938493849354169083906107b057f1508238808080610779565b611c83935460081c166123a0565b5038808084611c34565b611c9d9187865460081c166123a0565b503880611c2b565b8392839283928390611cbd575bf15088388481611c21565b506108fc611cb2565b8392839283928390611cde575bf15081388581611c13565b506108fc611cd3565b999550819398509184611cfd600a938295612045565b969499611be0565b508192611bbf565b51635ed7670b60e11b81528490fd5b50346102f057816003193601126102f05780519082600254611d3d81611e24565b80855290600190818116908115611dd85750600114611d7f575b505050611d6982611d7b940383611e5e565b51918291602083526020830190611e95565b0390f35b60028352602095507f405787fa12a823e0f2b7631cc41b3ba8828b3321ca811111fa75cd3aa3bb5ace5b828410611dc55750505082611d7b94611d699282010194611d57565b8054868501880152928601928101611da9565b611d7b9750611d699450602092508693915060ff191682840152151560051b82010194611d57565b8390346102f057816003193601126102f05790546001600160a01b03168152602090f35b90600182811c92168015611e54575b6020831014611e3e57565b634e487b7160e01b600052602260045260246000fd5b91607f1691611e33565b90601f801991011681019081106001600160401b03821117611e7f57604052565b634e487b7160e01b600052604160045260246000fd5b919082519283825260005b848110611ec1575050826000602080949584010152601f8019910116010190565b602081830181015184830182015201611ea0565b6001600160401b038111611e7f57601f01601f191660200190565b81601f82011215611f3757803590611f0782611ed5565b92611f156040519485611e5e565b82845260208383010111611f3757816000926020809301838601378301015290565b600080fd5b6040906003190112611f37576004359060243590565b600754811015611f71576007600052600b602060002091020190600090565b634e487b7160e01b600052603260045260246000fd5b600435906001600160a01b0382168203611f3757565b60025460009291611fad82611e24565b9081815260019283811690816000146120075750600114611fcd57505050565b9092935060026000526020928360002092846000945b838610611ff35750505050010190565b805485870183015294019385908201611fe3565b91935050602093945060ff191683830152151560051b010190565b600754600160401b811015611e7f578060016120419201600755611f52565b9091565b9190820391821161205257565b634e487b7160e01b600052601160045260246000fd5b9190820180921161205257565b9061207f82611f52565b50600a8101805460ff191660051790556001546040805163c13517e160e01b815260026004820152602481018290526001600160a01b0395602093919290918490849089168189816120d360448201611f9d565b03925af1928315612227576000936121d8575b507f8bd32f430ff060e6bd204709b3790c9807987263d3230c580dc80b5f89e27186916060608092600688019580875560005260088752828160002055896001541695549660045490825194855284015282015260006060820152a360078101805490838083116121a4575b505050600881019182549281841161216c575b5050505050565b6000946001869594846121828897968897612045565b945501541682821561219b575bf1503880808080612165565b506108fc61218f565b6000809392826121b78395948495612045565b9155878654168282156121cf575bf150388083612152565b506108fc6121c5565b90928482813d8311612220575b6121ef8183611e5e565b81010312611165575051917f8bd32f430ff060e6bd204709b3790c9807987263d3230c580dc80b5f89e271866120e6565b503d6121e5565b50513d6000823e3d90fd5b9160009260009283806122458294611f52565b50926002840154936003810154986004820154600783015495600884015493600a60018060a01b0391015460081c161594600381101561234457600181036122ba5750505050506000146122a657506107106122a2928792612068565b9391565b939250859450946122b691612045565b9290565b939b509396959194509291600203612311575050801561230957925b156122f35750906122ea816122f093612045565b95612068565b91565b959450819392509061230491612045565b929190565b5081926122d6565b93985050505060011c8095819060011c926000146123385750906122ea816122f093612068565b93925094508093509290565b634e487b7160e01b82526021600452602482fd5b3d15612383573d9061236982611ed5565b916123776040519384611e5e565b82523d6000602084013e565b606090565b90816020910312611f3757518015158103611f375790565b60405163a9059cbb60e01b602082019081526001600160a01b0393841660248301526044808301959095529381529192608083016001600160401b03811184821017611e7f57600094859485926040525193165af16123fd612358565b81612406575090565b805180159250821561241757505090565b61242a9250602080918301019101612388565b9056fe89e6168584e1de3ec704ff46376271b5481b0d9b2b0ef0ae102f0d001093e000f0d0a0b363c32316c3e6e7e797bbc126af09c634db439ed65a3f96afe7ae2367d1432ca9a38d944f01b256a411861b109bc4bfe200c40d7144e919a16b86a8a8a2646970667358221220f991d246e5239dba416c85ccfc4e018c88e7d0147726099c9181fb72c646941864736f6c63430008120033f0d0a0b363c32316c3e6e7e797bbc126af09c634db439ed65a3f96afe7ae2367",
  "devdoc": {
    "details": "Adapted from MultipleArbitrableTokenTransaction contract: https://github.com/kleros/kleros-interaction/blob/master/contracts/standard/arbitration/MultipleArbitrableTokenTransaction.sol and from MultipleArbitrableTransaction contract: https://github.com/kleros/kleros-interaction/blob/master/contracts/standard/arbitration/MultipleArbitrableTransaction.sol Note that the contract expects the tokens to have standard ERC20 behaviour. The tokens that don't conform to this type of behaviour should be filtered by the UI. Tokens should not reenter or allow recipients to refuse the transfer. Also note that arbitration fees are still paid in ETH.",
    "events": {
      "DisputeRequest(address,uint256,uint256,uint256,string)": {
        "details": "To be emitted when a dispute is created to link the correct meta-evidence to the disputeID.",
        "params": {
          "_arbitrableDisputeID": "The identifier of the dispute in the Arbitrable contract.",
          "_arbitrator": "The arbitrator of the contract.",
          "_externalDisputeID": "An identifier created outside Kleros by the protocol requesting arbitration.",
          "_templateId": "The identifier of the dispute template. Should not be used with _templateUri.",
          "_templateUri": "The URI to the dispute template. For example on IPFS: starting with '/ipfs/'. Should not be used with _templateId."
        }
      },
      "ERC20TransactionCreated(uint256,string,address,address,address,uint256,uint256)": {
        "details": "Emitted when a transaction paid in ERC20 token is created.",
        "params": {
          "_amount": "The initial amount in the transaction.",
          "_buyer": "The address of the buyer.",
          "_deadline": "The deadline of the transaction.",
          "_seller": "The address of the seller.",
          "_token": "The token address.",
          "_transactionID": "The index of the transaction.",
          "_transactionUri": "The IPFS Uri Hash of the transaction."
        }
      },
      "HasToPayFee(uint256,uint8)": {
        "details": "Indicate that a party has to pay a fee or would otherwise be considered as losing.",
        "params": {
          "_party": "The party who has to pay.",
          "_transactionID": "The index of the transaction."
        }
      },
      "NativeTransactionCreated(uint256,string,address,address,uint256,uint256)": {
        "details": "Emitted when a transaction paid in native currency is created.",
        "params": {
          "_amount": "The initial amount in the transaction.",
          "_buyer": "The address of the buyer.",
          "_deadline": "The deadline of the transaction.",
          "_seller": "The address of the seller.",
          "_transactionID": "The index of the transaction.",
          "_transactionUri": "The IPFS Uri Hash of the transaction."
        }
      },
      "ParameterUpdated(uint256,uint256,bytes)": {
        "details": "To be emitted when Escrow parameters are updated."
      },
      "Payment(uint256,uint256,address)": {
        "details": "To be emitted when a party pays or reimburses the other.",
        "params": {
          "_amount": "The amount paid.",
          "_party": "The party that paid.",
          "_transactionID": "The index of the transaction."
        }
      },
      "Ruling(address,uint256,uint256)": {
        "details": "To be raised when a ruling is given.",
        "params": {
          "_arbitrator": "The arbitrator giving the ruling.",
          "_disputeID": "The identifier of the dispute in the Arbitrator contract.",
          "_ruling": "The ruling which was given."
        }
      },
      "SettlementProposed(uint256,uint8,uint256)": {
        "details": "Emitted when a party proposes a settlement.",
        "params": {
          "_amount": "The amount proposed.",
          "_party": "The party that proposed a settlement.",
          "_transactionID": "The index of the transaction."
        }
      },
      "TransactionResolved(uint256,uint8)": {
        "details": "To be emitted when a transaction is resolved, either by its      execution, a timeout or because a ruling was enforced.",
        "params": {
          "_resolution": "Short description of what caused the transaction to be solved.",
          "_transactionID": "The ID of the respective transaction."
        }
      }
    },
    "kind": "dev",
    "methods": {
      "acceptSettlement(uint256)": {
        "details": "Accept a settlement proposed by the other party.",
        "params": {
          "_transactionID": "The index of the transaction."
        }
      },
      "constructor": {
        "details": "Constructor.",
        "params": {
          "_arbitrator": "The arbitrator of the contract.",
          "_arbitratorExtraData": "Extra data for the arbitrator.",
          "_feeTimeout": "Arbitration fee timeout for the parties.",
          "_settlementTimeout": "Settlement timeout for the parties.",
          "_templateData": "The dispute template data.",
          "_templateDataMappings": "The dispute template data mappings.",
          "_templateRegistry": "The dispute template registry."
        }
      },
      "createERC20Transaction(uint256,address,uint256,string,address)": {
        "details": "Create a transaction.",
        "params": {
          "_amount": "The amount of tokens in this transaction.",
          "_deadline": "Time after which a party can automatically execute the arbitrable transaction.",
          "_seller": "The recipient of the transaction.",
          "_token": "The ERC20 token contract.",
          "_transactionUri": "The IPFS Uri Hash of the transaction."
        },
        "returns": {
          "transactionID": "The index of the transaction."
        }
      },
      "createNativeTransaction(uint256,string,address)": {
        "details": "Create a transaction.",
        "params": {
          "_deadline": "Time after which a party can automatically execute the arbitrable transaction.",
          "_seller": "The recipient of the transaction.",
          "_transactionUri": "The IPFS Uri Hash of the transaction."
        },
        "returns": {
          "transactionID": "The index of the transaction."
        }
      },
      "executeTransaction(uint256)": {
        "details": "Transfer the transaction's amount to the seller if the timeout has passed.",
        "params": {
          "_transactionID": "The index of the transaction."
        }
      },
      "getPayouts(uint256,uint8)": {
        "details": "Get the payout depending on the winning party.The cost for the buyer is the seller payout non-inclusive of any arbitration fees.",
        "params": {
          "_transactionID": "The index of the transaction.",
          "_winningParty": "The winning party."
        },
        "returns": {
          "buyerPayout": "The payout for the buyer.",
          "buyerPayoutToken": "The payout for the buyer in tokens.",
          "sellerPayout": "The payout for the seller.",
          "sellerPayoutToken": "The payout for the seller in tokens."
        }
      },
      "getTransactionCount()": {
        "details": "Getter to know the count of transactions.",
        "returns": {
          "_0": "The count of transactions."
        }
      },
      "pay(uint256,uint256)": {
        "details": "Pay seller. To be called if the good or service is provided.",
        "params": {
          "_amount": "Amount to pay in wei.",
          "_transactionID": "The index of the transaction."
        }
      },
      "payArbitrationFeeByBuyer(uint256)": {
        "details": "Pay the arbitration fee to raise a dispute. To be called by the buyer. Note that it can only be called after settlement proposition. Also note that the arbitrator can have createDispute throw, which will make      this function throw and therefore lead to a party being timed-out.      This is not a vulnerability as the arbitrator can rule in favor of one party anyway.",
        "params": {
          "_transactionID": "The index of the transaction."
        }
      },
      "payArbitrationFeeBySeller(uint256)": {
        "details": "Pay the arbitration fee to raise a dispute. To be called by the seller. Note that this function mirrors payArbitrationFeeByBuyer.",
        "params": {
          "_transactionID": "The index of the transaction."
        }
      },
      "proposeSettlement(uint256,uint256)": {
        "details": "Propose a settlement as a compromise from the initial terms to the other party.  Note that a party can only propose a settlement again after the other party has  done so as well to prevent front running/griefing issues.",
        "params": {
          "_amount": "The settlement amount.",
          "_transactionID": "The index of the transaction."
        }
      },
      "reimburse(uint256,uint256)": {
        "details": "Reimburse buyer. To be called if the good or service can't be fully provided.",
        "params": {
          "_amountReimbursed": "Amount to reimburse in wei.",
          "_transactionID": "The index of the transaction."
        }
      },
      "rule(uint256,uint256)": {
        "details": "Give a ruling for a dispute.      Must be called by the arbitrator.      The purpose of this function is to ensure that the address calling it has the right to rule on the contract.",
        "params": {
          "_disputeID": "The identifier of the dispute in the Arbitrator contract.",
          "_ruling": "Ruling given by the arbitrator. Note that 0 is reserved for \"Not able/wanting to make a decision\"."
        }
      },
      "timeOutByBuyer(uint256)": {
        "details": "Reimburse buyer if seller fails to pay the fee.",
        "params": {
          "_transactionID": "The index of the transaction."
        }
      },
      "timeOutBySeller(uint256)": {
        "details": "Pay seller if buyer fails to pay the fee.",
        "params": {
          "_transactionID": "The index of the transaction."
        }
      }
    },
    "title": "EscrowUniversal for a sale paid in native currency or ERC20 tokens without platform fees.",
    "version": 1
  },
  "userdoc": {
    "kind": "user",
    "methods": {},
    "version": 1
  },
  "storageLayout": {
    "storage": [
      {
        "astId": 2104,
        "contract": "src/EscrowUniversal.sol:EscrowUniversal",
        "label": "governor",
        "offset": 0,
        "slot": "0",
        "type": "t_address"
      },
      {
        "astId": 2107,
        "contract": "src/EscrowUniversal.sol:EscrowUniversal",
        "label": "arbitrator",
        "offset": 0,
        "slot": "1",
        "type": "t_contract(IArbitratorV2)134"
      },
      {
        "astId": 2109,
        "contract": "src/EscrowUniversal.sol:EscrowUniversal",
        "label": "arbitratorExtraData",
        "offset": 0,
        "slot": "2",
        "type": "t_bytes_storage"
      },
      {
        "astId": 2112,
        "contract": "src/EscrowUniversal.sol:EscrowUniversal",
        "label": "templateRegistry",
        "offset": 0,
        "slot": "3",
        "type": "t_contract(IDisputeTemplateRegistry)160"
      },
      {
        "astId": 2114,
        "contract": "src/EscrowUniversal.sol:EscrowUniversal",
        "label": "templateId",
        "offset": 0,
        "slot": "4",
        "type": "t_uint256"
      },
      {
        "astId": 2116,
        "contract": "src/EscrowUniversal.sol:EscrowUniversal",
        "label": "feeTimeout",
        "offset": 0,
        "slot": "5",
        "type": "t_uint256"
      },
      {
        "astId": 2118,
        "contract": "src/EscrowUniversal.sol:EscrowUniversal",
        "label": "settlementTimeout",
        "offset": 0,
        "slot": "6",
        "type": "t_uint256"
      },
      {
        "astId": 2122,
        "contract": "src/EscrowUniversal.sol:EscrowUniversal",
        "label": "transactions",
        "offset": 0,
        "slot": "7",
        "type": "t_array(t_struct(Transaction)4960_storage)dyn_storage"
      },
      {
        "astId": 2126,
        "contract": "src/EscrowUniversal.sol:EscrowUniversal",
        "label": "disputeIDtoTransactionID",
        "offset": 0,
        "slot": "8",
        "type": "t_mapping(t_uint256,t_uint256)"
      },
      {
        "astId": 2131,
        "contract": "src/EscrowUniversal.sol:EscrowUniversal",
        "label": "amountCaps",
        "offset": 0,
        "slot": "9",
        "type": "t_mapping(t_contract(IERC20)825,t_uint256)"
      }
    ],
    "types": {
      "t_address": {
        "encoding": "inplace",
        "label": "address",
        "numberOfBytes": "20"
      },
      "t_address_payable": {
        "encoding": "inplace",
        "label": "address payable",
        "numberOfBytes": "20"
      },
      "t_array(t_struct(Transaction)4960_storage)dyn_storage": {
        "base": "t_struct(Transaction)4960_storage",
        "encoding": "dynamic_array",
        "label": "struct Transaction[]",
        "numberOfBytes": "32"
      },
      "t_bytes_storage": {
        "encoding": "bytes",
        "label": "bytes",
        "numberOfBytes": "32"
      },
      "t_contract(IArbitratorV2)134": {
        "encoding": "inplace",
        "label": "contract IArbitratorV2",
        "numberOfBytes": "20"
      },
      "t_contract(IDisputeTemplateRegistry)160": {
        "encoding": "inplace",
        "label": "contract IDisputeTemplateRegistry",
        "numberOfBytes": "20"
      },
      "t_contract(IERC20)825": {
        "encoding": "inplace",
        "label": "contract IERC20",
        "numberOfBytes": "20"
      },
      "t_enum(Status)4927": {
        "encoding": "inplace",
        "label": "enum Status",
        "numberOfBytes": "1"
      },
      "t_mapping(t_contract(IERC20)825,t_uint256)": {
        "encoding": "mapping",
        "key": "t_contract(IERC20)825",
        "label": "mapping(contract IERC20 => uint256)",
        "numberOfBytes": "32",
        "value": "t_uint256"
      },
      "t_mapping(t_uint256,t_uint256)": {
        "encoding": "mapping",
        "key": "t_uint256",
        "label": "mapping(uint256 => uint256)",
        "numberOfBytes": "32",
        "value": "t_uint256"
      },
      "t_struct(Transaction)4960_storage": {
        "encoding": "inplace",
        "label": "struct Transaction",
        "members": [
          {
            "astId": 4935,
            "contract": "src/EscrowUniversal.sol:EscrowUniversal",
            "label": "buyer",
            "offset": 0,
            "slot": "0",
            "type": "t_address_payable"
          },
          {
            "astId": 4937,
            "contract": "src/EscrowUniversal.sol:EscrowUniversal",
            "label": "seller",
            "offset": 0,
            "slot": "1",
            "type": "t_address_payable"
          },
          {
            "astId": 4939,
            "contract": "src/EscrowUniversal.sol:EscrowUniversal",
            "label": "amount",
            "offset": 0,
            "slot": "2",
            "type": "t_uint256"
          },
          {
            "astId": 4941,
            "contract": "src/EscrowUniversal.sol:EscrowUniversal",
            "label": "settlementBuyer",
            "offset": 0,
            "slot": "3",
            "type": "t_uint256"
          },
          {
            "astId": 4943,
            "contract": "src/EscrowUniversal.sol:EscrowUniversal",
            "label": "settlementSeller",
            "offset": 0,
            "slot": "4",
            "type": "t_uint256"
          },
          {
            "astId": 4945,
            "contract": "src/EscrowUniversal.sol:EscrowUniversal",
            "label": "deadline",
            "offset": 0,
            "slot": "5",
            "type": "t_uint256"
          },
          {
            "astId": 4947,
            "contract": "src/EscrowUniversal.sol:EscrowUniversal",
            "label": "disputeID",
            "offset": 0,
            "slot": "6",
            "type": "t_uint256"
          },
          {
            "astId": 4949,
            "contract": "src/EscrowUniversal.sol:EscrowUniversal",
            "label": "buyerFee",
            "offset": 0,
            "slot": "7",
            "type": "t_uint256"
          },
          {
            "astId": 4951,
            "contract": "src/EscrowUniversal.sol:EscrowUniversal",
            "label": "sellerFee",
            "offset": 0,
            "slot": "8",
            "type": "t_uint256"
          },
          {
            "astId": 4953,
            "contract": "src/EscrowUniversal.sol:EscrowUniversal",
            "label": "lastFeePaymentTime",
            "offset": 0,
            "slot": "9",
            "type": "t_uint256"
          },
          {
            "astId": 4956,
            "contract": "src/EscrowUniversal.sol:EscrowUniversal",
            "label": "status",
            "offset": 0,
            "slot": "10",
            "type": "t_enum(Status)4927"
          },
          {
            "astId": 4959,
            "contract": "src/EscrowUniversal.sol:EscrowUniversal",
            "label": "token",
            "offset": 1,
            "slot": "10",
            "type": "t_contract(IERC20)825"
          }
        ],
        "numberOfBytes": "352"
      },
      "t_uint256": {
        "encoding": "inplace",
        "label": "uint256",
        "numberOfBytes": "32"
      }
    }
  }
}