{
  "address": "0x6e2aC8E5E18191bBa2894F9317d6F2fc50d0830E",
  "abi": [
    {
      "inputs": [
        {
          "internalType": "contract IArbitratorV2",
          "name": "_arbitrator",
          "type": "address"
        },
        {
          "internalType": "bytes",
          "name": "_arbitratorExtraData",
          "type": "bytes"
        },
        {
          "internalType": "string",
          "name": "_templateData",
          "type": "string"
        },
        {
          "internalType": "string",
          "name": "_templateDataMappings",
          "type": "string"
        },
        {
          "internalType": "contract IDisputeTemplateRegistry",
          "name": "_templateRegistry",
          "type": "address"
        },
        {
          "internalType": "uint256",
          "name": "_feeTimeout",
          "type": "uint256"
        },
        {
          "internalType": "uint256",
          "name": "_settlementTimeout",
          "type": "uint256"
        }
      ],
      "stateMutability": "nonpayable",
      "type": "constructor"
    },
    {
      "inputs": [],
      "name": "ArbitratorOnly",
      "type": "error"
    },
    {
      "inputs": [],
      "name": "BuyerFeeNotCoverArbitrationCosts",
      "type": "error"
    },
    {
      "inputs": [],
      "name": "BuyerOnly",
      "type": "error"
    },
    {
      "inputs": [],
      "name": "BuyerOrSellerOnly",
      "type": "error"
    },
    {
      "inputs": [],
      "name": "DeadlineNotPassed",
      "type": "error"
    },
    {
      "inputs": [],
      "name": "DisputeAlreadyResolved",
      "type": "error"
    },
    {
      "inputs": [],
      "name": "GovernorOnly",
      "type": "error"
    },
    {
      "inputs": [],
      "name": "InvalidRuling",
      "type": "error"
    },
    {
      "inputs": [],
      "name": "MaximumPaymentAmountExceeded",
      "type": "error"
    },
    {
      "inputs": [],
      "name": "NoSettlementProposedOrTransactionMovedOnAcceptSettlement",
      "type": "error"
    },
    {
      "inputs": [],
      "name": "NoSettlementProposedOrTransactionMovedOnPayFeeBuyer",
      "type": "error"
    },
    {
      "inputs": [],
      "name": "NoSettlementProposedOrTransactionMovedOnPayFeeSeller",
      "type": "error"
    },
    {
      "inputs": [],
      "name": "NotSupported",
      "type": "error"
    },
    {
      "inputs": [],
      "name": "NotWaitingForBuyerFees",
      "type": "error"
    },
    {
      "inputs": [],
      "name": "NotWaitingForSellerFees",
      "type": "error"
    },
    {
      "inputs": [],
      "name": "SellerFeeNotCoverArbitrationCosts",
      "type": "error"
    },
    {
      "inputs": [],
      "name": "SellerOnly",
      "type": "error"
    },
    {
      "inputs": [],
      "name": "SettlementPeriodNotOver",
      "type": "error"
    },
    {
      "inputs": [],
      "name": "TimeoutNotPassed",
      "type": "error"
    },
    {
      "inputs": [],
      "name": "TokenTransferFailed",
      "type": "error"
    },
    {
      "inputs": [],
      "name": "TransactionDisputed",
      "type": "error"
    },
    {
      "inputs": [],
      "name": "TransactionEscalatedForArbitration",
      "type": "error"
    },
    {
      "inputs": [],
      "name": "TransactionExpired",
      "type": "error"
    },
    {
      "anonymous": false,
      "inputs": [
        {
          "indexed": true,
          "internalType": "contract IArbitratorV2",
          "name": "_arbitrator",
          "type": "address"
        },
        {
          "indexed": true,
          "internalType": "uint256",
          "name": "_arbitrableDisputeID",
          "type": "uint256"
        },
        {
          "indexed": false,
          "internalType": "uint256",
          "name": "_externalDisputeID",
          "type": "uint256"
        },
        {
          "indexed": false,
          "internalType": "uint256",
          "name": "_templateId",
          "type": "uint256"
        },
        {
          "indexed": false,
          "internalType": "string",
          "name": "_templateUri",
          "type": "string"
        }
      ],
      "name": "DisputeRequest",
      "type": "event"
    },
    {
      "anonymous": false,
      "inputs": [
        {
          "indexed": true,
          "internalType": "uint256",
          "name": "_transactionID",
          "type": "uint256"
        },
        {
          "indexed": false,
          "internalType": "string",
          "name": "_transactionUri",
          "type": "string"
        },
        {
          "indexed": true,
          "internalType": "address",
          "name": "_buyer",
          "type": "address"
        },
        {
          "indexed": true,
          "internalType": "address",
          "name": "_seller",
          "type": "address"
        },
        {
          "indexed": false,
          "internalType": "contract IERC20",
          "name": "_token",
          "type": "address"
        },
        {
          "indexed": false,
          "internalType": "uint256",
          "name": "_amount",
          "type": "uint256"
        },
        {
          "indexed": false,
          "internalType": "uint256",
          "name": "_deadline",
          "type": "uint256"
        }
      ],
      "name": "ERC20TransactionCreated",
      "type": "event"
    },
    {
      "anonymous": false,
      "inputs": [
        {
          "indexed": true,
          "internalType": "uint256",
          "name": "_transactionID",
          "type": "uint256"
        },
        {
          "indexed": false,
          "internalType": "enum Party",
          "name": "_party",
          "type": "uint8"
        }
      ],
      "name": "HasToPayFee",
      "type": "event"
    },
    {
      "anonymous": false,
      "inputs": [
        {
          "indexed": true,
          "internalType": "uint256",
          "name": "_transactionID",
          "type": "uint256"
        },
        {
          "indexed": false,
          "internalType": "string",
          "name": "_transactionUri",
          "type": "string"
        },
        {
          "indexed": true,
          "internalType": "address",
          "name": "_buyer",
          "type": "address"
        },
        {
          "indexed": true,
          "internalType": "address",
          "name": "_seller",
          "type": "address"
        },
        {
          "indexed": false,
          "internalType": "uint256",
          "name": "_amount",
          "type": "uint256"
        },
        {
          "indexed": false,
          "internalType": "uint256",
          "name": "_deadline",
          "type": "uint256"
        }
      ],
      "name": "NativeTransactionCreated",
      "type": "event"
    },
    {
      "anonymous": false,
      "inputs": [
        {
          "indexed": false,
          "internalType": "uint256",
          "name": "_feeTimeout",
          "type": "uint256"
        },
        {
          "indexed": false,
          "internalType": "uint256",
          "name": "_settlementTimeout",
          "type": "uint256"
        },
        {
          "indexed": false,
          "internalType": "bytes",
          "name": "_arbitratorExtraData",
          "type": "bytes"
        }
      ],
      "name": "ParameterUpdated",
      "type": "event"
    },
    {
      "anonymous": false,
      "inputs": [
        {
          "indexed": true,
          "internalType": "uint256",
          "name": "_transactionID",
          "type": "uint256"
        },
        {
          "indexed": false,
          "internalType": "uint256",
          "name": "_amount",
          "type": "uint256"
        },
        {
          "indexed": false,
          "internalType": "address",
          "name": "_party",
          "type": "address"
        }
      ],
      "name": "Payment",
      "type": "event"
    },
    {
      "anonymous": false,
      "inputs": [
        {
          "indexed": true,
          "internalType": "contract IArbitratorV2",
          "name": "_arbitrator",
          "type": "address"
        },
        {
          "indexed": true,
          "internalType": "uint256",
          "name": "_disputeID",
          "type": "uint256"
        },
        {
          "indexed": false,
          "internalType": "uint256",
          "name": "_ruling",
          "type": "uint256"
        }
      ],
      "name": "Ruling",
      "type": "event"
    },
    {
      "anonymous": false,
      "inputs": [
        {
          "indexed": true,
          "internalType": "uint256",
          "name": "_transactionID",
          "type": "uint256"
        },
        {
          "indexed": false,
          "internalType": "enum Party",
          "name": "_party",
          "type": "uint8"
        },
        {
          "indexed": false,
          "internalType": "uint256",
          "name": "_amount",
          "type": "uint256"
        }
      ],
      "name": "SettlementProposed",
      "type": "event"
    },
    {
      "anonymous": false,
      "inputs": [
        {
          "indexed": true,
          "internalType": "uint256",
          "name": "_transactionID",
          "type": "uint256"
        },
        {
          "indexed": true,
          "internalType": "enum Resolution",
          "name": "_resolution",
          "type": "uint8"
        }
      ],
      "name": "TransactionResolved",
      "type": "event"
    },
    {
      "inputs": [],
      "name": "AMOUNT_OF_CHOICES",
      "outputs": [
        {
          "internalType": "uint256",
          "name": "",
          "type": "uint256"
        }
      ],
      "stateMutability": "view",
      "type": "function"
    },
    {
      "inputs": [
        {
          "internalType": "uint256",
          "name": "_transactionID",
          "type": "uint256"
        }
      ],
      "name": "acceptSettlement",
      "outputs": [],
      "stateMutability": "nonpayable",
      "type": "function"
    },
    {
      "inputs": [],
      "name": "arbitrator",
      "outputs": [
        {
          "internalType": "contract IArbitratorV2",
          "name": "",
          "type": "address"
        }
      ],
      "stateMutability": "view",
      "type": "function"
    },
    {
      "inputs": [],
      "name": "arbitratorExtraData",
      "outputs": [
        {
          "internalType": "bytes",
          "name": "",
          "type": "bytes"
        }
      ],
      "stateMutability": "view",
      "type": "function"
    },
    {
      "inputs": [
        {
          "internalType": "contract IArbitratorV2",
          "name": "_arbitrator",
          "type": "address"
        }
      ],
      "name": "changeArbitrator",
      "outputs": [],
      "stateMutability": "nonpayable",
      "type": "function"
    },
    {
      "inputs": [
        {
          "internalType": "bytes",
          "name": "_arbitratorExtraData",
          "type": "bytes"
        }
      ],
      "name": "changeArbitratorExtraData",
      "outputs": [],
      "stateMutability": "nonpayable",
      "type": "function"
    },
    {
      "inputs": [
        {
          "internalType": "string",
          "name": "_templateData",
          "type": "string"
        },
        {
          "internalType": "string",
          "name": "_templateDataMappings",
          "type": "string"
        }
      ],
      "name": "changeDisputeTemplate",
      "outputs": [],
      "stateMutability": "nonpayable",
      "type": "function"
    },
    {
      "inputs": [
        {
          "internalType": "uint256",
          "name": "_feeTimeout",
          "type": "uint256"
        }
      ],
      "name": "changeFeeTimeout",
      "outputs": [],
      "stateMutability": "nonpayable",
      "type": "function"
    },
    {
      "inputs": [
        {
          "internalType": "address",
          "name": "_governor",
          "type": "address"
        }
      ],
      "name": "changeGovernor",
      "outputs": [],
      "stateMutability": "nonpayable",
      "type": "function"
    },
    {
      "inputs": [
        {
          "internalType": "uint256",
          "name": "_settlementTimeout",
          "type": "uint256"
        }
      ],
      "name": "changeSettlementTimeout",
      "outputs": [],
      "stateMutability": "nonpayable",
      "type": "function"
    },
    {
      "inputs": [
        {
          "internalType": "contract IDisputeTemplateRegistry",
          "name": "_templateRegistry",
          "type": "address"
        }
      ],
      "name": "changeTemplateRegistry",
      "outputs": [],
      "stateMutability": "nonpayable",
      "type": "function"
    },
    {
      "inputs": [
        {
          "internalType": "uint256",
          "name": "_amount",
          "type": "uint256"
        },
        {
          "internalType": "contract IERC20",
          "name": "_token",
          "type": "address"
        },
        {
          "internalType": "uint256",
          "name": "_deadline",
          "type": "uint256"
        },
        {
          "internalType": "string",
          "name": "_transactionUri",
          "type": "string"
        },
        {
          "internalType": "address payable",
          "name": "_seller",
          "type": "address"
        }
      ],
      "name": "createERC20Transaction",
      "outputs": [
        {
          "internalType": "uint256",
          "name": "transactionID",
          "type": "uint256"
        }
      ],
      "stateMutability": "nonpayable",
      "type": "function"
    },
    {
      "inputs": [
        {
          "internalType": "uint256",
          "name": "_deadline",
          "type": "uint256"
        },
        {
          "internalType": "string",
          "name": "_transactionUri",
          "type": "string"
        },
        {
          "internalType": "address payable",
          "name": "_seller",
          "type": "address"
        }
      ],
      "name": "createNativeTransaction",
      "outputs": [
        {
          "internalType": "uint256",
          "name": "transactionID",
          "type": "uint256"
        }
      ],
      "stateMutability": "payable",
      "type": "function"
    },
    {
      "inputs": [
        {
          "internalType": "uint256",
          "name": "",
          "type": "uint256"
        }
      ],
      "name": "disputeIDtoTransactionID",
      "outputs": [
        {
          "internalType": "uint256",
          "name": "",
          "type": "uint256"
        }
      ],
      "stateMutability": "view",
      "type": "function"
    },
    {
      "inputs": [
        {
          "internalType": "uint256",
          "name": "_transactionID",
          "type": "uint256"
        }
      ],
      "name": "executeTransaction",
      "outputs": [],
      "stateMutability": "nonpayable",
      "type": "function"
    },
    {
      "inputs": [],
      "name": "feeTimeout",
      "outputs": [
        {
          "internalType": "uint256",
          "name": "",
          "type": "uint256"
        }
      ],
      "stateMutability": "view",
      "type": "function"
    },
    {
      "inputs": [],
      "name": "getTransactionCount",
      "outputs": [
        {
          "internalType": "uint256",
          "name": "",
          "type": "uint256"
        }
      ],
      "stateMutability": "view",
      "type": "function"
    },
    {
      "inputs": [],
      "name": "governor",
      "outputs": [
        {
          "internalType": "address",
          "name": "",
          "type": "address"
        }
      ],
      "stateMutability": "view",
      "type": "function"
    },
    {
      "inputs": [
        {
          "internalType": "uint256",
          "name": "_transactionID",
          "type": "uint256"
        },
        {
          "internalType": "uint256",
          "name": "_amount",
          "type": "uint256"
        }
      ],
      "name": "pay",
      "outputs": [],
      "stateMutability": "nonpayable",
      "type": "function"
    },
    {
      "inputs": [
        {
          "internalType": "uint256",
          "name": "_transactionID",
          "type": "uint256"
        }
      ],
      "name": "payArbitrationFeeByBuyer",
      "outputs": [],
      "stateMutability": "payable",
      "type": "function"
    },
    {
      "inputs": [
        {
          "internalType": "uint256",
          "name": "_transactionID",
          "type": "uint256"
        }
      ],
      "name": "payArbitrationFeeBySeller",
      "outputs": [],
      "stateMutability": "payable",
      "type": "function"
    },
    {
      "inputs": [
        {
          "internalType": "uint256",
          "name": "_transactionID",
          "type": "uint256"
        },
        {
          "internalType": "uint256",
          "name": "_amount",
          "type": "uint256"
        }
      ],
      "name": "proposeSettlement",
      "outputs": [],
      "stateMutability": "nonpayable",
      "type": "function"
    },
    {
      "inputs": [
        {
          "internalType": "uint256",
          "name": "_transactionID",
          "type": "uint256"
        },
        {
          "internalType": "uint256",
          "name": "_amountReimbursed",
          "type": "uint256"
        }
      ],
      "name": "reimburse",
      "outputs": [],
      "stateMutability": "nonpayable",
      "type": "function"
    },
    {
      "inputs": [
        {
          "internalType": "uint256",
          "name": "_disputeID",
          "type": "uint256"
        },
        {
          "internalType": "uint256",
          "name": "_ruling",
          "type": "uint256"
        }
      ],
      "name": "rule",
      "outputs": [],
      "stateMutability": "nonpayable",
      "type": "function"
    },
    {
      "inputs": [],
      "name": "settlementTimeout",
      "outputs": [
        {
          "internalType": "uint256",
          "name": "",
          "type": "uint256"
        }
      ],
      "stateMutability": "view",
      "type": "function"
    },
    {
      "inputs": [],
      "name": "templateId",
      "outputs": [
        {
          "internalType": "uint256",
          "name": "",
          "type": "uint256"
        }
      ],
      "stateMutability": "view",
      "type": "function"
    },
    {
      "inputs": [],
      "name": "templateRegistry",
      "outputs": [
        {
          "internalType": "contract IDisputeTemplateRegistry",
          "name": "",
          "type": "address"
        }
      ],
      "stateMutability": "view",
      "type": "function"
    },
    {
      "inputs": [
        {
          "internalType": "uint256",
          "name": "_transactionID",
          "type": "uint256"
        }
      ],
      "name": "timeOutByBuyer",
      "outputs": [],
      "stateMutability": "nonpayable",
      "type": "function"
    },
    {
      "inputs": [
        {
          "internalType": "uint256",
          "name": "_transactionID",
          "type": "uint256"
        }
      ],
      "name": "timeOutBySeller",
      "outputs": [],
      "stateMutability": "nonpayable",
      "type": "function"
    },
    {
      "inputs": [
        {
          "internalType": "uint256",
          "name": "",
          "type": "uint256"
        }
      ],
      "name": "transactions",
      "outputs": [
        {
          "internalType": "address payable",
          "name": "buyer",
          "type": "address"
        },
        {
          "internalType": "address payable",
          "name": "seller",
          "type": "address"
        },
        {
          "internalType": "uint256",
          "name": "amount",
          "type": "uint256"
        },
        {
          "internalType": "uint256",
          "name": "settlementBuyer",
          "type": "uint256"
        },
        {
          "internalType": "uint256",
          "name": "settlementSeller",
          "type": "uint256"
        },
        {
          "internalType": "uint256",
          "name": "deadline",
          "type": "uint256"
        },
        {
          "internalType": "uint256",
          "name": "disputeID",
          "type": "uint256"
        },
        {
          "internalType": "uint256",
          "name": "buyerFee",
          "type": "uint256"
        },
        {
          "internalType": "uint256",
          "name": "sellerFee",
          "type": "uint256"
        },
        {
          "internalType": "uint256",
          "name": "lastFeePaymentTime",
          "type": "uint256"
        },
        {
          "internalType": "enum Status",
          "name": "status",
          "type": "uint8"
        },
        {
          "internalType": "contract IERC20",
          "name": "token",
          "type": "address"
        }
      ],
      "stateMutability": "view",
      "type": "function"
    }
  ],
  "transactionHash": "0x73ca2ac99228baf708968c1a452408e62f0aa8fee8990c2e847624fd648ba8c1",
  "args": [
    "0xA54e7A16d7460e38a8F324eF46782FB520d58CE8",
    "0x00000000000000000000000000000000000000000000000000000000000000010000000000000000000000000000000000000000000000000000000000000003",
    "{\n  \"$schema\": \"../NewDisputeTemplate.schema.json\",\n  \"title\": \"Escrow dispute: {{escrowTitle}}\", \n  \"description\": \"{{deliverableText}}\", \n  \"question\": \"Which party abided by the terms of the contract?\",\n  \"answers\": [\n    {\n      \"title\": \"Refund the Buyer\",\n      \"description\": \"Select this to return the funds to the Buyer.\"\n    },\n    {\n      \"title\": \"Pay the Seller\",\n      \"description\": \"Select this to release the funds to the Seller.\"\n    }\n  ],\n  \"policyURI\": \"/ipfs/XxxxxXXX/escrow-general-policy.pdf\", \n  \"attachment\": { \n    \"label\": \"Transaction Terms\",\n    \"uri\": \"{{{extraDescriptionUri}}}\"\n  },\n  \"frontendUrl\": \"https://escrow-v2.kleros.builders/#/transactions/{{externalDisputeID}}\", \n  \"arbitrableChainID\": \"421614\",\n  \"arbitrableAddress\": \"0xFromContext\",\n  \"arbitratorChainID\": \"421614\",\n  \"arbitratorAddress\": \"0xA54e7A16d7460e38a8F324eF46782FB520d58CE8\", \n  \"metadata\": {\n    \"buyer\": \"{{buyer}}\",\n    \"seller\": \"{{seller}}\",\n    \"amount\": \"{{amount}}\",\n    \"token\": \"{{token}}\",\n    \"deadline\": \"{{deadline}}\",\n    \"transactionUri\": \"{{{transactionUri}}}\" \n  },\n  \"category\": \"Escrow\",\n  \"specification\": \"KIPXXX\",\n  \"aliases\": {\n    \"Buyer\": \"{{buyer}}\",\n    \"Seller\": \"{{seller}}\"\n  },\n  \"version\": \"1.0\"\n}\n",
    "[\n  {\n    \"type\": \"graphql\",\n    \"endpoint\": \"https://gateway-arbitrum.network.thegraph.com/api/{{{graphApiKey}}}/subgraphs/id/3aZxYcZpZL5BuVhuUupqVrCV8VeNyZEvjmPXibyPHDFQ\",\n    \"query\": \"query GetTransaction($transactionId: ID!) { escrow(id: $transactionId) { transactionUri buyer seller amount token deadline } }\",\n    \"variables\": {\n      \"transactionId\": \"{{externalDisputeID}}\"\n    },\n    \"seek\": [\"escrow.transactionUri\", \"escrow.buyer\", \"escrow.seller\", \"escrow.amount\", \"escrow.token\", \"escrow.deadline\"],\n    \"populate\": [\"transactionUri\", \"buyer\", \"seller\", \"amount\", \"token\", \"deadline\"]\n  },\n  {\n    \"type\": \"fetch/ipfs/json\",\n    \"ipfsUri\": \"{{{transactionUri}}}\",\n    \"seek\": [\"title\", \"description\", \"extraDescriptionUri\"],\n    \"populate\": [\"escrowTitle\", \"deliverableText\", \"extraDescriptionUri\"]\n  }\n]",
    "0x596D3B09E684D62217682216e9b7a0De75933391",
    600,
    600
  ],
  "numDeployments": 5,
  "solcInputHash": "dbddde37f87a84779f9e7a796f534c7c",
  "bytecode": "0x60806040523480156200001157600080fd5b506040516200324138038062003241833981016040819052620000349162000233565b60008054336001600160a01b031991821617909155600180549091166001600160a01b03891617905560026200006b878262000393565b50600380546001600160a01b0319166001600160a01b038516908117909155600583905560068290556040516312a6505d60e21b8152634a99417490620000b990889088906004016200048d565b6020604051808303816000875af1158015620000d9573d6000803e3d6000fd5b505050506040513d601f19601f82011682018060405250810190620000ff9190620004cd565b6004556040517ff0d0a0b363c32316c3e6e7e797bbc126af09c634db439ed65a3f96afe7ae2367906200013890849084908a90620004e7565b60405180910390a15050505050505062000508565b6001600160a01b03811681146200016357600080fd5b50565b634e487b7160e01b600052604160045260246000fd5b60005b83811015620001995781810151838201526020016200017f565b50506000910152565b600082601f830112620001b457600080fd5b81516001600160401b0380821115620001d157620001d162000166565b604051601f8301601f19908116603f01168101908282118183101715620001fc57620001fc62000166565b816040528381528660208588010111156200021657600080fd5b620002298460208301602089016200017c565b9695505050505050565b600080600080600080600060e0888a0312156200024f57600080fd5b87516200025c816200014d565b60208901519097506001600160401b03808211156200027a57600080fd5b620002888b838c01620001a2565b975060408a01519150808211156200029f57600080fd5b620002ad8b838c01620001a2565b965060608a0151915080821115620002c457600080fd5b50620002d38a828b01620001a2565b9450506080880151620002e6816200014d565b8093505060a0880151915060c0880151905092959891949750929550565b600181811c908216806200031957607f821691505b6020821081036200033a57634e487b7160e01b600052602260045260246000fd5b50919050565b601f8211156200038e57600081815260208120601f850160051c81016020861015620003695750805b601f850160051c820191505b818110156200038a5782815560010162000375565b5050505b505050565b81516001600160401b03811115620003af57620003af62000166565b620003c781620003c0845462000304565b8462000340565b602080601f831160018114620003ff5760008415620003e65750858301515b600019600386901b1c1916600185901b1785556200038a565b600085815260208120601f198616915b8281101562000430578886015182559484019460019091019084016200040f565b50858210156200044f5787850151600019600388901b60f8161c191681555b5050505050600190811b01905550565b60008151808452620004798160208601602086016200017c565b601f01601f19169290920160200192915050565b6060815260006060820152608060208201526000620004b060808301856200045f565b8281036040840152620004c481856200045f565b95945050505050565b600060208284031215620004e057600080fd5b5051919050565b838152826020820152606060408201526000620004c460608301846200045f565b612d2980620005186000396000f3fe60806040526004361061018d5760003560e01c806393ee2678116100d7578063e3f07e9011610085578063e3f07e901461044b578063e4c0aaf41461046b578063e77d0bd31461048b578063e98c579b146104ab578063ee22610b146104cb578063ef48eee6146104eb578063fc548f081461050b578063fe43a9921461052b57600080fd5b806393ee26781461035d5780639ace38c21461037d578063a0af81f0146103b5578063b2b96792146103d5578063b329036b146103f5578063c5d552881461040b578063cb44c3fa1461042b57600080fd5b80632fbe3b031161013f5780632fbe3b0314610271578063311a6c561461029e57806334e2672d146102be5780633bf54724146102de578063441080fe146102f15780634660ebbe146103075780636cc6cde1146103275780637aa77f291461034757600080fd5b80630c340a24146101925780630c7ac7b6146101cf5780631bd1823a146101f15780632a7027de146102135780632be6d005146102345780632e0b6422146102475780632e7700f01461025c575b600080fd5b34801561019e57600080fd5b506000546101b2906001600160a01b031681565b6040516001600160a01b0390911681526020015b60405180910390f35b3480156101db57600080fd5b506101e461054b565b6040516101c69190612512565b3480156101fd57600080fd5b5061021161020c36600461252c565b6105d9565b005b610226610221366004612600565b6106d0565b6040519081526020016101c6565b61021161024236600461252c565b610838565b34801561025357600080fd5b50610226600281565b34801561026857600080fd5b50600754610226565b34801561027d57600080fd5b5061022661028c36600461252c565b60086020526000908152604090205481565b3480156102aa57600080fd5b506102116102b936600461265b565b610a86565b3480156102ca57600080fd5b506102116102d936600461267d565b610b96565b6102116102ec36600461252c565b610c02565b3480156102fd57600080fd5b5061022660065481565b34801561031357600080fd5b506102116103223660046126ef565b610e37565b34801561033357600080fd5b506001546101b2906001600160a01b031681565b34801561035357600080fd5b5061022660045481565b34801561036957600080fd5b5061021161037836600461252c565b610e84565b34801561038957600080fd5b5061039d61039836600461252c565b6110bb565b6040516101c69c9b9a99989796959493929190612722565b3480156103c157600080fd5b506003546101b2906001600160a01b031681565b3480156103e157600080fd5b506102116103f036600461265b565b611140565b34801561040157600080fd5b5061022660055481565b34801561041757600080fd5b506102116104263660046127a3565b6113af565b34801561043757600080fd5b5061021161044636600461252c565b611456565b34801561045757600080fd5b50610226610466366004612807565b6114b6565b34801561047757600080fd5b506102116104863660046126ef565b611665565b34801561049757600080fd5b506102116104a636600461252c565b6116b2565b3480156104b757600080fd5b506102116104c636600461252c565b611792565b3480156104d757600080fd5b506102116104e636600461252c565b6117e6565b3480156104f757600080fd5b5061021161050636600461265b565b61193b565b34801561051757600080fd5b506102116105263660046126ef565b611aed565b34801561053757600080fd5b5061021161054636600461265b565b611b3a565b600280546105589061287f565b80601f01602080910402602001604051908101604052809291908181526020018280546105849061287f565b80156105d15780601f106105a6576101008083540402835291602001916105d1565b820191906000526020600020905b8154815290600101906020018083116105b457829003601f168201915b505050505081565b6000600782815481106105ee576105ee6128b9565b60009182526020909120600b9091020190506003600a82015460ff16600681111561061b5761061b61270c565b1461063957604051635ed7670b60e11b815260040160405180910390fd5b600554600982015461064b90426128e5565b101561066a57604051634799187b60e01b815260040160405180910390fd5b6007810180546000909155610680836002611ccd565b80156106af5781546040516001600160a01b039091169082156108fc029083906000818181858888f150505050505b60025b6040518490600080516020612c9483398151915290600090a3505050565b600780546001808201835560008381527fa66cc928b5edb82af9bd49922954155ab7b0942694bea4ce44661d9a8736c688600b9093029283018054336001600160a01b03199182161782557fa66cc928b5edb82af9bd49922954155ab7b0942694bea4ce44661d9a8736c689850180549091166001600160a01b038816179055347fa66cc928b5edb82af9bd49922954155ab7b0942694bea4ce44661d9a8736c68a8501557fa66cc928b5edb82af9bd49922954155ab7b0942694bea4ce44661d9a8736c69284018054610100600160a81b03191690557fa66cc928b5edb82af9bd49922954155ab7b0942694bea4ce44661d9a8736c68d90930187905592546107da91906128e5565b9150826001600160a01b0316336001600160a01b0316837f0a7ca50c43ec865fdc8519822762f88432e18409024b9c036d6507b9c8f79d8087348660050154604051610828939291906128fe565b60405180910390a4509392505050565b60006007828154811061084d5761084d6128b9565b60009182526020909120600b9091020190506001600a82015460ff16600681111561087a5761087a61270c565b141580156108a157506002600a82015460ff16600681111561089e5761089e61270c565b14155b80156108c657506003600a82015460ff1660068111156108c3576108c361270c565b14155b156108e45760405163376af24960e21b815260040160405180910390fd5b6002600a82015460ff1660068111156108ff576108ff61270c565b14801561091b5750600654600982015461091990426128e5565b105b1561093957604051630627cd6b60e01b815260040160405180910390fd5b80546001600160a01b031633146109635760405163e2bc376b60e01b815260040160405180910390fd5b348160070160008282546109779190612923565b909155505060015460405163f7434ea960e01b81526000916001600160a01b03169063f7434ea9906109ae906002906004016129b3565b602060405180830381865afa1580156109cb573d6000803e3d6000fd5b505050506040513d601f19601f820116820180604052508101906109ef91906129c6565b90508082600701541015610a1657604051631a48f3db60e11b815260040160405180910390fd5b4260098301556008820154811115610a7757600a8201805460ff1916600417905560405183907fc74b9f7dedf2887cd3c113b6d8da9cea19e55c1116e25f1f0e1b72d7543179b590610a6a906002906129f3565b60405180910390a2505050565b610a81838261214c565b505050565b6001546001600160a01b03163314610ab157604051630955f84760e31b815260040160405180910390fd5b6002811115610ad3576040516309efd47960e41b815260040160405180910390fd5b6000828152600860205260408120546007805491929183908110610af957610af96128b9565b60009182526020909120600b9091020190506005600a82015460ff166006811115610b2657610b2661270c565b14610b445760405163f10068b560e01b815260040160405180910390fd5b60015460405184815285916001600160a01b0316907f394027a5fa6e098a1191094d1719d6929b9abc535fcc0c8f448d6a4e756222769060200160405180910390a3610b908284611ccd565b50505050565b6000546001600160a01b03163314610bc15760405163c383977560e01b815260040160405180910390fd5b6002610bce828483612a4f565b50600080516020612cb48339815191526005546006548484604051610bf69493929190612b10565b60405180910390a15050565b600060078281548110610c1757610c176128b9565b60009182526020909120600b9091020190506001600a82015460ff166006811115610c4457610c4461270c565b14158015610c6b57506002600a82015460ff166006811115610c6857610c6861270c565b14155b8015610c9057506004600a82015460ff166006811115610c8d57610c8d61270c565b14155b15610cae5760405163365105ef60e11b815260040160405180910390fd5b6001600a82015460ff166006811115610cc957610cc961270c565b148015610ce557506006546009820154610ce390426128e5565b105b15610d0357604051630627cd6b60e01b815260040160405180910390fd5b60018101546001600160a01b03163314610d3057604051635800797f60e11b815260040160405180910390fd5b34816008016000828254610d449190612923565b909155505060015460405163f7434ea960e01b81526000916001600160a01b03169063f7434ea990610d7b906002906004016129b3565b602060405180830381865afa158015610d98573d6000803e3d6000fd5b505050506040513d601f19601f82011682018060405250810190610dbc91906129c6565b90508082600801541015610de35760405163818d938f60e01b815260040160405180910390fd5b4260098301556007820154811115610a7757600a8201805460ff1916600317905560405183907fc74b9f7dedf2887cd3c113b6d8da9cea19e55c1116e25f1f0e1b72d7543179b590610a6a906001906129f3565b6000546001600160a01b03163314610e625760405163c383977560e01b815260040160405180910390fd5b600380546001600160a01b0319166001600160a01b0392909216919091179055565b600060078281548110610e9957610e996128b9565b600091825260208220600b9091020191506001600a83015460ff166006811115610ec557610ec561270c565b03610eff5781546001600160a01b03163314610ef45760405163e2bc376b60e01b815260040160405180910390fd5b506004810154610f70565b6002600a83015460ff166006811115610f1a57610f1a61270c565b03610f575760018201546001600160a01b03163314610f4c57604051635800797f60e11b815260040160405180910390fd5b506003810154610f70565b604051630a7b6ec160e01b815260040160405180910390fd5b6000818360020154610f8291906128e5565b600060028501819055600385018190556004850155600a8401805460ff1916600617908190559091506001600160a01b03610100909104166110175782546040516001600160a01b039091169082156108fc029083906000818181858888f150505060018501546040516001600160a01b03909116925084156108fc02915084906000818181858888f193505050505061109a565b8254600a84015461103a916001600160a01b036101009092048216911683612313565b6110575760405163022e258160e11b815260040160405180910390fd5b6001830154600a84015461107d916001600160a01b036101009092048216911684612313565b61109a5760405163022e258160e11b815260040160405180910390fd5b60046040518590600080516020612c9483398151915290600090a350505050565b600781815481106110cb57600080fd5b60009182526020909120600b9091020180546001820154600283015460038401546004850154600586015460068701546007880154600889015460098a0154600a909a01546001600160a01b03998a169b50978916999698959794969395929491939092909160ff811691610100909104168c565b600060078381548110611155576111556128b9565b600091825260208220600b909102019150600a82015460ff16600681111561117f5761117f61270c565b148015611190575080600501544210155b156111ae576040516338e5e54b60e21b815260040160405180910390fd5b6003600a82015460ff1660068111156111c9576111c961270c565b106111e757604051630d71592960e31b815260040160405180910390fd5b806002015482111561120c576040516305aafecf60e01b815260040160405180910390fd5b42600982015560006001600a83015460ff16600681111561122f5761122f61270c565b036112855781546001600160a01b0316331461125e5760405163e2bc376b60e01b815260040160405180910390fd5b60038201839055600a820180546002919060ff19166001835b02179055506001905061136f565b6002600a83015460ff1660068111156112a0576112a061270c565b036112f85760018201546001600160a01b031633146112d257604051635800797f60e11b815260040160405180910390fd5b60048201839055600a820180546001919060ff191682805b02179055506002905061136f565b81546001600160a01b031633036113265760038201839055600a820180546002919060ff1916600183611277565b60018201546001600160a01b031633036113565760048201839055600a820180546001919060ff191682806112ea565b60405163351c18ff60e21b815260040160405180910390fd5b837f10c8b22b69e324b0227c6adfa65183c771304c11385423e93ce99779a7483dbf82856040516113a1929190612b4d565b60405180910390a250505050565b6000546001600160a01b031633146113da5760405163c383977560e01b815260040160405180910390fd5b6003546040516312a6505d60e21b81526001600160a01b0390911690634a9941749061140c9085908590600401612b68565b6020604051808303816000875af115801561142b573d6000803e3d6000fd5b505050506040513d601f19601f8201168201806040525081019061144f91906129c6565b6004555050565b6000546001600160a01b031633146114815760405163c383977560e01b815260040160405180910390fd5b6005819055600654604051600080516020612cb4833981519152916114ab91849190600290612ba4565b60405180910390a150565b60006114cd6001600160a01b0386163330896123e6565b6114ea5760405163022e258160e11b815260040160405180910390fd5b60078054600181810183556000839052600b9091027fa66cc928b5edb82af9bd49922954155ab7b0942694bea4ce44661d9a8736c688810180546001600160a01b0319908116331782557fa66cc928b5edb82af9bd49922954155ab7b0942694bea4ce44661d9a8736c689830180546001600160a01b03898116919093161790557fa66cc928b5edb82af9bd49922954155ab7b0942694bea4ce44661d9a8736c68a83018b90557fa66cc928b5edb82af9bd49922954155ab7b0942694bea4ce44661d9a8736c69283018054918b1661010002610100600160a81b03199092169190911790557fa66cc928b5edb82af9bd49922954155ab7b0942694bea4ce44661d9a8736c68d909101879055915461160391906128e5565b9150826001600160a01b0316336001600160a01b0316837fb96ca2c0c34e2ad6384277748b8101f4bddc3cbeaad7086e59cd315bd19aa8c5878a8c87600501546040516116539493929190612bc3565b60405180910390a45095945050505050565b6000546001600160a01b031633146116905760405163c383977560e01b815260040160405180910390fd5b600080546001600160a01b0319166001600160a01b0392909216919091179055565b6000600782815481106116c7576116c76128b9565b60009182526020909120600b9091020190506004600a82015460ff1660068111156116f4576116f461270c565b1461171257604051638225aba560e01b815260040160405180910390fd5b600554600982015461172490426128e5565b101561174357604051634799187b60e01b815260040160405180910390fd5b6008810180546000909155611759836001611ccd565b801561178b5760018201546040516001600160a01b039091169082156108fc029083906000818181858888f150505050505b60016106b2565b6000546001600160a01b031633146117bd5760405163c383977560e01b815260040160405180910390fd5b6006819055600554604051600080516020612cb4833981519152916114ab918490600290612ba4565b6000600782815481106117fb576117fb6128b9565b90600052602060002090600b020190508060050154421015611830576040516302eb354360e41b815260040160405180910390fd5b6000600a82015460ff16600681111561184b5761184b61270c565b1461186957604051634e22597f60e11b815260040160405180910390fd5b6002810180546000909155600a8201805460ff1916600617908190556001600160a01b03610100909104166118c95760018201546040516001600160a01b039091169082156108fc029083906000818181858888f193505050505061190c565b6001820154600a8301546118ef916001600160a01b036101009092048216911683612313565b61190c5760405163022e258160e11b815260040160405180910390fd5b82600080516020612cd4833981519152823360405161192c929190612bfb565b60405180910390a260006106b2565b600060078381548110611950576119506128b9565b60009182526020909120600b9091020180549091506001600160a01b0316331461198d5760405163e2bc376b60e01b815260040160405180910390fd5b6000600a82015460ff1660068111156119a8576119a861270c565b146119c657604051634e22597f60e11b815260040160405180910390fd5b80600201548211156119eb576040516305aafecf60e01b815260040160405180910390fd5b82600080516020612cd48339815191528333604051611a0b929190612bfb565b60405180910390a281816002016000828254611a2791906128e5565b90915550506002810154600003611a6357600a8101805460ff191660061790556040516000908490600080516020612c94833981519152908390a35b600a81015461010090046001600160a01b0316611aaa5760018101546040516001600160a01b039091169083156108fc029084906000818181858888f15050505050505050565b6001810154600a820154611ad0916001600160a01b036101009092048216911684612313565b610a815760405163022e258160e11b815260040160405180910390fd5b6000546001600160a01b03163314611b185760405163c383977560e01b815260040160405180910390fd5b600180546001600160a01b0319166001600160a01b0392909216919091179055565b600060078381548110611b4f57611b4f6128b9565b600091825260209091206001600b90920201908101549091506001600160a01b03163314611b9057604051635800797f60e11b815260040160405180910390fd5b6000600a82015460ff166006811115611bab57611bab61270c565b14611bc957604051634e22597f60e11b815260040160405180910390fd5b8060020154821115611bee576040516305aafecf60e01b815260040160405180910390fd5b82600080516020612cd48339815191528333604051611c0e929190612bfb565b60405180910390a281816002016000828254611c2a91906128e5565b90915550506002810154600003611c6657600a8101805460ff191660061790556040516000908490600080516020612c94833981519152908390a35b600a81015461010090046001600160a01b0316611caa5780546040516001600160a01b039091169083156108fc029084906000818181858888f15050505050505050565b8054600a820154611ad0916001600160a01b036101009092048216911684612313565b600060078381548110611ce257611ce26128b9565b600091825260208220600b9190910201600281018054600383018054600485018054600787018054600889018054600a8b0180549a8d9055978c9055948b9055918a905598905560ff1986166006179093559496509194919390926001600160a01b0361010090910416156000198801611ec65786546040516001600160a01b039091169084156108fc029085906000818181858888f193505050505084600014611e4d578015611ded5786546001600160a01b03166108fc611da587896128e5565b6040518115909202916000818181858888f150505060018901546040516001600160a01b03909116925087156108fc02915087906000818181858888f1935050505050612126565b8654611e20906001600160a01b0316611e0687896128e5565b600a8a015461010090046001600160a01b03169190612313565b506001870154600a880154611e47916001600160a01b036101009092048216911687612313565b50612126565b8015611e815786546040516001600160a01b039091169087156108fc029088906000818181858888f1935050505050612126565b8654600a880154611ea4916001600160a01b036101009092048216911688612313565b611ec15760405163022e258160e11b815260040160405180910390fd5b612126565b600288036120055760018701546040516001600160a01b039091169083156108fc029084906000818181858888f193505050505083600014611fa8578015611f685786546001600160a01b03166108fc611f2086896128e5565b6040518115909202916000818181858888f150505060018901546040516001600160a01b03909116925086156108fc02915086906000818181858888f1935050505050612126565b8654611f81906001600160a01b0316611e0686896128e5565b506001870154600a880154611e47916001600160a01b036101009092048216911686612313565b8015611fdf5760018701546040516001600160a01b039091169087156108fc029088906000818181858888f1935050505050612126565b6001870154600a880154611ea4916001600160a01b036101009092048216911688612313565b6000612012600285612c12565b88546040519192506001600160a01b03169082156108fc029083906000818181858888f150505060018a01546040516001600160a01b03909116925083156108fc02915083906000818181858888f193505050505060006002886120769190612c12565b905082156120d75788546040516001600160a01b039091169082156108fc029083906000818181858888f150505060018b01546040516001600160a01b03909116925083156108fc02915083906000818181858888f1935050505050612123565b8854600a8a01546120fa916001600160a01b036101009092048216911683612313565b506001890154600a8a0154612121916001600160a01b036101009092048216911683612313565b505b50505b60036040518a90600080516020612c9483398151915290600090a3505050505050505050565b600060078381548110612161576121616128b9565b60009182526020909120600a600b90920201908101805460ff1916600517905560015460405163c13517e160e01b81529192506001600160a01b03169063c13517e19084906121b7906002908190600401612c34565b60206040518083038185885af11580156121d5573d6000803e3d6000fd5b50505050506040513d601f19601f820116820180604052508101906121fa91906129c6565b60068201818155600091825260086020908152604080842087905591546001546004548451898152938401526060838501819052830194909452915191926001600160a01b0316917f8bd32f430ff060e6bd204709b3790c9807987263d3230c580dc80b5f89e271869181900360800190a381816007015411156122bc57600082826007015461228a91906128e5565b6007830184905582546040519192506001600160a01b03169082156108fc029083906000818181858888f15050505050505b8181600801541115610a815760008282600801546122da91906128e5565b6008830184905560018301546040519192506001600160a01b03169082156108fc029083906000818181858888f1505050505050505050565b6040516001600160a01b03838116602483015260448201839052600091829182919087169060640160408051601f198184030181529181526020820180516001600160e01b031663a9059cbb60e01b179052516123709190612c55565b6000604051808303816000865af19150503d80600081146123ad576040519150601f19603f3d011682016040523d82523d6000602084013e6123b2565b606091505b50915091508180156123dc5750805115806123dc5750808060200190518101906123dc9190612c71565b9695505050505050565b6040516001600160a01b038481166024830152838116604483015260648201839052600091829182919088169060840160408051601f198184030181529181526020820180516001600160e01b03166323b872dd60e01b1790525161244b9190612c55565b6000604051808303816000865af19150503d8060008114612488576040519150601f19603f3d011682016040523d82523d6000602084013e61248d565b606091505b50915091508180156124b75750805115806124b75750808060200190518101906124b79190612c71565b979650505050505050565b60005b838110156124dd5781810151838201526020016124c5565b50506000910152565b600081518084526124fe8160208601602086016124c2565b601f01601f19169290920160200192915050565b60208152600061252560208301846124e6565b9392505050565b60006020828403121561253e57600080fd5b5035919050565b634e487b7160e01b600052604160045260246000fd5b600082601f83011261256c57600080fd5b813567ffffffffffffffff8082111561258757612587612545565b604051601f8301601f19908116603f011681019082821181831017156125af576125af612545565b816040528381528660208588010111156125c857600080fd5b836020870160208301376000602085830101528094505050505092915050565b6001600160a01b03811681146125fd57600080fd5b50565b60008060006060848603121561261557600080fd5b83359250602084013567ffffffffffffffff81111561263357600080fd5b61263f8682870161255b565b9250506040840135612650816125e8565b809150509250925092565b6000806040838503121561266e57600080fd5b50508035926020909101359150565b6000806020838503121561269057600080fd5b823567ffffffffffffffff808211156126a857600080fd5b818501915085601f8301126126bc57600080fd5b8135818111156126cb57600080fd5b8660208285010111156126dd57600080fd5b60209290920196919550909350505050565b60006020828403121561270157600080fd5b8135612525816125e8565b634e487b7160e01b600052602160045260246000fd5b60006101808201905060018060a01b03808f168352808e1660208401528c60408401528b60608401528a60808401528960a08401528860c08401528760e08401528661010084015285610120840152600785106127815761278161270c565b84610140840152808416610160840152509d9c50505050505050505050505050565b600080604083850312156127b657600080fd5b823567ffffffffffffffff808211156127ce57600080fd5b6127da8683870161255b565b935060208501359150808211156127f057600080fd5b506127fd8582860161255b565b9150509250929050565b600080600080600060a0868803121561281f57600080fd5b853594506020860135612831816125e8565b935060408601359250606086013567ffffffffffffffff81111561285457600080fd5b6128608882890161255b565b9250506080860135612871816125e8565b809150509295509295909350565b600181811c9082168061289357607f821691505b6020821081036128b357634e487b7160e01b600052602260045260246000fd5b50919050565b634e487b7160e01b600052603260045260246000fd5b634e487b7160e01b600052601160045260246000fd5b818103818111156128f8576128f86128cf565b92915050565b60608152600061291160608301866124e6565b60208301949094525060400152919050565b808201808211156128f8576128f86128cf565b600081546129438161287f565b808552602060018381168015612960576001811461297a576129a8565b60ff1985168884015283151560051b8801830195506129a8565b866000528260002060005b858110156129a05781548a8201860152908301908401612985565b890184019650505b505050505092915050565b6020815260006125256020830184612936565b6000602082840312156129d857600080fd5b5051919050565b600381106129ef576129ef61270c565b9052565b602081016128f882846129df565b601f821115610a8157600081815260208120601f850160051c81016020861015612a285750805b601f850160051c820191505b81811015612a4757828155600101612a34565b505050505050565b67ffffffffffffffff831115612a6757612a67612545565b612a7b83612a75835461287f565b83612a01565b6000601f841160018114612aaf5760008515612a975750838201355b600019600387901b1c1916600186901b178355612b09565b600083815260209020601f19861690835b82811015612ae05786850135825560209485019460019092019101612ac0565b5086821015612afd5760001960f88860031b161c19848701351681555b505060018560011b0183555b5050505050565b84815283602082015260606040820152816060820152818360808301376000818301608090810191909152601f909201601f191601019392505050565b60408101612b5b82856129df565b8260208301529392505050565b6060815260006060820152608060208201526000612b8960808301856124e6565b8281036040840152612b9b81856124e6565b95945050505050565b838152826020820152606060408201526000612b9b6060830184612936565b608081526000612bd660808301876124e6565b6001600160a01b03959095166020830152506040810192909252606090910152919050565b9182526001600160a01b0316602082015260400190565b600082612c2f57634e487b7160e01b600052601260045260246000fd5b500490565b828152604060208201526000612c4d6040830184612936565b949350505050565b60008251612c678184602087016124c2565b9190910192915050565b600060208284031215612c8357600080fd5b8151801515811461252557600080fdfe89e6168584e1de3ec704ff46376271b5481b0d9b2b0ef0ae102f0d001093e000f0d0a0b363c32316c3e6e7e797bbc126af09c634db439ed65a3f96afe7ae2367d1432ca9a38d944f01b256a411861b109bc4bfe200c40d7144e919a16b86a8a8a26469706673582212202a06d0fa92a3f95d6a9047ea1427b776ee4789dc210466789df25a3645687f6364736f6c63430008120033",
  "devdoc": {
    "details": "Adapted from MultipleArbitrableTokenTransaction contract: https://github.com/kleros/kleros-interaction/blob/master/contracts/standard/arbitration/MultipleArbitrableTokenTransaction.sol and from MultipleArbitrableTransaction contract: https://github.com/kleros/kleros-interaction/blob/master/contracts/standard/arbitration/MultipleArbitrableTransaction.sol Note that the contract expects the tokens to have standard ERC20 behaviour. The tokens that don't conform to this type of behaviour should be filtered by the UI. Tokens should not reenter or allow recipients to refuse the transfer. Also note that arbitration fees are still paid in ETH.",
    "events": {
      "DisputeRequest(address,uint256,uint256,uint256,string)": {
        "details": "To be emitted when a dispute is created to link the correct meta-evidence to the disputeID.",
        "params": {
          "_arbitrableDisputeID": "The identifier of the dispute in the Arbitrable contract.",
          "_arbitrator": "The arbitrator of the contract.",
          "_externalDisputeID": "An identifier created outside Kleros by the protocol requesting arbitration.",
          "_templateId": "The identifier of the dispute template. Should not be used with _templateUri.",
          "_templateUri": "The URI to the dispute template. For example on IPFS: starting with '/ipfs/'. Should not be used with _templateId."
        }
      },
      "ERC20TransactionCreated(uint256,string,address,address,address,uint256,uint256)": {
        "details": "Emitted when a transaction paid in ERC20 token is created.",
        "params": {
          "_amount": "The initial amount in the transaction.",
          "_buyer": "The address of the buyer.",
          "_deadline": "The deadline of the transaction.",
          "_seller": "The address of the seller.",
          "_token": "The token address.",
          "_transactionID": "The index of the transaction.",
          "_transactionUri": "The IPFS Uri Hash of the transaction."
        }
      },
      "HasToPayFee(uint256,uint8)": {
        "details": "Indicate that a party has to pay a fee or would otherwise be considered as losing.",
        "params": {
          "_party": "The party who has to pay.",
          "_transactionID": "The index of the transaction."
        }
      },
      "NativeTransactionCreated(uint256,string,address,address,uint256,uint256)": {
        "details": "Emitted when a transaction paid in native currency is created.",
        "params": {
          "_amount": "The initial amount in the transaction.",
          "_buyer": "The address of the buyer.",
          "_deadline": "The deadline of the transaction.",
          "_seller": "The address of the seller.",
          "_transactionID": "The index of the transaction.",
          "_transactionUri": "The IPFS Uri Hash of the transaction."
        }
      },
      "ParameterUpdated(uint256,uint256,bytes)": {
        "details": "To be emitted when Escrow parameters are updated."
      },
      "Payment(uint256,uint256,address)": {
        "details": "To be emitted when a party pays or reimburses the other.",
        "params": {
          "_amount": "The amount paid.",
          "_party": "The party that paid.",
          "_transactionID": "The index of the transaction."
        }
      },
      "Ruling(address,uint256,uint256)": {
        "details": "To be raised when a ruling is given.",
        "params": {
          "_arbitrator": "The arbitrator giving the ruling.",
          "_disputeID": "The identifier of the dispute in the Arbitrator contract.",
          "_ruling": "The ruling which was given."
        }
      },
      "SettlementProposed(uint256,uint8,uint256)": {
        "details": "Emitted when a party proposes a settlement.",
        "params": {
          "_amount": "The amount proposed.",
          "_party": "The party that proposed a settlement.",
          "_transactionID": "The index of the transaction."
        }
      },
      "TransactionResolved(uint256,uint8)": {
        "details": "To be emitted when a transaction is resolved, either by its      execution, a timeout or because a ruling was enforced.",
        "params": {
          "_resolution": "Short description of what caused the transaction to be solved.",
          "_transactionID": "The ID of the respective transaction."
        }
      }
    },
    "kind": "dev",
    "methods": {
      "acceptSettlement(uint256)": {
        "details": "Accept a settlement proposed by the other party.",
        "params": {
          "_transactionID": "The index of the transaction."
        }
      },
      "constructor": {
        "details": "Constructor.",
        "params": {
          "_arbitrator": "The arbitrator of the contract.",
          "_arbitratorExtraData": "Extra data for the arbitrator.",
          "_feeTimeout": "Arbitration fee timeout for the parties.",
          "_settlementTimeout": "Settlement timeout for the parties.",
          "_templateData": "The dispute template data.",
          "_templateDataMappings": "The dispute template data mappings.",
          "_templateRegistry": "The dispute template registry."
        }
      },
      "createERC20Transaction(uint256,address,uint256,string,address)": {
        "details": "Create a transaction.",
        "params": {
          "_amount": "The amount of tokens in this transaction.",
          "_deadline": "Time after which a party can automatically execute the arbitrable transaction.",
          "_seller": "The recipient of the transaction.",
          "_token": "The ERC20 token contract.",
          "_transactionUri": "The IPFS Uri Hash of the transaction."
        },
        "returns": {
          "transactionID": "The index of the transaction."
        }
      },
      "createNativeTransaction(uint256,string,address)": {
        "details": "Create a transaction.",
        "params": {
          "_deadline": "Time after which a party can automatically execute the arbitrable transaction.",
          "_seller": "The recipient of the transaction.",
          "_transactionUri": "The IPFS Uri Hash of the transaction."
        },
        "returns": {
          "transactionID": "The index of the transaction."
        }
      },
      "executeTransaction(uint256)": {
        "details": "Transfer the transaction's amount to the seller if the timeout has passed.",
        "params": {
          "_transactionID": "The index of the transaction."
        }
      },
      "getTransactionCount()": {
        "details": "Getter to know the count of transactions.",
        "returns": {
          "_0": "The count of transactions."
        }
      },
      "pay(uint256,uint256)": {
        "details": "Pay seller. To be called if the good or service is provided.",
        "params": {
          "_amount": "Amount to pay in wei.",
          "_transactionID": "The index of the transaction."
        }
      },
      "payArbitrationFeeByBuyer(uint256)": {
        "details": "Pay the arbitration fee to raise a dispute. To be called by the buyer. Note that it can only be called after settlement proposition. Also note that the arbitrator can have createDispute throw, which will make      this function throw and therefore lead to a party being timed-out.      This is not a vulnerability as the arbitrator can rule in favor of one party anyway.",
        "params": {
          "_transactionID": "The index of the transaction."
        }
      },
      "payArbitrationFeeBySeller(uint256)": {
        "details": "Pay the arbitration fee to raise a dispute. To be called by the seller. Note that this function mirrors payArbitrationFeeByBuyer.",
        "params": {
          "_transactionID": "The index of the transaction."
        }
      },
      "proposeSettlement(uint256,uint256)": {
        "details": "Propose a settlement as a compromise from the initial terms to the other party.  Note that a party can only propose a settlement again after the other party has  done so as well to prevent front running/griefing issues.",
        "params": {
          "_amount": "The settlement amount.",
          "_transactionID": "The index of the transaction."
        }
      },
      "reimburse(uint256,uint256)": {
        "details": "Reimburse buyer. To be called if the good or service can't be fully provided.",
        "params": {
          "_amountReimbursed": "Amount to reimburse in wei.",
          "_transactionID": "The index of the transaction."
        }
      },
      "rule(uint256,uint256)": {
        "details": "Give a ruling for a dispute.      Must be called by the arbitrator.      The purpose of this function is to ensure that the address calling it has the right to rule on the contract.",
        "params": {
          "_disputeID": "The identifier of the dispute in the Arbitrator contract.",
          "_ruling": "Ruling given by the arbitrator. Note that 0 is reserved for \"Not able/wanting to make a decision\"."
        }
      },
      "timeOutByBuyer(uint256)": {
        "details": "Reimburse buyer if seller fails to pay the fee.",
        "params": {
          "_transactionID": "The index of the transaction."
        }
      },
      "timeOutBySeller(uint256)": {
        "details": "Pay seller if buyer fails to pay the fee.",
        "params": {
          "_transactionID": "The index of the transaction."
        }
      }
    },
    "title": "EscrowUniversal for a sale paid in native currency or ERC20 tokens without platform fees.",
    "version": 1
  },
  "userdoc": {
    "kind": "user",
    "methods": {},
    "version": 1
  },
  "storageLayout": {
    "storage": [
      {
        "astId": 262,
        "contract": "src/EscrowUniversal.sol:EscrowUniversal",
        "label": "governor",
        "offset": 0,
        "slot": "0",
        "type": "t_address"
      },
      {
        "astId": 265,
        "contract": "src/EscrowUniversal.sol:EscrowUniversal",
        "label": "arbitrator",
        "offset": 0,
        "slot": "1",
        "type": "t_contract(IArbitratorV2)134"
      },
      {
        "astId": 267,
        "contract": "src/EscrowUniversal.sol:EscrowUniversal",
        "label": "arbitratorExtraData",
        "offset": 0,
        "slot": "2",
        "type": "t_bytes_storage"
      },
      {
        "astId": 270,
        "contract": "src/EscrowUniversal.sol:EscrowUniversal",
        "label": "templateRegistry",
        "offset": 0,
        "slot": "3",
        "type": "t_contract(IDisputeTemplateRegistry)160"
      },
      {
        "astId": 272,
        "contract": "src/EscrowUniversal.sol:EscrowUniversal",
        "label": "templateId",
        "offset": 0,
        "slot": "4",
        "type": "t_uint256"
      },
      {
        "astId": 274,
        "contract": "src/EscrowUniversal.sol:EscrowUniversal",
        "label": "feeTimeout",
        "offset": 0,
        "slot": "5",
        "type": "t_uint256"
      },
      {
        "astId": 276,
        "contract": "src/EscrowUniversal.sol:EscrowUniversal",
        "label": "settlementTimeout",
        "offset": 0,
        "slot": "6",
        "type": "t_uint256"
      },
      {
        "astId": 280,
        "contract": "src/EscrowUniversal.sol:EscrowUniversal",
        "label": "transactions",
        "offset": 0,
        "slot": "7",
        "type": "t_array(t_struct(Transaction)2448_storage)dyn_storage"
      },
      {
        "astId": 284,
        "contract": "src/EscrowUniversal.sol:EscrowUniversal",
        "label": "disputeIDtoTransactionID",
        "offset": 0,
        "slot": "8",
        "type": "t_mapping(t_uint256,t_uint256)"
      }
    ],
    "types": {
      "t_address": {
        "encoding": "inplace",
        "label": "address",
        "numberOfBytes": "20"
      },
      "t_address_payable": {
        "encoding": "inplace",
        "label": "address payable",
        "numberOfBytes": "20"
      },
      "t_array(t_struct(Transaction)2448_storage)dyn_storage": {
        "base": "t_struct(Transaction)2448_storage",
        "encoding": "dynamic_array",
        "label": "struct Transaction[]",
        "numberOfBytes": "32"
      },
      "t_bytes_storage": {
        "encoding": "bytes",
        "label": "bytes",
        "numberOfBytes": "32"
      },
      "t_contract(IArbitratorV2)134": {
        "encoding": "inplace",
        "label": "contract IArbitratorV2",
        "numberOfBytes": "20"
      },
      "t_contract(IDisputeTemplateRegistry)160": {
        "encoding": "inplace",
        "label": "contract IDisputeTemplateRegistry",
        "numberOfBytes": "20"
      },
      "t_contract(IERC20)238": {
        "encoding": "inplace",
        "label": "contract IERC20",
        "numberOfBytes": "20"
      },
      "t_enum(Status)2415": {
        "encoding": "inplace",
        "label": "enum Status",
        "numberOfBytes": "1"
      },
      "t_mapping(t_uint256,t_uint256)": {
        "encoding": "mapping",
        "key": "t_uint256",
        "label": "mapping(uint256 => uint256)",
        "numberOfBytes": "32",
        "value": "t_uint256"
      },
      "t_struct(Transaction)2448_storage": {
        "encoding": "inplace",
        "label": "struct Transaction",
        "members": [
          {
            "astId": 2423,
            "contract": "src/EscrowUniversal.sol:EscrowUniversal",
            "label": "buyer",
            "offset": 0,
            "slot": "0",
            "type": "t_address_payable"
          },
          {
            "astId": 2425,
            "contract": "src/EscrowUniversal.sol:EscrowUniversal",
            "label": "seller",
            "offset": 0,
            "slot": "1",
            "type": "t_address_payable"
          },
          {
            "astId": 2427,
            "contract": "src/EscrowUniversal.sol:EscrowUniversal",
            "label": "amount",
            "offset": 0,
            "slot": "2",
            "type": "t_uint256"
          },
          {
            "astId": 2429,
            "contract": "src/EscrowUniversal.sol:EscrowUniversal",
            "label": "settlementBuyer",
            "offset": 0,
            "slot": "3",
            "type": "t_uint256"
          },
          {
            "astId": 2431,
            "contract": "src/EscrowUniversal.sol:EscrowUniversal",
            "label": "settlementSeller",
            "offset": 0,
            "slot": "4",
            "type": "t_uint256"
          },
          {
            "astId": 2433,
            "contract": "src/EscrowUniversal.sol:EscrowUniversal",
            "label": "deadline",
            "offset": 0,
            "slot": "5",
            "type": "t_uint256"
          },
          {
            "astId": 2435,
            "contract": "src/EscrowUniversal.sol:EscrowUniversal",
            "label": "disputeID",
            "offset": 0,
            "slot": "6",
            "type": "t_uint256"
          },
          {
            "astId": 2437,
            "contract": "src/EscrowUniversal.sol:EscrowUniversal",
            "label": "buyerFee",
            "offset": 0,
            "slot": "7",
            "type": "t_uint256"
          },
          {
            "astId": 2439,
            "contract": "src/EscrowUniversal.sol:EscrowUniversal",
            "label": "sellerFee",
            "offset": 0,
            "slot": "8",
            "type": "t_uint256"
          },
          {
            "astId": 2441,
            "contract": "src/EscrowUniversal.sol:EscrowUniversal",
            "label": "lastFeePaymentTime",
            "offset": 0,
            "slot": "9",
            "type": "t_uint256"
          },
          {
            "astId": 2444,
            "contract": "src/EscrowUniversal.sol:EscrowUniversal",
            "label": "status",
            "offset": 0,
            "slot": "10",
            "type": "t_enum(Status)2415"
          },
          {
            "astId": 2447,
            "contract": "src/EscrowUniversal.sol:EscrowUniversal",
            "label": "token",
            "offset": 1,
            "slot": "10",
            "type": "t_contract(IERC20)238"
          }
        ],
        "numberOfBytes": "352"
      },
      "t_uint256": {
        "encoding": "inplace",
        "label": "uint256",
        "numberOfBytes": "32"
      }
    }
  }
}